:02000002D0002C
:1040000000400D00646D0D00000006000C0005016D
:084010000401E80500000000B6
:0440180008670D0028
:10401C0009480A49884208B505D0094A824202D0AB
:10402C00121A02F000FB0748074A0021121A02F08C
:10403C0020FB014808BD00BF28E40320D46C0D0010
:10404C0090E4032090E40320F0E7032070B501F026
:10405C001FFE074C074BE41AA40800251E46A54278
:10406C0004D056F8253098470135F8E770BD00BFED
:10407C00C86C0D00906C0D0000F08AB808B500F00B
:10408C00E3F8BDE8084001F0C5BD00F0ADBB00F0A1
:10409C00B3BB00F0B1BB0078B0FA80F040097047B8
:1040AC0001230370704710B50446006808B100F096
:1040BC00A3FB204610BD0EB400B58CB00DAA202376
:1040CC0052F8041B03928DE8060004930168002348
:1040DC0004AA0120059300F00BFB0CB05DF804EB77
:1040EC0003B070472DE9F04F91B004460E4604A87A
:1040FC001146154600F020FF002104A800F0C6FC74
:10410C002946074606A800F017FF012106A800F073
:10411C00BDFC2946804608A800F00EFF022108A825
:10412C0000F0B4FC294681460AA800F005FF0321E3
:10413C000AA800F0ABFC294682460CA800F0FCFE55
:10414C0004210CA800F0A2FC294683460EA800F01E
:10415C00F3FE05210EA800F099FC8DE8000E0390EB
:10416C0043463A4608490948FFF7A5FF2644B4429E
:10417C0007D001F08DFE036814F8011B9B6898476B
:10418C00F5E711B0BDE8F08F1C670D0010E50320BA
:10419C0010B596B001F07CFE4FF4165101F06CFE98
:1041AC0000F01AFF022100F07CFF00F015FF08213F
:1041BC0000F067FF00F010FF00F054FF00F00CFF60
:1041CC001E4A01460DA801F073FB0DA800F0E3FF99
:1041DC0000F002FF1A4A01460DA801F069FB0DA878
:1041EC0000F0D9FF0DA800F0DDFD164903A800F082
:1041FC0071FC03A908A800F06DFC08A800F0B4FC41
:10420C00044608A844B900F0CDFC16AA022322F8F3
:10421C004E0D0321009406E000F0C9FC002300932E
:10422C000246102307210DA800F075FD00F0D4FE06
:10423C0000220DA900F060FF16B010BDC8E40320E9
:10424C00D0E4032094E4032030B587B000F0C4FE22
:10425C0000F06FFF38B301F01BFE03681349DB68F5
:10426C0003229847002401F013FE03681B6998474A
:10427C00B8B1142C06D10023224601A90C4800F039
:10428C00F9FD10E001F004FE03685B69984701AD8D
:10429C00285501F0FDFD0368295D9B6898470134A2
:1042AC00E1E7002CE7D107B030BD00BF4F670D0030
:1042BC00C8E40320F0B50E4691B00021044601601D
:1042CC0041600BAD194606A8174600F003FC169981
:1042DC00284600F0FFFB10AA3B7802F82C3D189BF7
:1042EC000293179B01932046009506AB314601F0D3
:1042FC002BFA204611B0F0BD2DE9F047304D314E70
:10430C00314FDFF8EC90DFF8ECA0DFF8EC8090B0E8
:10431C0000F084F800244FF6FF736B812C60AC80A6
:10432C00AC712C81032000F0EBF93246274928466A
:10433C0002F00CF8264D2749384600F0C9FC2649F6
:10434C00484600F0C5FC2549284600F0C1FC102366
:10435C00294606A80BAD8DF8143000F0BBFB39468E
:10436C00284600F0B7FB06AB05AA02940194009511
:10437C001B495046FFF79EFF32464146504601F01E
:10438C00E5FF0423494606A88DF8143000F0A2FB83
:10439C0039462846134F00F09DFB134B019305AA99
:1043AC0006AB0294009511493846FFF783FF32465D
:1043BC004146384601F0CAFF10B0BDE8F08700BF97
:1043CC00BCE4032090E4032094E40320B3400D00EC
:1043DC00A8E4032053670D0078670D009D670D005E
:1043EC00C2670D00D0E40320F1400D00C5670D003D
:1043FC00D8E40320C8E40320A3510D0008B5024BF8
:10440C001B689B68019308BD6802030008B5024B4A
:10441C001B68DB68019308BD6802030008B5024BFA
:10442C001B681B68019308BD2C02030008B5024BE6
:10443C001B685B68019308BD1802030008B5024BAA
:10444C001B68DB68019308BD1802030008B5024B1A
:10445C001B685B69019308BD1802030008B5024B89
:10446C001B689B68019308BD7802030008B5024BDA
:10447C001B681B69019308BD7802030008B5024B49
:10448C001B681B6C019308BD7802030008B5024B36
:10449C001B681B6D019308BD7802030008B5024B25
:1044AC001B689B6D019308BD7802030008B5024B95
:1044BC001B681B6E019308BD7802030008B5034B03
:1044CC001B68D3F89830019308BD000078020300F4
:1044DC0008B5034B1B68D3F8A830019308BD000046
:1044EC007802030008B5034B1B68D3F8B430019372
:1044FC0008BD00007802030008B5034B1B68D3F815
:10450C00D830019308BD00007802030008B5034BB6
:10451C001B68D3F8DC30019308BD0000780203005F
:10452C0008B5034B1B68D3F8EC30019308BD0000B1
:10453C007802030008B5034B1B68D3F8F0300193E5
:10454C0008BD00007802030008B5034B1B68D3F8C4
:10455C000031019308BD00007802030008B5034B3D
:10456C001B68D3F80431019308BD000078020300E6
:10457C0008B5024B1B689B68019308BD48020300F9
:10458C0008B5024B1B681B69019308BD4802030068
:10459C0008B5024B1B685B69019308BD4802030018
:1045AC0008B5024B1B685B6C019308BD4802030005
:1045BC0008B5024B1B689B6C019308BD48020300B5
:1045CC0008B5024B1B68DB6C019308BD4802030065
:1045DC0008B5024B1B685B6D019308BD48020300D4
:1045EC0008B5024B1B685B69019308BD64020300AC
:1045FC0008B5024B1B681B68019308BD3C02030005
:10460C0008B5024B1B68DB68019308BD3C02030034
:10461C0008B5024B1B681B69019308BD3C020300E3
:10462C0008B5024B1B685B69019308BD3C02030093
:10463C0008B5024B1B689B69019308BD3C02030043
:10464C0008B5024B1B68DB69019308BD3C020300F3
:10465C0008B5024B1B689B6A019308BD3C02030022
:10466C0008B5024B1B681B68019308BD4C02030084
:10467C0008B5024B1B685B68019308BD4C02030034
:10468C0008B5024B1B681B69019308BD4C02030063
:10469C0008B5024B1B685B69019308BD4C02030013
:1046AC0008B5024B1B689B69019308BD4C020300C3
:1046BC0008B5024B1B68DB69019308BD4C02030073
:1046CC0008B5024B1B681B6A019308BD4C02030022
:1046DC0008B5024B1B685B6B019308BD60020300BD
:1046EC0008B5024B1B681B6D019308BD60020300EB
:1046FC0008B5024B1B685B6D019308BD600203009B
:10470C0008B5024B1B685B68019308BD20020300CF
:10471C0008B5034B1B68D3F88830019308BD000023
:10472C002002030008B5034B1B68D3F894300193A7
:10473C0008BD00002002030008B5024B1B685B6833
:10474C00019308BD4002030008B5024B1B689B682F
:10475C00019308BD4002030008B5024B1B68DB68DF
:10476C00019308BD4002030008B5024B1B681B698E
:10477C00019308BD4002030008B5024B1B685B693E
:10478C00019308BD4002030008B5024B1B689B69EE
:10479C00019308BD4002030008B5024B1B68DB699E
:1047AC00019308BD4002030008B5024B1B681B6A4D
:1047BC00019308BD4002030008B5024B1B681B6B3C
:1047CC00019308BD4002030008B5024B1B685B6BEC
:1047DC00019308BD4002030008B5024B1B68DB6B5C
:1047EC00019308BD4402030008B5024B1B681B680B
:1047FC00019308BD1C02030008B5024B1B685B68E3
:10480C00019308BD1C02030008B5024B1B689B6892
:10481C00019308BD1C020300002211464068FFF7FB
:10482C00C3BF002211464068FFF7CEBF002240688C
:10483C00FFF7C2BF002281F001014068FFF7ACBF57
:10484C0000231A4619464068FFF79EBF00231A46FC
:10485C0019464068FFF790BF002211464068FFF7E9
:10486C0083BF002211464068FFF76EBF0022022171
:10487C004068FFF771BF00231A464068FFF75CBF22
:10488C00024B03225A60024A1A607047ECE4032080
:10489C00D0670D0010B5094C00204FF6FF73206057
:1048AC00A080A07120816381FFF72AFF2046044A73
:1048BC000449BDE8104001F049BD00BFF4E40320F9
:1048CC0090E40320B3400D0010B504460068FFF7D8
:1048DC0093FF204610BD10B50446006808B1FFF7E1
:1048EC008BFF00232360A360636010BD38B50446C2
:1048FC000D4600680131FFF787FF10B184E82100F5
:10490C00012038BD10B50368044613B143688B42CF
:10491C0007D22046FFF7EAFF20B1A3680BB9226843
:10492C001370012010BD70B50E4611460446154695
:10493C00FFF7E8FF18B92046FFF7CDFF09E02A463C
:10494C003146A560206801F06EFE2268A368002144
:10495C00D154204670BD38B5002304460360436033
:10496C00836003730D4639B1084601F0B3FE294646
:10497C0002462046FFF7D7FF204638BD38B505461E
:10498C000C4641B1084601F0A5FE214602462846D8
:10499C00FFF7C9FF01E0FFF79EFF284638BD7047BF
:1049AC000020704770470020704770470020704708
:1049BC0010B51421044601F0CEFC204610BD10B5F4
:1049CC001421044601F0C7FC204610BD10B514217B
:1049DC00044601F0C0FC204610BDFFF758BBFFF7A2
:1049EC0056BBFFF754BB10B50446006808B1FFF77F
:1049FC00DFFD204610BD000008B50A20024A002148
:104A0C00FFF766FE08BD00BF49440D0010B50368F2
:104A1C0004469B689847A368013BA3602BB92368A5
:104A2C002046DB68BDE81040184710BDA0F13003EC
:104A3C00DAB2092A01D818467047A0F16103052B98
:104A4C0001D857387047A0F14103052B94BF373874
:104A5C004FF0FF307047000010B500230370044B7B
:104A6C0004461868FFF7ACFD01232370204610BDE7
:104A7C000CE5032010B5037804461BB1024B1868F3
:104A8C00FFF7A6FD204610BD0CE50320052994BFB9
:104A9C00405C0020704708B582798B799A4206D128
:104AAC00062201F0B1FDB0FA80F0400908BD0020EB
:104ABC0008BD000010B501230361054B024603F14C
:104ACC00100153F8044B42F8044B8B42F9D110BD42
:104ADC00006A0D0010B50B69036101F11002034669
:104AEC0051F8044B43F8044B9142F9D110BD10B569
:104AFC000B460446B9B1012A09D1034601F1100253
:104B0C0051F8040B43F8040B9142F9D108E0411E13
:104B1C000F22985C01F8010F013AD2B2FF2AF8D1AA
:104B2C000123236102E0102201F0A3FD204610BDF9
:104B3C0038B5054614461A46FFF7D9FF2C73240ADC
:104B4C006C73284638BD000008B502690AB9808923
:104B5C0003E01022034901F057FD003018BF01207B
:104B6C0008BD00BF006A0D000069704738B50C46DF
:104B7C0014220021054601F07CFD23692BB9627BD0
:104B8C00237B43EA02232B800AE001232B7404F1DC
:104B9C0010022B4654F8041B43F8041B9442F9D121
:104BAC00284638BD427B007B40EA022070477047A4
:104BBC0010B50B69036101F11002034651F8044B67
:104BCC0043F8044B9142F9D110BD10B586B00446A0
:104BDC00012201A8FFF78BFF01A92046FFF7E8FF90
:104BEC0006B010BD08B502690B699A4206D11022B5
:104BFC0001F00AFDB0FA80F0400908BD002008BDA4
:104C0C000123F7B50361314B0E460546024603F10D
:104C1C00100153F8040B42F8040B8B42F9D1002E0F
:104C2C0051D02421304601F05DFD042810D000271E
:104C3C0010242421304601F055FDB84201D944BB63
:104C4C0041E02C440023A5423DD004F8013DFAE795
:104C5C003078FFF7EBFE041E18DB7078FFF7E6FEEA
:104C6C00002813DB40EA04108DF80400B078FFF73D
:104C7C00DDFE041E0ADBF078FFF7D8FE0028A1BF8A
:104C8C0040EA04109DF8043028736B7300232B61E9
:104C9C0019E0F05DFFF7CAFE030612D4013C0001D7
:104CAC0028552421304601F01DFD0137874208D2DA
:104CBC00F05DFFF7BBFE40B20028A2BF2B5D18438E
:104CCC0028550137B5E703B0F0BD00BF006A0D00F1
:104CDC0038B504460D46FFF7EDFE20462946FFF792
:104CEC008FFF204638BDF0B58BB10024E51C8D42FA
:104CFC000FD8661C055D875D974205D12E44B142E5
:104D0C0007D31C60681CF0BD01352C44EEE7184637
:104D1C00F0BD0020F0BD2DE9F74304460E461D46BC
:104D2C001746002A3AD00A4601AB016AFFF7DBFFAF
:104D3C009DF82830226A03BBF8B1961C2E44361A13
:104D4C001F2E2BD8DDF8048008F10209C8EB0202F3
:104D5C00121A00EB080105EB090092B22144204421
:104D6C0001F06CFC6B1C04F808302A46394604EB45
:104D7C00090001F058FC266210E0901C2B181F2B28
:104D8C000CD86B1CA3542244206239465670204424
:104D9C002A4601F048FC226A2A442262206A03B0A7
:104DAC00BDE8F0831FB50446034600F11F02002046
:104DBC0003F8010B93424FF00001F9D104AA06232A
:104DCC0002F8013D01232162009120461946FFF7AC
:104DDC00A2FF204604B010BD73B50A460E4601ABC7
:104DEC00016A0446FFF77FFF054678B10198226AF5
:104DFC002918121A521B2144204401F014FC236A76
:104E0C005D1B256231462046FFF7E6FF02B070BD00
:104E1C0038B500254FF6FF73044643800E22294611
:104E2C0005700571063001F024FC04F11400FFF745
:104E3C0041FE04F12800FFF73DFE044904F13C005B
:104E4C00FFF789FDE5642565204638BDB76A0D007E
:104E5C0010B58369C26903EBC2029342184606D0AF
:104E6C00046824888C4203F10803F6D110BD00209D
:104E7C0010BD00002DE9F34180461F460E4669B374
:104E8C0062B3F42A056828BFF42214462A78A2B12A
:104E9C002B79980707D500232246A889FFF722FB18
:104EAC00002802DA43E06FF07700D8F800502B7935
:104EBC00DA0618D5012F23D115E068884FF6FF7359
:104ECC0098420DD02B79590723D5012F21D0A989D0
:104EDC00009223463246FFF719FB28E0154826E0DE
:104EEC006FF0D10023E09A0621D5022F1FD0A8899C
:104EFC0000232246314602B0BDE8F041FFF72EBB3D
:104F0C00A88900232246314602B0BDE8F041FFF7E4
:104F1C001BBB1B0701D5022F02D16FF0770006E0F7
:104F2C000023A989009332462346FFF7E5FA02B025
:104F3C00BDE8F081F2FEFFFF10B50A6852F8023F9F
:104F4C0003605368436010BD1FB502680B6812887C
:104F5C001B889A420C460CD101466846FFF7ECFFC1
:104F6C00214602A8FFF7E8FF02A96846FFF793FD68
:104F7C0000B9002004B010BD10B504463420FFF772
:104F8C0084F8014668B10023036043608360C3600A
:104F9C00036143618361C361036243628362C362E1
:104FAC000363216019B90A4A0A20FFF791FB00201C
:104FBC00FFF754FA20B1064A00210A20FFF788FBBC
:104FCC00002221680348FFF7B5FA204610BD00BF48
:104FDC0049440D0001540D0010B50A4C2368DB0741
:104FEC000ED42046FFF757F850B10748FFF7C4FF1F
:104FFC002046FFF755F8054A0549034801F0A6F984
:10500C00014810BD04E5032000E5032090E40320D3
:10501C0017520D0070B50368093B012B8AB004468A
:10502C000E4619D8FFF7D8FFA1880068FFF710FFCC
:10503C00024658B920230293084B0390009302AA0E
:10504C00034607493220FFF74BFB05E0F56C1DB119
:10505C00336DE1682069A8470AB070BDAA680D00DD
:10506C0060680D0013B501A8FFF7F6FC0020FFF7F0
:10507C00F5F9044601A8FFF7FDFC04EAE47002B060
:10508C0010BD13B50C4601A8FFF7E6FC0021204625
:10509C00FFF7F4F9044601A8FFF7ECFC204602B038
:1050AC0010BD08460021FFF7E1B9084609B90A46C8
:1050BC0001E0096A0022FFF7E9B910B50C4611B9F5
:1050CC000A46084606E001212046FFF785FE216AC4
:1050DC0000222046BDE81040FFF7E0B913B501A847
:1050EC00FFF7BAFC0020FFF7E1F9044601A8FFF72F
:1050FC00C1FC204602B010BD73B505460C4601A894
:10510C001646FFF7A9FC21462846FFF7CEFF0028DC
:10511C0008DB31462846FFF7D0FF002802DB284683
:10512C00FFF7DCFF044601A8FFF7A4FC204602B001
:10513C0070BD0368D8690028D4BF002001207047D7
:10514C000B68036013B15A6801325A60704710B58E
:10515C0051F8043B044640F8043BFFF7F1FF236889
:10516C000BB9FFF749FC204610BD10B551F8043BB4
:10517C00044640F8043BFFF7E3FF204610BD10B592
:10518C000446006828B14368013B43600BB9FFF744
:10519C003DFC204610BD10B504460430FFF7EFFF70
:1051AC00204610BD70B504684368054604EBC30681
:1051BC00A64204D0201DFFF7E2FF0834F8E7286868
:1051CC00FFF71AFB284670BD70B5046843680546A6
:1051DC0004EBC306A64204D0201DFFF7D0FF083411
:1051EC00F8E72868FFF708FB284670BD10B504697E
:1051FC0004F11800FFF7E8FF04F10C00FFF7D2FFF1
:10520C002046BDE81040FEF742BFF8B504680746DB
:10521C00C4B1A569E36905EBC306AE4204D0281DF1
:10522C00FFF7ADFF0835F8E7A069FFF7E5FA04F1E1
:10523C000C00FFF7C9FF2046FFF7B4FF34212046CE
:10524C0001F089F83846F8BD73B500250560456056
:10525C0006462420FEF719FF044678B103464FF6A4
:10526C00FF7223F8022BC0F802505D608572C57284
:10527C00C560056145618561C56105620023142027
:10528C000193FEF702FF034628B1012242608260BF
:10529C00084A0260046102A8726840F8042D736029
:1052AC003460FFF76CFF33680BB9FFF7A5FB304692
:1052BC0002B070BD3C680D00884270B515461AD915
:1052CC00904219D2A1F10806511A0439151F44183D
:1052DC002B1F9E4225D0042C07D055F8043C44F8D3
:1052EC00043C29462046FFF72BFF2846FFF747FFD3
:1052FC00083D083CECE714D00C1D061D231F9D42F5
:10530C000FD0042E07D054F8043C46F8043C214638
:10531C003046FFF715FF2046FFF731FF08340836FB
:10532C00ECE770BD2DE9F0410468436805468846FA
:10533C0004EBC307A74218D041462046FFF704FEF2
:10534C00064608B90834F5E78CB1201DFFF717FFA6
:10535C002B686A6804F1080103EBC2022046FFF7D0
:10536C00ABFF6B68013B6B6002E0002600E0264659
:10537C003046BDE8F081F7B5044651F8043B476868
:10538C00009301A8FFF7DCFE6668A3689E4214DB5D
:10539C000136002E0BDDF000FFF726FA054618B398
:1053AC0094E8060001EBC202FFF786FF00E000253F
:1053BC002068FFF721FA2560A6602668626806EB74
:1053CC00C70506EBC202294605F10800FFF774FF7A
:1053DC0035B1009B46F8373001A9281DFFF7B0FE08
:1053EC00636801336360012501A8FFF7C8FE2846F6
:1053FC0003B0F0BD2DE9F04104468EB003A80D4674
:10540C00FFF72AFB2368032B02D0042B42D087E042
:10541C0004A8FFF719FF049B22891A80626804997B
:10542C0052F8083FC1F802305368C1F8063007A89B
:10543C00049B069305A9FFF783FE06A905F1180046
:10544C00FFF799FF044607A8FFF799FE2023069360
:10545C0074B9364B009306AA23463549079432207B
:10546C00FFF73EF9049B21461888FFF727F80DE05B
:10547C00304A0092002306AA2D4907930120FFF71A
:10548C002FF96B6A13B1E96A04A8984705A8FFF7CE
:10549C0076FE45E021892846FFF7DAFC074600280E
:1054AC003ED00468A369E1694FF6FF72228003EBDA
:1054BC00C101994203D053F8080B4280F9E7E66822
:1054CC00236906EBC308B04504D0301DFFF757FE27
:1054DC000836F8E700232361A669E36906EBC308E5
:1054EC00B04504D0301DFFF74AFE0836F8E700231C
:1054FC00E361A372E372AB6A13B1296B3846984728
:10550C0020230D4A0693009200230949079301209A
:10551C0006AAFFF7E5F8394605F11800FFF702FF78
:10552C0003A8FFF7A7FA0EB0BDE8F081C2680D0022
:10553C0060680D00E8680D0005690D008842F8B53B
:10554C0006460C46154614D9904213D2A2F1080512
:10555C006C1AA1F108070444AF4218D01CB12946BB
:10556C002046FFF702FE281DFFF709FE083D083C08
:10557C00F2E70CD0AC420AD01EB121463046FFF700
:10558C00F4FD201DFFF7FBFD08340836F2E7F8BDEB
:10559C0070B50E1E05460BDDF000FFF725F904462D
:1055AC0070B195E8060001EBC202FFF7C7FF00E0FF
:1055BC0000242868FFF720F92C60AE60012070BD34
:1055CC0070BD73B5044645686846FFF7CEFD61684B
:1055DC00A368994205DB01312046FFF7D9FF064647
:1055EC0098B12368626803EBC50503EBC202294638
:1055FC0005F10800FFF7A2FF1DB169462846FFF729
:10560C00B4FD636801336360012601A8FFF7B7FDA1
:10561C00304602B070BD8842F8B506460C461546B9
:10562C0014D9904213D2A2F108056C1AA1F1080703
:10563C000444AF4218D01CB129462046FFF787FD21
:10564C00281DFFF79CFD083D083CF2E70CD0AC424E
:10565C000AD01EB121463046FFF779FD201DFFF719
:10566C008EFD08340836F2E7F8BD70B50E1E0546FF
:10567C000BDDF000FFF7B8F8044670B195E80600B2
:10568C0001EBC202FFF7C7FF00E000242868FFF718
:10569C00B3F82C60AE60012070BD70BD73B50446CC
:1056AC0045686846FFF753FD6168A368994205DBBE
:1056BC0001312046FFF7D9FF064698B1236862688E
:1056CC0003EBC50503EBC202294605F10800FFF701
:1056DC00A2FF1DB169462846FFF739FD6368013307
:1056EC006360012601A8FFF74AFD304602B070BD89
:1056FC0010B50446406808B1FEF7C9FC204610BD41
:10570C0007B503690C308DE8090003F13C00FFF785
:10571C00DBF86846FFF7ECFF03B05DF804FB000014
:10572C0038B500230446036014200D46FEF7ADFC8B
:10573C0028B1012343608360024B03600561206044
:10574C00204638BD04680D002DE9F04188B00546AF
:10575C001E46542000230F46904604930593FEF7F3
:10576C0094FCCDF818D004460790C0B198F800808E
:10577C00FFF74EFB394604F13C0084F80480FFF738
:10578C00FDF80F9BE3643146109B236504F1140074
:10579C00FFF70EFA0E9904F12800FFF709FA2146DB
:1057AC00002601AB02AA03A80796FFF7B9FF039BDB
:1057BC00059A039203A805930494FFF7E0FC06A84E
:1057CC00FFF796FF049B2968059A2B6008A86B6865
:1057DC0006916A6040F8043D05960496FFF7CFFCED
:1057EC0005A8FFF7CCFC296819B9034A0A20FEF773
:1057FC006FFF08B0BDE8F08149440D0010B50446B8
:10580C00406808B1FEF743FC204610BD07B503699C
:10581C000C308DE809006846FFF7F0FF03B05DF827
:10582C0004FB000038B500230446036014200D4629
:10583C00FEF72BFC28B1012343608360024B03600D
:10584C0005612060204638BD20680D00F0B50026AB
:10585C0087B006604660044618200F46FEF715FC1C
:10586C00CDF810D00546059038B1FFF723F939462D
:10587C002846AE82EE82FFF79BF90023294605935A
:10588C0002AA01AB03A8FFF7CDFF039B626825605A
:10589C00636003A80392FFF772FC04A8FFF7AEFF46
:1058AC0023680BB9FFF7A8F8204607B0F0BD00003D
:1058BC002DE9F04F1746A1B080460AA80E46FFF717
:1058CC00CBF83C682379002B00F0DE803368DD6870
:1058DC001B6905EBC303039304F1140A04F1280BB1
:1058EC00039BAB4223D0D5F80090504609F114012C
:1058FC00FFF778F9002800F0CC8009F12801584610
:10590C00FFF770F9002800F0C480236823F47F416E
:10591C00D9F8003023F47F43994240F0BA80202319
:10592C00604A159300230092169315AAA8E004F17F
:10593C0028094846FFF708F918B95B494846FFF7AC
:10594C0044F933681D685B6805EBC30A5545494645
:10595C0005D02868FFF746F958BB0835F6E70BA8C1
:10596C00FFF774FF494615A8FFF700F90B9A0023BF
:10597C00143215A90120FEF7ABFD002878D135684B
:10598C000BA90DA8FFF7F1FB28460DA9FFF719FE8F
:10599C0005460EA8FFF7F3FB002D69D03268556859
:1059AC0005F100531568013B0CA805EBC305FFF787
:1059BC00E6FB04F114094846FFF7C6F868B93B4BFF
:1059CC0039491A88013292B21A8015A80123FFF7BF
:1059DC00AFF815A94846FFF7EBF84FF02C0A5246E2
:1059EC00002115A800F045FE0123494604A8ADF896
:1059FC005430ADF856A0FFF7B9F804AB18AA0DF166
:105A0C00200C186859689646AEE8030008336345C5
:105A1C007246F6D11868CEF8000023798DF858300C
:105A2C002B689B8AADF87430E36B17930022204BE4
:105A3C001E93A11D15A81F94FEF772FD20BB012318
:105A4C002370346839460C340DA8FFF780FB2046D0
:105A5C000DA9FFF723FE04460EA8FFF790FB9CB997
:105A6C0020230D93134B00930E9423460DAA07E0AD
:105A7C0039464046FFF76BFB0CA8FFF780FB0AE0AA
:105A8C000D493220FEF72CFE39464046FFF75FFBEE
:105A9C0001E0083524E70AA8FEF7ECFF404621B0E8
:105AAC00BDE8F08FD5690D0050680D0008E50320A6
:105ABC0021500D00AE690D0060680D0010B5064C4C
:105ACC00002320462360FEF76BFD2046034A044961
:105ADC00BDE8104000F03ABC0CE5032090E4032034
:105AEC00F3490D00F8B506460D468F180024BD424B
:105AFC000CD0336815F8011B9B683046984700287A
:105B0C0001DB0444F3E7002C08BF04462046F8BD33
:105B1C0070B505460C46084649B100F0DBFD2B6814
:105B2C00024621462846DB68BDE87040184770BD28
:105B3C0003689B68184730B58BB00B4600218DF875
:105B4C002410012A98BF0A220DF12304B3FBF2F5AD
:105B5C0005FB123303F0FF03092B94BF30333733AB
:105B6C00DBB2214604F801392B46002DEED1FFF7AC
:105B7C00CFFF0BB030BD0000014B024A1A607047DA
:105B8C0010E50320836A0D00024B1A68024B1A6061
:105B9C00704700BF28E4032014E5032010B5836888
:105BAC00044613B1032201469847204610BD10B598
:105BBC000446FFF7F3FF204610BD00000348044ADB
:105BCC0004490023836000F0C1BB00BF18E503202B
:105BDC0090E40320BB5B0D0008B50C4B33B100F017
:105BEC0057F903681B699847002809DC084B63B117
:105BFC0000F0CCF903681B699847002803DC08BD4A
:105C0C00AFF30080F2E7AFF3008008BD00000000A6
:105C1C000000000008B5FFF7DFFFFEF717FC014B93
:105C2C00186008BD4CE703200248034A0349121AC6
:105C3C0000F0F9BC00F4032004F40320D06C0D0038
:105C4C0007B5002300931A466FF07701FEF76AFD43
:105C5C0003B05DF804FB000007B543880A2B08D09D
:105C6C00502B09D1094B1B683BB103B05DF804EB19
:105C7C001847FFF7E5FF06E0002300931A466FF084
:105C8C007701FEF74FFD03B05DF804FB28E5032018
:105C9C0038B5104C104D2368AB42104B0CBF012291
:105CAC0000221A7002D0FFF7BFFF2560FEF7BEFB83
:105CBC00044600F0E7FC0A4B13B12046AFF300801A
:105CCC0000210748FEF788FD00210648BDE8384052
:105CDC00FEF71EBD00F403201E1C279A2CE50320A2
:105CEC0000000000655C0D00704710B518210446DB
:105CFC0000F031FB204610BDF0B5037D062B8DB0B6
:105D0C000E4600F104074FF0000402D000F1080524
:105D1C0018E00CAD394605F8304D2F232A460A20E1
:105D2C00FEF75EFC284600F0D5FC33680246DB68C3
:105D3C002946304698470FE024B12E213046FFF714
:105D4C00F7FE044415F8011D0A223046FFF7F3FE56
:105D5C00BD420444F0D120460DB0F0BD10B5054B4A
:105D6C000446112240F8043B002100F082FC20463E
:105D7C0010BD00BF246B0D000346074A10B543F855
:105D8C00042B01F1100251F8044B43F8044B9142DF
:105D9C00F9D10A781A7010BD246B0D0010B59DF85E
:105DAC00084044EA032343EA024242EA0161042325
:105DBC004160037510BD37B50D788B784A78C9787A
:105DCC0000912946FFF7EAFF03B030BD41747047DC
:105DDC00704708B50021007CFEF762FC30EA200019
:105DEC0028BF4FF0FF3008BD08B50121007CFEF73D
:105DFC0057FC30EA200028BF4FF0FF3008BD08B533
:105E0C00007CFEF745FC20EAE07008BD08B5007C7C
:105E1C00FEF736FC20EAE07008BD007CFEF750BCB3
:105E2C0010B51421044600F096FA204610BD38B582
:105E3C000446007C0D46FEF72BFC002801DC607C40
:105E4C0028B12946207CFEF733FC20EAE07038BDEF
:105E5C0010B50446002363604FF47A73A360054BBE
:105E6C00236001230846217463741146FEF7F8FB86
:105E7C00204610BD386B0D000022007CFEF7F8BBED
:105E8C0010B514220446002100F0F3FB204610BD8F
:105E9C0030B50E4D87B001A8FFF7F2FF296811F05D
:105EAC00010410D12846FEF7F6F860B101AA21468C
:105EBC000748FFF7CDFF2846FEF7F2F8054A0649DA
:105ECC00034800F043FA024807B030BD30E5032028
:105EDC0034E5032090E40320DD5D0D007047417430
:105EEC00704708B5007CFEF7B3FB20EAE07008BDF4
:105EFC0008B5007CFEF78CFB20EAE07008BD08B505
:105F0C00007CFEF795FB30EA200028BF4FF0FF30F5
:105F1C0008BD08B5007CFEF783FB30EA200028BFE3
:105F2C004FF0FF3008BD007CFEF78ABB10B5142182
:105F3C00044600F010FA204610BD70B5457C0446AE
:105F4C000E4625B9007CFEF783FB002805DD3146A3
:105F5C00207CBDE87040FEF753BB284670BD0000A6
:105F6C0010B5044608461146002262604FF47A725E
:105F7C00A260054A22600122207462741A46FEF760
:105F8C0037FB204610BD00BF686B0D00F8B5194CEF
:105F9C0025684DB98420FEF778F8064618B184229E
:105FAC00294600F066FB2660134D2E684EB98420FE
:105FBC00FEF76BF8074618B18422314600F059FB06
:105FCC002F600E4F396811F0010611D13846FEF7DB
:105FDC0062F868B122682B6809483146FFF7C0FFA8
:105FEC003846FEF75DF8074A0749054800F0AEF958
:105FFC000348F8BD64E503205CE5032060E503205D
:10600C0048E5032090E40320E95E0D0000221146D0
:10601C004068FEF7C9BB002211464068FEF7D4BBAE
:10602C0000224068FEF7C8BB002281F001014068E5
:10603C00FEF7B2BB00231A4601214068FEF7A4BB51
:10604C0000231A4619464068FEF796BB00221146FB
:10605C004068FEF789BB002211464068FEF774BB0E
:10606C00002202214068FEF777BB00231A464068E5
:10607C00FEF762BB38B5054688B104684CB1A3681D
:10608C001BB103222146204698471021204600F0E0
:10609C0062F928461421BDE8384000F05CB938BDDF
:1060AC0010B103685B681847704710B50368044665
:1060BC00BBB15868FEF75CFA78B923685A7C12B900
:1060CC005868FEF75DFA23685868FEF761FA206895
:1060DC000023236028B1FFF7CDFF206808B1FFF73C
:1060EC00C9FF204610BD38B50446D0F8C40108B12C
:1060FC00FDF7CFFFD4F8C00108B1FEF759FAD4F878
:10610C00BC5135B12846FFF7D0FF0421284600F0DA
:10611C0022F9206808B1FFF7C3FF204638BD000004
:10612C0010B5044B044640F8083BFFF7DCFF204653
:10613C0010BD00BF986B0D0038B50E4C0E4B236094
:10614C000025022304F5E4706360A560C4F8C45113
:10615C00C4F8C851FEF724FA084BC4F8CC5184F8A3
:10616C00D05123602046064A0649BDE8384000F06D
:10617C00EDB800BF68E50320006C0D00986B0D00B6
:10618C0090E403202D610D00002211464068FEF7BB
:10619C00EBBA002211464068FEF706BB00221146FE
:1061AC004068FEF711BB00224068FEF705BB0022D9
:1061BC0081F001014068FEF7EFBA00231A46194638
:1061CC004068FEF7E1BA00231A4619464068FEF70C
:1061DC00D3BA002211464068FEF7B6BA002202215B
:1061EC004068FEF7B9BA00231A464068FEF7A4BA15
:1061FC00024B04225A60024A1A6070473CE70320A3
:10620C00CC6B0D0000231A464068FEF795BA0022AD
:10621C0002214068FEF7A0BA002211464068FEF742
:10622C0093BA002211464068FEF79EBA00231A4624
:10623C0019464068FEF7A0BA00231A461946406872
:10624C00FEF7A2BA002281F001014068FEF7A4BA61
:10625C0000224068FEF7B0BA002211464068FEF7F3
:10626C00B3BA002211464068FEF79EBA2DE9F043FE
:10627C00002495B016460D460746FFF76FFD2146E4
:10628C0020220CA8009400F0F4F940230C93214632
:10629C006B460CAA3046FEF7B9F80446002844D1E8
:1062AC00024601216868FEF75FFA02218046224609
:1062BC006868FEF759FA009E81462146002E34D0BC
:1062CC00002932D17368022B02D00A2B09D02AE0A4
:1062DC00B8F1000F27D0716938460431FFF76BFD18
:1062EC0020E0B9F1000F1ED07469112201A800F052
:1062FC00C0F906238DF8143001AD04F108031834ED
:10630C00186859682A4603C20833A3421546F7D1C8
:10631C0001A906A807ADFFF72FFD0FCD3C1D0FC43B
:10632C002B6823700121F669C8E70098FEF766F820
:10633C00384615B0BDE8F083024B034A1A600022C0
:10634C005A60704744E70320006C0D000B46014671
:10635C00184600F04BB9FDF79ABE0000184B1A68AE
:10636C00D1075CBF01221A60164B1A68D2075CBFBA
:10637C0001221A60144B1A68D0075CBF01221A6004
:10638C00124B1A68D1075CBF01221A60104B1A68B5
:10639C00D2075CBF01221A600E4B1A68D0075CBF93
:1063AC0001221A600C4B1A68D1075CBF01221A60DB
:1063BC000A4B1A68D2075CBF01221A60704700BFF3
:1063CC006CE7032068E7032064E7032060E7032001
:1063DC005CE7032058E7032054E7032050E7032031
:1063EC00244B1A68D0075CBF01221A60224B1A6832
:1063FC00D1075CBF01221A60204B1A68D2075CBF20
:10640C0001221A601E4B1A68D0075CBF01221A6069
:10641C001C4B1A68D1075CBF01221A601A4B1A6810
:10642C00D2075CBF01221A60184B1A68D0075CBFF8
:10643C0001221A60164B1A68D1075CBF01221A6040
:10644C00144B1A68D2075CBF01221A60124B1A68EF
:10645C00D0075CBF01221A60104B1A68D1075CBFD1
:10646C0001221A600E4B1A68D2075CBF01221A6017
:10647C00704700BF9CE7032098E7032094E70320B4
:10648C0090E703208CE7032088E7032084E70320B0
:10649C0080E703207CE7032078E7032074E70320E0
:1064AC0070E70320244B1A68D0075CBF01221A60E6
:1064BC00224B1A68D1075CBF01221A60204B1A6864
:1064CC00D2075CBF01221A601E4B1A68D0075CBF52
:1064DC0001221A601C4B1A68D1075CBF01221A609A
:1064EC001A4B1A68D2075CBF01221A60184B1A6843
:1064FC00D0075CBF01221A60164B1A68D1075CBF2B
:10650C0001221A60144B1A68D2075CBF01221A6070
:10651C00124B1A68D0075CBF01221A60104B1A6824
:10652C00D1075CBF01221A600E4B1A68D2075CBF00
:10653C0001221A60704700BFCCE70320C8E7032094
:10654C00C4E70320C0E70320BCE70320B8E703201F
:10655C00B4E70320B0E70320ACE70320A8E703204F
:10656C00A4E70320A0E70320184B1A68D1075CBFEF
:10657C0001221A60164B1A68D2075CBF01221A60FE
:10658C00144B1A68D0075CBF01221A60124B1A68B0
:10659C00D1075CBF01221A60104B1A68D2075CBF8E
:1065AC0001221A600E4B1A68D0075CBF01221A60D8
:1065BC000C4B1A68D1075CBF01221A600A4B1A688F
:1065CC00D2075CBF01221A60704700BFECE70320C2
:1065DC00E8E70320E4E70320E0E70320DCE70320FF
:1065EC00D8E70320D4E70320D0E7032010B5054CEF
:1065FC0013462CB10A4601460220AFF3008010BDB1
:10660C00204610BD0000000010B501390244904234
:10661C0007D010F8013B11F8014FA342F7D0181B1B
:10662C0010BD002010BD10B5431E0A44914204D089
:10663C0011F8014B03F8014FF8E710BD884210B573
:10664C0001EB020301D8421E0BE09842FBD28118E9
:10665C00D21AD34204D013F8014D01F8014DF8E7DA
:10666C0010BD994204D011F8014B02F8014FF8E724
:10667C0010BD02440346934202D003F8011BFAE713
:10668C007047000038B5124B1C68A36B0546D3B994
:10669C001820FEF7A9F843F20E33A06303804AF6E4
:1066AC00CD33438041F2342383804EF26D63C3803B
:1066BC004DF6EC630381052343810B238381012277
:1066CC000023C0E90423A36B00221D615A6138BD6D
:1066DC008CE40320034613F8012B002AFBD1181A73
:1066EC000138704710B5034601448B4204D01A7828
:1066FC005C1C0AB12346F8E7181A10BD1D400D00AA
:10670C0059400D0085400D0089400D00000000002F
:10671C005265636569766564206461746120667294
:10672C006F6D3A20253032583A253032583A2530A0
:10673C0032583A253032583A253032583A253032D0
:10674C00583A0068656A0036453430303030312DA7
:10675C00423541332D463339332D453041392D45A2
:10676C0035304532344443434139450036453430A5
:10677C00303030332D423541332D463339332D45AE
:10678C003041392D45353045323444434341394548
:10679C000036453430303030322D423541332D46C1
:1067AC003339332D453041392D453530453234445C
:1067BC0043434139450074780072780000000000B2
:1067CC000000000083480D0079480D006F480D0053
:1067DC0065480D0059480D004D480D0041480D000D
:1067EC0039480D002F480D0025480D0079620D0029
:1067FC000000000000000000B7490D00BD490D006D
:10680C000D570D00E7490D00B9490D0000000000BF
:10681C0000000000B1490D00CB490D0019580D00C6
:10682C00EB490D00B3490D00000000000000000012
:10683C00AB490D00D9490D00F9510D00EF490D0080
:10684C00AD490D007BE327747BF815ACDD49A9132A
:10685C00000072F5776972696E672E626C65005381
:10686C007461727420646973636F766572696E67A4
:10687C002073657276696365732E0053746172744C
:10688C0020646973636F766572696E6720636861F3
:10689C007261637465726973746963732E005065F9
:1068AC00657220646576696365206973206D697310
:1068BC0073696E6721004661696C656420746F2092
:1068CC00617070656E6420706565722043656E74CE
:1068DC0072616C206465766963652E00436F6E6E21
:1068EC0065637465642062792043656E7472616CB3
:1068FC00206465766963652E00446973636F6E6E00
:10690C0065637465642062792072656D6F746520AF
:10691C006465766963652E0043616E6E6F742061E9
:10692C006464206E65772070656572206465766995
:10693C0063652E004E6577207065726970686572AC
:10694C00616C20697320636F6E6E65637465642E71
:10695C00004661696C656420746F20617070656EAF
:10696C006420646973636F76657265642063686123
:10697C0072616374657269737469632E0046616930
:10698C006C656420746F20617070656E642064693E
:10699C0073636F766572656420736572766963657F
:1069AC002E004661696C656420746F20617070659F
:1069BC006E64206C6F63616C2063686172616374D8
:1069CC00657269737469632E004475706C696361D8
:1069DC007465642063686172616374657269737451
:1069EC0069632063616E6E6F7420626520616464FC
:1069FC0065642E00FB349B5F80000080001000005B
:106A0C0000000000626175640053657269616C007E
:106A1C0053657269616C31007479706500706172D4
:106A2C00616D00636D6400696400686E640073746A
:106A3C00726D0066696C74006C766C0061646448FD
:106A4C00616E646C65720072656D6F766548616E1F
:106A5C00646C657200656E756D48616E646C657210
:106A6C0073004A534F4E53747265616D4C6F674897
:106A7C00616E646C65720061707000253031307528
:106A8C0020005D20002564002C200028293A2000DD
:106A9C00205B00636F6465203D2000256900646500
:106AAC007461696C73203D20000D0A0066006C6EE9
:106ABC0000666E00636F64650064657461696C00E8
:106ACC006E6F6E6500747261636500696E666F004F
:106ADC007761726E006572726F720070616E6963BD
:106AEC0000616C6C005A00252B3033643A2530322F
:106AFC00750025592D256D2D25645425483A254DB5
:106B0C003A2553257A0061736374696D6500000042
:106B1C000000000000000000055D0D00F55C0D009C
:106B2C00F75C0D000000000000000000DD5D0D00B2
:106B3C002D5E0D003B5E0D00F15A0D00195E0D002F
:106B4C00DF5D0D00F55D0D00275E0D000B5E0D0089
:106B5C00D95D0D000000000000000000E95E0D0092
:106B6C00395F0D00475F0D00F15A0D00FD5E0D0001
:106B7C001F5F0D000B5F0D00335F0D00EB5E0D0012
:106B8C00EF5E0D00000000000000000077600D00BB
:106B9C006D600D0063600D0059600D004D600D00BF
:106BAC0041600D0035600D002D600D0023600D005F
:106BBC0019600D0079620D0000000000000000005B
:106BCC00F3610D00E9610D00DF610D0095610D00B1
:106BDC00D3610D00C7610D00BB610D00B3610D00E9
:106BEC00A9610D009F610D0079620D00000000008D
:106BFC000000000011620D001B620D0025620D00EB
:106C0C002F620D0039620D0045620D0051620D00BE
:106C1C005D620D0065620D006F620D0079620D0002
:106C2C000000000000000000000000000000000058
:106C3C000000000000000000000000000000000048
:106C4C000000000000000000000000000000000038
:106C5C000000000000000000000000000000000028
:106C6C000000000000000000000000000000000018
:106C7C000000000000000000000000000000000008
:106C8C004300000005430D008D480D00A1480D0088
:106C9C00C95A0D00855B0D00955B0D00C95B0D009D
:106CAC0045610D00FD610D0045630D0069630D002C
:106CBC00ED630D00B1640D0075650D000000000062
:046CCC0000000000C4
:046CD00000000000C0
:106CD400126B0D00000000002C6C0D004C6C0D00BC
:106CE4006C6C0D00000000000000000000000000BB
:106CF400000000008C6C0D0000000000000000008B
:106D0400000000000000000000000000000000007F
:106D1400000000000000000000000000000000006F
:106D2400000000000000000000000000000000005F
:086D3400000000002CE4032024
:106D3C00FFFFFFFF00000102030405060708090A14
:106D4C000B0C0D0E0F101112131415161718191A0F
:086D5C001B1C1D1E1F20280056
:046D64007856341217
:04000003D000401CCD
:00000001FF
