:02000002D0002C
:1040000000400D0004FC0E00000006000C0005013D
:084010000401E80500000000B6
:0440180004BF0E00D3
:1040200009480A49884208B505D0094A824202D0A7
:10403000121A15F040FD0748074A0021121A15F020
:1040400060FD014808BD00BF74AB0320ACFA0E0050
:10405000A4AC0320A8AC0320F4E7032070B513F050
:1040600005F8074C074BE41AA40800251E46A54294
:1040700004D056F8253098470135F8E770BD00BFE9
:1040800098FA0E004CFA0E0000F084B808B500F063
:104090001DFABDE8084012F0ABBF12F00BB812F0E9
:1040A00009B812F00FB812F00DB8000008B5034AB5
:1040B00000210C2011F020FFFEE700BFE95B0E009D
:1040C0000078B0FA80F04009704701230370704710
:1040D00038B50446006928B185680C2114F0AEF9A2
:1040E0002846F8E7204638BD10B5036804469B68AB
:1040F0009847A368013BA3602BB923682046DB687F
:10410000BDE81040184710BD10B50446006808B15E
:10411000FFF7C7FF204610BD10B5064B03600446ED
:10412000806928B14368013B43600BB9FFF7DCFFAE
:10413000204610BD1CF30E0038B50446054B44F86C
:10414000143B054612F006FE2046FFF7E5FF284621
:1041500038BD00BF0CF20E000368D86820B1838818
:104160008B4201D08068F9E7704710B50446FFF72D
:10417000D3FF20461C2114F061F9204610BD10B574
:104180000446FFF7D9FF2046302114F057F92046A6
:1041900010BD0000F0B5484C8BB04FF4FA6012F03F
:1041A00015FD237D03B30123042120462372FFF76D
:1041B000D3FF064610B1414BC36015E040491020C3
:1041C00014F040F90546002871D010273A463146D0
:1041D00015F097FC02236B8004232F80AB802369AA
:1041E000AB60364BEB602561237D1BB30E2132485B
:1041F000FFF7B2FF40B1037B042B1BD0806818B1DE
:1042000083880E2BFAD1F5E72D49102014F01AF906
:10421000054600284DD010263246002115F071FCCD
:1042200002236B800E232E80AB802369AB600423B6
:104230002B73256113F030F84FF4E13113F020F8BF
:1042400013F02AF8044612F0A4FC014604A812F068
:104250005DFC0499204612F024FB04A812F044F9F6
:1042600013F01AF8174B002211460446586811F053
:10427000A1FE811C04A812F06DFF04A9684612F08B
:104280007FFA0099204612F00CFB684612F02CF9D8
:104290000D4811F0D2FB0D4800F024FA0C4812F042
:1042A00065FD0021084811F0E5FB0BB0F0BD20755D
:1042B0009AE72075BEE700BFF0C1032080EE36000C
:1042C0000FF40E00ECE60320D0C10320E8AC03207D
:1042D000ACAC032010B50C1A134605D0014622469B
:1042E000184615F0F3FB0346181910BD9A422DE944
:1042F000F84F05460F469046994667D09C1A466887
:1043000083689B1B9C4231D8C1EB060A544513D2EB
:10431000C4EB060A324631465046FFF7DBFF6A68B7
:104320001444BAEB07026C6003D03946B01A15F09A
:10433000CDFB3A46494614E002EB0A0B49463246A9
:104340005846FFF7C7FF6A68CAEB040422446A6054
:1043500031463846FFF7BEFF6B6853446B603A4600
:1043600059464046FFF7B6FFBDE8F88F0368F61AD6
:10437000F3439C4202D9164814F076F8B4422CBF9D
:104380003419B419A64201D83CB101E04FF0FF3412
:104390002046FFF782FE064600E0264639463246B2
:1043A0002868FFF797FF494602464046FFF792FF0D
:1043B000696802463846FFF78DFF0746286808B14E
:1043C000FFF76FFE85E8C0003444AC60BDE8F88FAD
:1043D00018BF0E002DE9F043354B3649364F1868AB
:1043E00000228BB00A603A601A605A609A60884670
:1043F0001E4608B1FFF755FE304903A812F05EFDD6
:104400002F4B049A5A60059A9A60069ADA60079AC6
:104410001A61089A5A61099D9A6995421C460CD006
:1044200015B16B6801336B60A06928B14368013B2B
:1044300043600BB9FFF758FEA56103A8FFF76CFEB8
:104440001F4813F02AF9814668B312F025FF1D4971
:10445000184D1D4C12F025FA194813F002F910B34B
:10446000174813F0E9FAC8F800000028F4D0FFF765
:1044700016FE2A6820600146114812F01BFB2268D4
:104480002B680B484FF000018DF800101344716841
:10449000FFF72CFF3A682B682068134401213B602A
:1044A00013F0CCFFD8E748460BB0BDE8F08300BF5F
:1044B00024C20320E0AC0320E4AC0320ACAC032016
:1044C00008C2032030BF0E00DCAC03201FB5FFF78D
:1044D00081FF20B31A4B1B4893E80600521A00F0E4
:1044E000D5F9C8B112F0D8FE174912F0DAF9012156
:1044F000164811F0BFFA0221144811F0D5FA41F222
:10450000883012F063FB0021104811F0CDFA002131
:104510000E4811F0AFFA02E00C4811F0E5FA01A8DC
:104520000B4911F019FF019808B111F0CBFD12F001
:10453000B3FE084912F0B5F905B05DF804FB00BF01
:1045400024C20320E8AC032042BF0E00D0C10320E8
:10455000F0C1032053BF0E00F8B5234C234D11F0DA
:10456000F3FA204600F05AF82046214C21492A4609
:1045700013F056FF002240F6FB11204612F0C0FB5C
:1045800020461D4C1D492A4613F04AFF204613F0D1
:10459000EFFA20461A4C1B492A4613F041FF2046E9
:1045A00011F03CFA2A461849204613F039FF174803
:1045B000174C184900262A4606604660866013F0AC
:1045C0002FFF1027201D3A463146206015F099FA3A
:1045D000012323750223A780E3802A4620460E4943
:1045E000BDE8F84013F01CBFE8AC0320A8AC0320E2
:1045F000ACAC0320A1460D0008C2032039410D00D8
:10460000D0C1032019410D00395A0E0024C20320E5
:10461000F0C1032009410D00D1400D0010B540F25A
:10462000E1721949044615F046FA184B04F2E1729A
:1046300003F1340153F8040B42F8040B8B42F9D117
:1046400011F0DAFA1249C4F8180804F61C4011F007
:1046500092FF104904F62C4011F08DFF0E4904F62C
:104660003C4011F088FF0D4904F64C4011F083FFE7
:1046700004F5466000F0E8F904F5A050103000F0B1
:1046800059FB204610BD00BFAFBF0E0090C70E0003
:1046900091D00E0065BF0E008ABF0E006BCF0E00DA
:1046A00038B5044600F5A05004F54665103000F01A
:1046B00099FB284600F0EEFA05F28C70FFF72CFD0E
:1046C00004F64C4011F010FF04F63C4011F00CFFD2
:1046D00004F62C4011F008FF04F61C4011F004FF12
:1046E000204638BD10B5044611F086FAD4F81838C3
:1046F000C01A074B984209D911F0BCFC10B1002038
:1047000011F0C0FC11F078FAC4F8180810BD00BF11
:10471000005C26052DE9F0410E468CB00446574951
:10472000304612F01BF80746002840F0A38004F53D
:10473000A0551035524908A811F01DFF08A92846B8
:1047400000F07CFB08A811F0CFFE4E4908A811F03C
:1047500012FF08A9284600F074FB08A811F0C4FE57
:10476000494908A811F007FF08A9284600F0BBFB3B
:1047700008A811F0B9FE04F5A651083108A811F0F7
:1047800039FF08A9284600F0ABFB08A811F0ACFEE1
:10479000314608A811F02EFF04F62C4104A811F0B0
:1047A00029FF04F64C41684611F024FF6B4604AA29
:1047B00008A9284600F048FB684611F095FE04A8B9
:1047C00011F092FE04F5466608A811F08DFE40F245
:1047D000E1722146304600F0E3F912F05DFD8046BB
:1047E000284600F083FB0146404612F05AF812F0CA
:1047F00053FD8046284600F009FC0146404612F071
:1048000050F840F2BB1204F2E171304600F07BFA3E
:10481000284600F0FBFB04F61C040146204611F07C
:1048200061FC21460246304600F0EEF94FF480620A
:104830003946204615F065F940F2FF3221463046F0
:1048400000F047FA10F5D24F03D1642012F0BEF900
:10485000F2E7002805DD12F01FFD214612F021F8D5
:10486000EAE728460022214600F05EFC284600F0D8
:1048700049FB00E000200CB0BDE8F08191D00E00B3
:10488000C4C70E0090C70E00D6C70E002DE9FF4723
:10489000054600F61C068846914600214FF48062CA
:1048A000304605F5A05415F02CF910344B496846F4
:1048B00011F061FE6946204600F0C0FA684611F02A
:1048C00013FE4749684611F056FE6946204600F03F
:1048D000B8FA684611F008FE4249684611F04BFEEE
:1048E0006946204600F0FFFA684611F0FDFD05F527
:1048F000A6511831684611F07DFE6946204600F049
:10490000EFFA684611F0F0FD4146204600F0D6FA75
:1049100005F546674946204600F0D2FA40F2E172BA
:104920002946384600F03CF912F0B6FC8246204693
:1049300000F060FB0146504611F0B3FF40F2BB129D
:1049400005F2E171384600F0DEF9204600F052FB36
:104950000146304611F0C6FB31460246384600F0AB
:1049600053F94A464146384600F04EF94FF480620A
:104970000021304615F0C5F840F2FF323146384686
:1049800000F0A7F910F5D24F03D1642012F01EF900
:10499000F2E7002805DD12F07FFC314611F081FFBF
:1049A000EAE701223146204600F0BEFB204600F037
:1049B0009FFAC8280CD12146684600F09CFA694647
:1049C0002846FFF7A7FE0446684611F08DFD00E07B
:1049D0000446204604B0BDE8F08700BFF7C70E00CC
:1049E00090C70E00D6C70E0011F0AEB8704770B574
:1049F0000E4615460C462B1B3344032B04D911F0ED
:104A0000EBF844F8040BF6E7AC0806EB84043544F5
:104A1000AC4204D011F0E0F804F8010BF8E70020F4
:104A200070BD000000B5ADF2044D0B46054A40F2E2
:104A3000FF31684608F06AFF00200DF2044D5DF872
:104A400004FB00BF91D00E0010B5044600F28C703C
:104A500013F08EF8002384F8A837204610BD00001C
:104A60002DE9F04F054685B0934600F274440022CC
:104A700080F8A82705F56E762046994602910392A4
:104A800005F2F44A0BF0BFFD30460BF097FA05F53E
:104A9000C567504609F008FD05F25C78384609F014
:104AA00003FD40460AF028F9039A364920460BF0E8
:104AB00096FA5A46029950460AF0ACF800285DDB97
:104AC000B9F1000F02D10F9B5BB90CE00E9B002BDC
:104AD000F9D01A46494638460AF09CF80028F2DA1E
:104AE0004CE0109B4BB900231A46194620460BF0A8
:104AF0008FFD8346002841D109E000230093109ADE
:104B00000F99404607F008FD0028ECD036E003225C
:104B1000114620460BF0B2FA5A461B4920460BF0CC
:104B200058FA012120460BF04DFA5A461749204603
:104B30000BF052FA5A46514620460BF065FAB9F18D
:104B4000000F06D00F9B23B14246394620460BF09A
:104B500058FA214630460BF0C7FC044668B90C4BA6
:104B60000C4A05F2647130460BF042FA00940A4B8D
:104B70000A4A294630460BF035FA204605B0BDE812
:104B8000F08F00BFED490D00254A0D00EF490D00E3
:104B90006BB20D005DB20D00594C0D00214C0D00A3
:104BA0001FB50023029301930093FFF759FF05B04F
:104BB0005DF804FB70B5054600F56E76D5F8BC339C
:104BC000102B05D0304610F069F804460028F5D0C7
:104BD00014F5D24FF2D014F5D14FEFD005F2F440D6
:104BE00009F067FC05F5C56009F063FC05F25C702F
:104BF0000AF086F8D5F8BC33102B03BF012385F8E3
:104C0000A8370020204670BD90F8A8371BB100F5EA
:104C10006E700BF029BB4FF0FF30704710F094BF5F
:104C200070B500F28C7528460C46164612F019FD38
:104C300058B121463246284612F0FDFC044638B1F0
:104C4000284612F00DFD204670BD4FF0FF3070BDBC
:104C5000004870BD8097FFFF70B5044604F28C7465
:104C60000A200D46164611F0B1FF204612F0F9FC5D
:104C700058B1204612F0E0FE28B1324629462046BF
:104C800012F09DFD18B9024870BD4FF0FF3070BDA5
:104C90000097FFFF002310B5044680F8A83700F204
:104CA000F44009F006FC04F5C56009F002FC04F2CA
:104CB0005C700AF025F804F274400BF0F3FC04F584
:104CC0006E700BF051FC04F28C70BDE8104012F0D5
:104CD0009BBE10B590F8A83704468BB100F56E70F6
:104CE0000BF03AFA00280DDA10F5EE4F06D010F569
:104CF000D24F07D02046FFF7CDFF01E0002010BDC6
:104D00004FF0FF3010BD38B50446002300F28C7020
:104D10000D4612F07DFD50B1294604F56E700BF082
:104D200077F930B92046BDE83840FFF743BF4FF070
:104D3000FF3038BD234B70B50360234B4360234BDA
:104D40008360234B234DC360234B0361002609235B
:104D500004464361866129461C3011F00CFC29464B
:104D600004F12C0011F007FC294604F13C0011F07D
:104D700002FC294604F1500011F0FDFB294604F124
:104D8000600011F0F8FB294604F1700011F0F3FB0C
:104D900004F18C03C4F884302946C4F8886084F890
:104DA0008C6004F19C0011F0E6FB0C4904F1B800A2
:104DB00011F0E1FB0A4904F1C80011F0DCFB2046C8
:104DC00070BD00BF9FC80E00A3C80E00A8C80E008B
:104DD000ACC80E0091D00E00B3C80E00B9C80E00CA
:104DE000CAC80E0038B50446C83011F07DFB04F186
:104DF000B80011F079FB04F19C0011F075FB04F18F
:104E0000840013F075FB04F1700011F06DFB04F1E8
:104E1000600011F069FB04F1500011F065FB04F132
:104E20003C0011F061FB04F11C0504F12C0011F0B1
:104E30005BFB284611F058FB204638BD1C3011F0B2
:104E4000CABB2C3011F0C7BBF0B585B004460F4685
:104E50006846154916461D4611F08DFB13496846F4
:104E600011F038FC3946684611F026FC10496846B6
:104E700011F030FC3146684611F01EFC0D496846C1
:104E800011F028FC2946684611F016FC0A496846CC
:104E900011F020FC694604F13C0011F09CFB6846CF
:104EA00011F022FB05B0F0BDE3C80E00E5C80E000E
:104EB000F0C80E00FFC80E0013C90E00C164704791
:104EC0001FB50A220446684611F0CBFB694604F17F
:104ED000700011F09AFB684611F006FB04B010BD9B
:104EE000503011F078BB603011F075BBC06A70476C
:104EF000D0F88000704710B59C31044611F07AFB61
:104F0000204610BD90F8AC007047000070B50D460B
:104F100004462F4911F02FFB6968204611F0DAFB97
:104F20002C49204611F0D6FB05F11C01204611F05A
:104F3000C3FB2949204611F0CDFB2849204611F03A
:104F4000C9FB2749204611F0C5FB05F16001204649
:104F500011F0B2FB2149204611F0BCFB05F15006CF
:104F60002049204611F0B6FB3146204611F0A4FB43
:104F70001A49204611F0AEFB1B49204611F0AAFB4E
:104F800005F12C01204611F097FB1449204611F041
:104F9000A1FB1649204611F09DFB05F1700120464A
:104FA00011F08AFB1249204611F094FB05F1B8017B
:104FB000304611F0C6FB40B105F13C01204611F02E
:104FC0007BFB0B49204611F085FB204670BD00BFDE
:104FD00091D00E0014F60E001AC90E0017C90E006B
:104FE00024C90E003FC90E004DC90E0053C90E0062
:104FF00015C90E001FB501466846FFF787FF6846D2
:10500000009C11F071FA204604B010BD1FB50A22B1
:105010000446416C684611F011FB694604F17000CA
:1050200011F0F3FA684611F05FFA21466846FFF77F
:105030006DFF6846009C11F057FA204604B010BD81
:1050400038B5046805467CB16368013B63605BB9B1
:10505000236820469B689847A368013BA3601BB95F
:1050600023682046DB689847284638BD0B680360F4
:1050700013B15A6801325A60704773B502AC0E69B9
:1050800051F8043B44F8083D054601A8FFF7EEFF40
:1050900022463146284613F09CF801A8FFF7D0FFBE
:1050A000284602B070BD73B502AC8E6851F8043B5F
:1050B00044F8083D054601A8FFF7D8FF22463146CF
:1050C000284613F051F801A8FFF7BAFF284602B0AE
:1050D00070BD73B502ACCE6851F8043B44F8083D8E
:1050E000054601A8FFF7C2FF22463146284613F0C5
:1050F00013F801A8FFF7A4FF284602B070BD13B54E
:10510000044691E8050000234B600B602368206093
:1051100002A80093636840F8043D6260FFF790FFC7
:10512000204602B010BD00002DE9F0470023914653
:1051300000F19C070022A0B0C0E92C2306460D46D2
:1051400038469C4911F069FA4FF0000810AB86F818
:10515000AC800E93002D00F02981284614F022FD2A
:1051600020AC0F2805EB000A44F8180D07D9424679
:1051700021460EA813F0A0F91A9B0E901093294611
:1051800052460E9813F0D3F91A9B0E9A0F930025EE
:10519000D55472690EA9D31C204613F0B5FA1A989B
:1051A00014F064FBC6F88000204613F0A1F92A46EB
:1051B00081490EA813F058FA4FF0FF33021D0EA9D3
:1051C000204613F0A1FA214606F1840013F0B4F949
:1051D000204613F08DF9D6F88480404614F0E2FCA6
:1051E0004146024603A813F019F809950A950B9554
:1051F0000C950D9514951595169517951895199567
:10520000B9F1000F3ED0059D039B069304A907A8A2
:10521000FFF72CFF06AA2946204612F0C0FF07A878
:10522000FFF70EFF214609A8FFF769FF1C9B0B93B0
:105230001D9B0C931BA81E9B0D93FFF701FF09A854
:1052400012F059FF0C9D099B1A930AA91BA8FFF79E
:105250000DFF2246294606A812F0BBFF1BA8FFF748
:10526000EFFE06A92046FFF71EFF214614A8FFF710
:1052700046FF1C9B16931D9B17931E9B18931F9B09
:1052800019933BE003A92046FFF70DFF214614A820
:10529000FFF735FF1C9B16931D9B17931E9B1893BE
:1052A0001F9B19931BA8FFF7CBFE14A812F00FFF4A
:1052B000002854D014A92046FFF70BFF3F491C9843
:1052C00014F05EFC05461BA8FFF7BAFE14A9D5B979
:1052D00006A8FFF7D2FE089D069B019307A902A826
:1052E000FFF7C4FE294601AA204612F015FF02A8C6
:1052F000FFF7A6FE1C99384611F08FF91BA8FFF79F
:105300009FFE07A8CFE72046FFF7E3FE2C491C9835
:1053100014F036FC05461BA8FFF792FE14A92046A0
:105320003DB9FFF7AAFE204612F086FD86F8AC00D4
:10533000B8E7FFF7CEFE23491C9814F021FC054680
:105340001BA8FFF77DFE002DAFD114A92046FFF763
:1053500094FE204612F0ACFD86ED2C0BA2E711F076
:105360009BFFD6F89C1011F09CFA11F095FF0A22D1
:1053700096F8AC10044611F09EFA204611F085FA1A
:1053800011F08AFF022196ED2C0B11F073FB15A88A
:10539000FFF756FE0AA8FFF753FE04A8FFF750FEDA
:1053A0000EA813F0A5F820B0BDE8F087064813F06A
:1053B00058F800BF91D00E0015C90E0063C90E0049
:1053C0006AC90E0076C90E0081C90E0010F0BCBB80
:1053D0006C22002114F095BB10B16C2105F00EBFBA
:1053E000704708B56C2214F066FB08BD002303600B
:1053F0004360A1B9184B8360184BC360184B03611D
:10540000184B4361184B8361184BC361184B0362FF
:1054100003F17453A3F52303A3F6924318E0154B4D
:105420008360154BC36003F1794303F5740303F5FF
:1054300001630361114B4361114B836103F1D1435C
:1054400003F5C01303F51E63C3610E4B03620E4BDD
:10545000436281660020704767E6096A85AE67BBD4
:1054600072F36E3C3AF54FA57F520E518C68059B46
:10547000ABD9831FD89E05C107D57C3639590EF7A5
:10548000310BC0FFA78FF964A44FFABE2DE9F04F8E
:10549000CFB0031D05931A46002306AC52F8040F43
:1054A00044F823000133082BF7D1084600220EAC44
:1054B00011F82250C37843EA0563457843EA05436F
:1054C000857843EA052344F822300132102A00F19E
:1054D0000400EDD10D9B9F4C00930C9E099B089FEF
:1054E000DDF82CB0DDF81CE0DDF82880DDF8189040
:1054F0000FAD04F1400A54F8040C55F8041C4FEAAF
:10550000F82286EA0B0C82EAB812014482EA786239
:105510000CEA080C8CEA060C0A44009962444FEA33
:1055200079304EEA090C0A440CEA070C0EEA09012C
:1055300080EAB9004CEA010180EAB95008441344FA
:105540002968024420688BEA080C01440CEA030C29
:105550004FEAF3208CEA0B0C0E4480EAB31006EB02
:105560000C0180EA73600E1806EB070C42EA090092
:105570004FEA723702EA090187EAB20700EA0E0031
:1055800087EAB2570843384430446968666883EA5A
:1055900008070E4407EA0C074FEAFC2187EA0807D0
:1055A000B34481EABC110BEB070681EA7C6106EB90
:1055B000010B4FEA703742EA000102EA000687EA6F
:1055C000B00701EA090187EAB05731433944AE68B0
:1055D000A7685944DE443E4483EA0C0BB0440BEA0E
:1055E0000E0B4FEAFE268BEA030B86EABE16D84462
:1055F00086EA7E6646444FEA713B40EA010800EACB
:1056000001078BEAB10B08EA02088BEAB15B48EAB2
:105610000708D844B044B144E768EE688CEA0E0B42
:1056200037440BEA090B8BEA0C0B3B4403EB0B07EB
:105630004FEAF92383EAB91383EA7963FE189319D1
:1056400000934FEA783741EA080301EA080287EA43
:10565000B807034087EAB85713433B4433442A69E9
:10566000266932449444009A8EEA090616404FEAAD
:10567000F22786EA0E0687EAB217B44487EA726711
:105680000CEB07024FEA733B48EA030786180F400A
:1056900008EA03008BEAB30B8BEAB35B07435F4472
:1056A000174460696A691044009A89EA020C0CEA9E
:1056B000060C86448CEA090C0EEB0C004FEAF62E21
:1056C0008EEAB61E8EEA766E00EB0E024FEA773057
:1056D00043EA070E01EB020B0EEA080E03EA07018C
:1056E00080EAB70080EAB7504EEA010E864496443D
:1056F000A169AA691144009A82EA060000EA0B0037
:105700005040894409EB00014FEAFB2989EABB19A3
:1057100089EA7B6901EB09024FEA7E3047EA0E090C
:1057200080EABE0009EA030907EA0E0180EABE50DA
:1057300049EA010920348144A2459044914405F18D
:1057400020057FF4D8AE0022DFF80CA004920EAC46
:1057500004E000BFB0C90E00ACC90E00A26B6068C7
:10576000616A4FEAF24585EA724585EA92250DF1B4
:10577000380C049A5CF822204FEAB04C0A448CEAB8
:10578000F01C4FEAF8218CEAD00C81EAB8111544DC
:1057900005EB0C0281EA786586EA0B0101EA080153
:1057A000039281EA0602A918DAF840200A44039914
:1057B00021640A4400990A44D3184EEA09054FEAC5
:1057C000793100933D400EEA090381EAB90181EA8B
:1057D000B9512B430B441A44E36BA5684FEAF341DC
:1057E00081EA734181EA9321A36A034419444FEA91
:1057F000B54383EAF51383EAD50C01EB0C03DAF821
:105800004400009963648BEA080C30440CEA010CF4
:105810008CEA0B0CC1188C4400994FEAF12080EA05
:10582000B11080EA716000EB0C01C81901904FEAD9
:10583000723C42EA090002EA09078CEAB20C00EA6B
:105840000E008CEAB25C3843604408440399E76870
:105850004FEAF14686EA714686EA9126E16A4FEA06
:10586000B74C29440E448CEAF71C00998CEAD70CFB
:10587000664481EA080C0199A6640CEA010CDAF886
:10588000481059448D198CEA080C0199AC44019DCB
:105890004FEAF12181EAB51181EA756101EB0C054E
:1058A00042EA00014FEA703C05EB0E0B8CEAB00CAB
:1058B00002EA000E01EA09018CEAB05C41EA0E013D
:1058C000614429444FEAF34585EA734585EA932309
:1058D000256BD4F810C02F443B444FEABC4787EAFD
:1058E000FC1787EADC0E03EB0E079DE828005D40FD
:1058F00005EA0B055D40DAF84C30E7649844B8449B
:1059000045444FEAFB2888EABB1888EA7B6808EB25
:10591000050303EB090540EA01084FEA713E0295D1
:105920008EEAB10E00EA010508EA02088EEAB15ECD
:1059300048EA0508F04498444FEAF64E636B6569FF
:105940008EEA764E8EEA96260CEB030E019B764489
:1059500083EA0B0C4FEAB54E029B8EEAF51E8EEAE7
:10596000D5090CEA030C019B06EB090EDAF850602E
:10597000D4F81890C4F850E08CEA030C009B7644ED
:105980001E44029BB444029E4FEAF32383EAB613FB
:1059900083EA766303EB0C069319009341EA08034C
:1059A00001EA0802034013434FEAF74282EA7742D2
:1059B0004FEA783C82EA9727A26B8CEAB80C8CEA13
:1059C000B85C1544029A634433442F448BEA0206C0
:1059D0004FEAB945009A85EAF91585EAD9051640D6
:1059E000DAF854203D44019F65652A443A4486EA2A
:1059F0000B061644009A4FEAF22787EAB21787EAA5
:105A00007267BA1986184FEA733080EAB30048EA21
:105A1000030780EAB35C0F4008EA030007436744CA
:105A200017444FEAFE4282EA7E4282EA9E2EE26BF1
:105A3000E06991440EEB09024FEAB04989EAF01996
:105A400089EAD0099144029AC4F858909646009A7F
:105A50008EEA020CDAF858200CEA060C8CEA0E0CDE
:105A60004A444FEAF62E5A448EEAB61E62448EEA43
:105A7000766E72444FEA773C43EA070E01EB020B65
:105A80000EEA080E03EA07018CEAB70C8CEAB75C51
:105A90004EEA010EE64496444FEAF542216A82EA54
:105AA000754282EA9525039A4FEAB14C10448CEA7C
:105AB000F11CDAF85C2005448CEAD1010D4402990E
:105AC0002A4402EB0109009AE56582EA060101EA2F
:105AD0000B0151404FEAFB2282EABB12894482EA61
:105AE0007B624A444FEA7E3047EA0E0980EABE00F4
:105AF00009EA030907EA0E0180EABE5049EA0109F2
:105B0000814490449144049A0832302A04920AF164
:105B1000200A04F120047FF421AE009A09930D922B
:105B2000CDF82880CDF82CB00C96CDF81890CDF893
:105B30001CE008970023059A52F8041F059206AA54
:105B400052F8232001330A440599082B0A60F2D148
:105B500000204FB0BDE8F08F2DE9F04104460E461D
:105B6000154682B3036803F03F0013449A42236052
:105B700082BF63680133636080B1C0F14007BA42FD
:105B80001BD304F128083A46404413F094FF4146E1
:105B90002046FFF77BFCB8B93E44ED1B2F46E91BBE
:105BA0003F2F314405D92046FFF770FC60B9403FD4
:105BB000F5E747B13D460E46002028342A463146D7
:105BC000204413F078FF0020BDE8F08170B5036831
:105BD000044603F03F03581C2344802238280D4616
:105BE00083F8282004F1280604D8C0F138020021E7
:105BF00030440EE0C0F140020021304413F081FF38
:105C000031462046FFF742FC002872D10146382277
:105C1000304613F076FF236861685A0F42EAC102EA
:105C2000110EDB0084F86010110C84F8611084F808
:105C30006320110A1A0E84F864201A0C84F8652077
:105C40001A0A84F8621084F8662084F867303146B6
:105C50002046FFF71BFC00284BD1E37A2B706389A9
:105C60006B70A3681B0AAB70A368EB70E37B2B71AE
:105C7000E3896B71E3681B0AAB71E368EB71E37C4A
:105C80002B72638A6B7223691B0AAB722369EB72F6
:105C9000E37D2B73E38A6B7363691B0AAB736369E0
:105CA000EB73E37E2B74638B6B74A3691B0AAB7479
:105CB000A369EB74E37F2B75E38B6B75E3691B0AB8
:105CC000AB75E369EB7594F823302B76638C6B76B8
:105CD000236A1B0AAB76236AEB76A36E4BB994F862
:105CE00027302B77E38C6B77636A1B0AAB77636A89
:105CF000EB7770BDF0B59DB01C46064601A80F4677
:105D00001546FFF765FB214601A8FFF76FFB044628
:105D100058B93A46314601A8FFF71EFF044620B99C
:105D2000294601A8FFF752FF044601A8FFF754FBDC
:105D300020461DB0F0BD03687F2AA3EB010107D800
:105D4000002969DD591E016003F8012C012070470C
:105D5000FF2A0DD801295FDD591E016003F8012CCF
:105D600003685A1E0260812203F8012C022070474A
:105D7000B2F5803F13D202294EDD591E016003F8AF
:105D8000012C0368120A591E016003F8012C0368F4
:105D90005A1E0260822203F8012C03207047B2F1E0
:105DA000807F19D2032937DD591E016003F8012CC9
:105DB0000368591E0160110A03F8011C0368120CE4
:105DC000591E016003F8012C03685A1E02608322E9
:105DD00003F8012C0420704704291DDD591E0160C1
:105DE00003F8012C0368591E0160110A03F8011C15
:105DF0000368591E0160110C03F8011C0368120EA0
:105E0000591E016003F8012C03685A1E02608422A7
:105E100003F8012C052070476FF06B007047036892
:105E2000591A0029C1BF03F1FF310160012003F8B5
:105E3000012CD8BF6FF06B007047F8B505461046CF
:105E40000E4617460BF0B2F82968B142044602D25A
:105E50006FF06B00F8BD8B1B9842F9D8091A024607
:105E6000296038460BF0DFF8F8B93B68012B0CD1FC
:105E70002B6893F90020002A07DA9A1B002AE7DD35
:105E80005A1E2A60013403F8010C22463146284686
:105E9000FFF751FF002808DB044402223146284660
:105EA000FFF7BDFF0028A8BF0019F8BD2DE9FF418D
:105EB0000A9E1D46174633462A460446884603F086
:105EC00025FF48B902908DE8600004F1280342469E
:105ED0003946204603F06CFD04B0BDE8F0810000B7
:105EE000F0B58FB0044605A817461E460D4602F0D1
:105EF00099FF00230293159B0193149B0093204666
:105F00003B46324605A903F053FD044650B905A8A7
:105F100003F092FB28B905A928460AF080FF044641
:105F200000E0034C05A802F0BAFF20460FB0F0BD18
:105F300080B0FFFF10B5044602F082FF04F17C0040
:105F40000AF0EDFE04F1880002F06CFF04F1AC00F1
:105F500002F068FF04F1D0000AF0E1FE04F1E00075
:105F600002F060FF04F5827002F05CFF04F59470AB
:105F70000AF0D5FE0023C4F8DC3010BD10B504468D
:105F8000F8B1E03002F08BFF04F5827002F087FF79
:105F900004F594700AF0C9FE204602F090FF04F167
:105FA0007C000AF0C2FE04F1880002F078FF04F1E0
:105FB000AC0002F074FF04F1D000BDE810400AF01C
:105FC000B4BE10BD73B516460A680446B21A0DF188
:105FD00007000D4603F0F0FB78B99DF80710204646
:105FE00007F06AFB08B1064807E02B682A46F31A57
:105FF00004F1AC01204603F0AFFB02B070BD00BF5E
:1060000080B1FFFF2DE9F7430F46816DD0F8DC60CA
:106010009046994604460A9B0B9AA9B100F188055F
:10602000009200F17C012A46FFF740FF68B93B4629
:10603000324629462046CDF82C90CDF8288003B072
:10604000BDE8F04303F0A0BB014803B0BDE8F08316
:1060500080B0FFFF2DE9F341164698460F46089B96
:10606000099A044608B9144822E0816D0029FAD043
:1060700000F1D0050192009300F1AC0200F17C0325
:106080002946FFF72DFF98B928460AF08FFF804573
:10609000E9D3A26D12F0070318BF012303EBD2026C
:1060A000314628463A6002B0BDE8F0410AF0BBBF75
:1060B00002B0BDE8F08100BF80B0FFFF054B53F890
:1060C000042C22B1083313F8101C8142F7D110467A
:1060D000704700BF80DA0E0030B5084C63685BB1D2
:1060E0009D692D78854205D15D688D4202D15D782C
:1060F000954201D00834F1E7184630BD78DA0E0039
:106100003822002113F0FDBC10B5044658B1406B95
:1061100018B123689B695B69984720463821BDE820
:10612000104005F06BB810BD38B505460C4659B1A6
:106130003822002113F0E5FCA3691B6998476863C6
:1061400020B12C60002038BD014838BD014838BD61
:10615000009FFFFF809EFFFF30B40468B4B1256943
:10616000AD0702D46568954210D1012B42600372DD
:1061700003D06578033D022D02D8A3699B6802E035
:1061800023B9A369DB68406B30BC1847014830BCB9
:10619000704700BF009FFFFF38B503680546A3B1F5
:1061A000102A10D81869C00703D4DC68A24201D2B3
:1061B0000BE014462CB1224605F1200013F07BFCC5
:1061C0002C63002038BD024838BD024838BD00BFEE
:1061D000809FFFFF009FFFFF03681BB10023C36187
:1061E0001846704700487047009FFFFF70B4144680
:1061F0000268039E0AB91B4831E00022326005683C
:106200000DB16A6900E02A466D78012D0CD19442E7
:1062100020D134600268926954680A46A44690F915
:106220000810406B70BC6047062D06D134600A46EA
:10623000406B214670BC06F0A2BC6AB199420DD1F8
:10624000C369002BD7D1B4FBF2F102FB1144002C3F
:10625000D1D103E0044802E0044800E0044870BCE7
:10626000704700BF009FFFFF809DFFFF809CFFFFE6
:10627000809FFFFF10B501680346A9B100201060A0
:1062800019684A78D41E042C11D9092A0FD009782C
:10629000483901290BD9012A08D1DB698342A0F5CD
:1062A000C54008BF002010BD014810BD014810BD09
:1062B000009FFFFF809FFFFFF0B585B005461F469A
:1062C0000B9E0C9CFFF768FFB8B92B68A3B1E8617F
:1062D000009433460A9A39462846FFF787FF60B98B
:1062E000216803AA31442846FFF7C4FF28B9226871
:1062F000039B1344236000E0014805B0F0BD00BFDC
:10630000009FFFFF2DE9F0430768079D7F78089EF7
:10631000DDF828E0DDF82C90DDF83080DDF834C0C1
:10632000062F1446099A12D1C9F800200893CDF817
:106330003480CDF830C0CDF82CE00A96099507944A
:106340000B46406B0121BDE8F04306F004BD014857
:10635000BDE8F083809FFFFF30B505686D7887B09A
:10636000062D0C460C9917D10E9D29600D9D0595A3
:106370000B9D0495109D03950F9D02950A9D8DE838
:1063800028001346406B224606F00AFD044B10F12C
:10639000120F08BF184600E0024807B030BD00BF2A
:1063A000009DFFFF809FFFFF30B50368CD1A002DD1
:1063B00002DC6FF05F0030BD1C7814F0800F04D158
:1063C0005C1C04601B78136036E004F07F04013C21
:1063D000032C38D8DFE804F002091320012DE8D09F
:1063E0005B7813600368023325E0022DE1DD5C7801
:1063F0009B7843EA04231360036803331BE0032DF7
:10640000D7DD9C785D78DB78240244EA05441C43A0
:106410001460036804330EE0042DCADD9C785D78B7
:10642000240444EA05651C79DB782C4344EA032301
:1064300013600368053303600368C91A13688B424D
:10644000B7D8002030BD6FF0630030BD70B4046871
:106450000E1B002E07DD26789E4207D10134046012
:1064600070BCFFF7A1BF6FF05F0001E06FF061004B
:1064700070BC704737B50123154601AA0446FFF7E3
:10648000E5FF70B9019B012B09D123681B7800330C
:1064900018BF01232B6023680133236001E06FF0F4
:1064A000630003B030BD37B50223154601AA044688
:1064B000FFF7CCFFC8B9019B013B032B13D823681E
:1064C00093F90030002B0EDB2860019B5A1E0192CD
:1064D0005BB123682A681B7843EA02232B60236898
:1064E00001332360F1E76FF0630003B030BD37B5CF
:1064F0000223154601AA0446FFF7A8FF40B9019AF6
:10650000216828460AF058FD2268019B1344236045
:1065100003B030BD70B5032304460E461546FFF7A1
:1065200095FFD8B91368A3B1013B136023681B78AA
:106530001371072B10D823680133236093602268FE
:106540002B6813449E4223600CBF00206FF065004F
:1065500070BD6FF05F0070BD6FF0630070BD38B547
:10656000032304461546FFF771FF58B913685A1EF6
:10657000012B2A6004D923685A1C22601B780BB1B6
:106580006FF0670038BD2DE9F7431546984601AA1C
:10659000302304460F46FFF759FF064678BB2268B2
:1065A000019B13449F421DD06FF0650627E02368CE
:1065B0009F421AD91B782B604A46434639462046EB
:1065C000FFF744FFB8B92368AB6022686B681344D7
:1065D0009F422360EBD91021012013F04BF9E860B2
:1065E00058B1054605F10409E1E70023EB60236893
:1065F0009F4204D0D8E7064601E06FF069063046B6
:1066000003B0BDE8F0832DE9F34190461F4601AA8F
:10661000302304460E46FFF719FF054600283BD1FC
:106620002368F61A002E35DD42461B7842F8043BFB
:10663000019B26681E44314606232046FFF706FFCD
:10664000054648BB2368C8F808302268D8F80430EB
:10665000D1188E42216004D10C21384604F0CEFDC1
:106660001AE0D35C3A46314642F8043B23680133D2
:1066700023602046FFF798FE054668B92368BB6093
:1066800022687B6813449E4223600CBF05466FF06E
:10669000650501E06FF05F05284602B0BDE8F081B6
:1066A0001FB5002301930293039301ABFFF7ABFFE8
:1066B00060B9019B052B00D033B9029B002B0CBFA6
:1066C00000206FF0670001E06FF0670005B05DF833
:1066D00004FB0000002330B513600A2589B103686C
:1066E0001B78303B092B0ED813686B43136003688B
:1066F0005C1C04601B781468303B23441360013930
:10670000ECE7084630BD014830BD00BF00DCFFFFAC
:1067100038B503681546CA1A002A044617DD1A78E8
:1067200002F07F02022A14D15A1C02602A461B780A
:1067300042F8043BFFF738FE10B1A0F50A5038BD0F
:106740002368AB6022686B681344236038BD02483D
:1067500038BD024838BD00BF20DDFFFF1EDDFFFF52
:1067600008B5FFF79DFF08B1A0F50C5008BD08B5AE
:10677000FFF749FF08B1A0F50C5008BD2DE9F04323
:106780001D4604230B70137014232B600368302BF9
:106790008FB08846164640F0CA80836844680193EB
:1067A0001C44A34200F0C180A02302AA214601A8F4
:1067B000FFF74CFEA8B9029B019F1F4405AA39466A
:1067C00001A8FFF7CDFF002840F0B980414605A899
:1067D00003F006FC002840F0A580019B9F4204D0F6
:1067E0009EE010F1620F40F09D80019B9C4200F002
:1067F0009C80A12302AA214601A8FFF727FE0028BA
:1068000050D1029B019F1F4405AA08AB394601A83D
:10681000FFF7ADFF002840F09280069A092A40F069
:1068200088800799474813F037F9002840F08180A5
:10683000089B302B7BD10A9B099A039303EB020838
:10684000434526D20DF138091B7849F80C3D0CAAB6
:106850000623414603A8FFF7F9FD00286BD1039AF0
:106860000C9B0D92134431464846039303F0B8FB4A
:10687000002860D1039B984510D0052304AA414607
:1068800003A8FFF7E3FD002855D1049B002B52D14C
:1068900001E02D4853E0039B984541D1019B9F4265
:1068A00003D03DE010F1620F3CD1019B9C423CD0F3
:1068B000A22302AA214601A8FFF7C8FD60B9029BE6
:1068C000019E1E442A46314601A8FFF7ECFD48BB55
:1068D000019B9E4203D023E010F1620F22D1019B65
:1068E0009C4222D0A32302AA214601A8FFF7AEFDB5
:1068F00080B9029B019D1D440BAA294601A8FFF700
:10690000D2FD78B9019B9D420AD10B9B012B04D08B
:106910000E4814E010F1620F04D1019B9C4204D098
:106920000B480CE0A0F50C5009E0002007E00948F6
:1069300005E0094803E0A0F50C500028AED00FB0E8
:10694000BDE8F083ACCA0E00A0DCFFFF00DDFFFF56
:106950009ADCFFFF9EDCFFFF52DFFFFF2DE9F743CC
:10696000DFF8F48004460F46914631236A463946E3
:106970002046FFF76BFD10B1A0F50E5061E02668D0
:10698000009B4D461E44302301AA31462046FFF7A6
:106990005DFD68BB019A2368002A03EB020901DC54
:1069A00029484EE02A461B7842F8043B4946062314
:1069B0002046FFF74BFDD8B92368AB6020686968B3
:1069C0004318C3EB0902002A2360E9DD425C1E2A5A
:1069D0001CD828FA02F2D20718D501332360435C91
:1069E000EB6005F1100249462046FFF7DDFC18B1C7
:1069F000A0F50E5070B124E023686B6122682B690A
:106A000013449945236003D1A86103E00F4818E0BF
:106A10000F4816E023689E4208D0012028772021E5
:106A200012F028FFA86158B10546ACE7B74208D07C
:106A30002021012012F01EFF8146A861002894D178
:106A4000044803B0BDE8F08320DCFFFF1EDCFFFF3D
:106A50001ADCFFFF80D7FFFF08105850F7B5036816
:106A60001446CA1A002A054640F3A0801A78172A4D
:106A700004D0182A40F09C80042700E0022701334C
:106A80002B6001AA2846FFF78FFC10B1A0F510502B
:106A900091E0019E07F108039E42C0F08B802246E0
:106AA00039462846FFF716FE002840F08480022F62
:106AB00008D12368312BDCBF64332360236803F2E1
:106AC0006C732360221D02212846FFF703FE002875
:106AD00071D104F1080202212846FFF7FBFD0028CE
:106AE00069D104F10C0202212846FFF7F3FD0028CA
:106AF00061D104F1100202212846FFF7EBFD0028C6
:106B000059D1F61BA6F10803012B53D904F1140245
:106B100002212846FFF7DEFD00284CD1A6F10A032A
:106B2000012B07D12B681A785A2A43D101332B60E5
:106B3000A6F10B03002B3DD1236842F20F72934262
:106B400038D8E268172A35D822693B2A32D86269D8
:106B50003B2A2FD861680C292CD801228A4041F2A7
:106B6000AA511140B9B912F4256F16D1510721D598
:106B70009A0705D1642193FBF1F201FB123272B93D
:106B80004FF4C87193FBF1F201FB1233002B0CBFE1
:106B90001D231C2304E01F2302E01E2300E01D230D
:106BA000A268002A06DD9A4205DD03E0034802E000
:106BB000034800E0034803B0F0BD00BFA0DBFFFFC7
:106BC0009EDBFFFF00DCFFFF73B503681546CA1AA2
:106BD000002A044610DD01AA1E78FFF7C0FC10B1A0
:106BE000A0F5125009E0019B6B602E602268AA603C
:106BF00022681344236000E0014802B070BD00BF6A
:106C000020DBFFFF2DE9F041069F1D463B680E4645
:106C1000904643BB2A46414603F084F910B1A0F5E3
:106C2000185425E02B78062B13D10821012012F0EF
:106C300021FE0546C8B1031D024641463046FFF716
:106C40009DFD044618B128460FF03CFA10E03D6067
:106C50000EE03368052B00D04BB97368064C002B4F
:106C600008BF002404E0054C02E0054C00E0024CA3
:106C70002046BDE8F08100BF00DDFFFF00D8FFFF28
:106C800080D7FFFF73B543F0A004164623460432B5
:106C90000546FFF7DBFB60B934602B68B3602868FA
:106CA0007368C41801AA302321462846FFF7CEFB9B
:106CB00010B1A0F5145007E0019B28681844034B5D
:106CC000844214BF1846002002B070BD9ADAFFFF5C
:106CD0002DE9F047C2B04FF0000A0DF108080F4649
:106CE000914651464FF4807204464046CDF804A0C8
:106CF0004E4612F006FF3D4652464FF03F0A002E28
:106D000057D0B368002B52D04E4511D02B4B2C4995
:106D10002046002A14BF0A461A4629460FF0FAF9FF
:106D2000002801DA274845E08542FBD92D1A0444A2
:106D300001A9304603F09CF830B9019B224A29464C
:106D400020460FF0E7F904E0204A294620460FF0DC
:106D5000E1F90028E6DB8542E4D92D1A044400233A
:106D60003269934213D2FF2B11D07269D25C1F2A71
:106D700006D97F2A04D002F17F01C9B21E2902D8A8
:106D800008F803A001E008F803200133E8E7002237
:106D900008F80320294643460D4A20460FF0BAF969
:106DA0000028BFDB8542BDD9327F2D1A0444B66965
:106DB000A5E7781B42B0BDE8F08700BFBACA0E0055
:106DC000B6CA0E0080D6FFFFBDCA0E00C1CA0E00B3
:106DD000EEE00E002DE9F74F5668DFF884A0DFF8EB
:106DE00084B0212E80460F46914628BF1C260C46B3
:106DF0000025B5421CD0D9F808301DB9012E01D0AC
:106E00001A789AB1721E954234BF52465A465B5D5B
:106E1000009221460F4A40460FF07CF9002801DA23
:106E20000D4814E08442FBD9241A80440135E0E780
:106E3000D9F804309D4209D0084A214640460FF057
:106E400069F90028ECDB8442EAD9241A381B03B024
:106E5000BDE8F08FC5CA0E0080D6FFFFCCCA0E0079
:106E60004BC90E0091D00E002DE9FF470C4604A936
:106E700098460023074641F8043D1046DDF834905B
:106E800003F044F828B1234A214638460FF042F96E
:106E900005E0039B204A214638460FF03BF90028C5
:106EA000064601DA1D4832E08442FBD9B8F1060FEC
:106EB000A4EB00052AD19DF8300006F043F8804687
:106EC00099F8000006F03EF88246B8F1000F04D0B1
:106ED000404606F072F9804601E0DFF83880BAF1EA
:106EE000000F03D0504606F068F900E00948D9F8D1
:106EF00004300B4A8DE8090029464346B8190FF0C3
:106F000009F90028CEDB8542CCD92D1A601B04B0CC
:106F1000BDE8F087D1CA0E00EEE00E0080D6FFFF7C
:106F2000D5CA0E0010B51346064A0C460FF0F2F80B
:106F3000002805DB044B844294BF1846002010BD96
:106F4000014810BDECCA0E0080D6FFFF002070473C
:106F50000020704703F0D0B803F0AFB810B5044676
:106F600003F0A6F82046BDE810400FF0ABB810B50E
:106F70005C21012012F07EFC044608B103F094F875
:106F8000204610BD04F0A6B804F06AB803F09AB821
:106F9000FEF77CBAFEF725BA10B50446FEF71CFAD8
:106FA0002046BDE810400FF08DB810B56C210120CF
:106FB00012F060FC044608B1FEF70AFA204610BD44
:106FC0000123FEF797BE0023FEF794BEFEF7FEBD39
:106FD000FEF7C2BD0121FEF709BA0021FEF706BA8D
:106FE0000CF006BA0CF061B910B504460CF058F973
:106FF0002046BDE810400FF065B810B5D82101203B
:1070000012F038FC044608B10CF046F9204610BDD9
:1070100001230DF0BFB900230DF0BCB90DF08AB803
:107020000DF040B801210CF047B900210CF044B933
:107030002DE9F04F95B004AE1E9D019307460C4616
:1070400091460021402230460DF1500812F059FDC2
:107050000023286848F8443D06F0ACF882467CB32B
:1070600054452846A34628BFD34605F0B9FF03463A
:1070700038BB019A4946284605F0BCFF034600BBD1
:1070800004224146284605F0B5FF0346C8B93146FB
:10709000284605F0B9FF034698B93A465B4507D044
:1070A00012F8010BF15C414002F8011C0133F5E7D5
:1070B0009DF80F2001321F448DF80F20E41ACEE70F
:1070C000234630464021019304F098F8019B18466E
:1070D00015B0BDE8F08F00002DE9F3471D460023F1
:1070E0000E469146DDF8288000930193044628B3AC
:1070F00005F028FF0646002863D020466A4601A90D
:1071000002F088FF044600285BD1304606F052F8B2
:10711000009F074407F108037F2B064651D810F162
:107120000A024ED207F10A039A424AD89D4248D336
:10713000A5F10A03DF1B0A2F06D842E08D4240D397
:107140006D1A0A2D3DD93EE0C246033F0AF8024BB4
:1071500001233A4688F80130FF21504612F0D1FC55
:107160000AEB070330210AF807405970009FD970D5
:1071700007F1080232449A70FAB2111D03F1070AAE
:107180001971062159719A7101993A46504612F0C7
:1071900092FC05220AEB07030AF8072004229F1835
:1071A0009A70DE705C7032464946384612F083FCB5
:1071B0003E4408EB05039E4219D02946404604F0A0
:1071C0001DF80D4C13E04346EF1E03F8020B01229D
:1071D00088F80120FF213A46184612F092FC034637
:1071E000C455A81E32464946184412F064FC204695
:1071F00002B0BDE8F08700BF80BFFFFFF8B500F127
:1072000008054768044628460E4609F0CFFE874227
:1072100017D16368B3F5806F13D8002128460AF0B0
:10722000AAF800280DDD0021284609F075FE40B1BE
:10723000EEB104F12C05002128460AF09CF8002844
:1072400001DC1A48F8BD0021284609F065FE002837
:10725000F7D004F13805002128460AF08CF8002800
:10726000EFDD0021284609F057FE0028E9D0002173
:1072700004F114000AF07FF80028E2DDA6B1002135
:1072800004F144000AF077F80028DADD002104F167
:1072900050000AF070F80028D3DD002104F15C00F2
:1072A0000AF069F80028CCDD0020F8BD80BFFFFFA0
:1072B0002DE9F843099F0B9E0D9D0446984649B160
:1072C00000F10809484609F077FE50BB484609F02E
:1072D0006DFE6060B8F1000F01D147B90EE0089A69
:1072E000414604F12C0009F067FED0B9F5E70A9A8F
:1072F000394604F1380009F05FFE90B936B10C9AB6
:10730000314604F1200009F057FE50B935B10E9A0C
:10731000294604F1140009F04FFE10B90020BDE821
:10732000F883A0F58140BDE8F88300002DE9F04F17
:1073300000F1080B87B00746002158460AF01BF8F9
:1073400007F12C090021804648460AF014F807F19D
:10735000380A0590002150460AF00DF807F1200385
:1073600000210546184602930AF005F807F11403B8
:10737000049000211846039309F0FDFF059B049A31
:107380004BB125B12AB1061C18BF012613E02E46C9
:1073900011E016460FE0B8F1000F03D1444646460F
:1073A000002224E0CDB91AB1F0B9064604460EE039
:1073B0002E462C460DE0ADB192B9041C18BF012435
:1073C000B8F1000FECD0002BEAD1002DE8D1002A53
:1073D000E6D10028E4D0012209E01C461E46DFE782
:1073E0000024EDE72C46DBE701262C4602E0002EC8
:1073F0003DD0002604940124B8F1000F0BD153B105
:107400004DB15246494658460AF0D4F828BB584672
:1074100009F0CCFD786046B1CDF800A04B46029A49
:10742000039958460DF0DAF807E0049B33B1029B4C
:10743000039A514648460DF0CDF970B984B107F171
:107440005C03019307F150030093029A07F1440390
:10745000514648460DF062FB10B1A0F581400CE0AA
:107460002146384607B0BDE8F04FFFF7C7BE0CB95C
:1074700012B126460494BFE7014807B0BDE8F08F7B
:1074800080BFFFFF70B504460E4615460021AC22B2
:1074900012F037FBC4F8A460C4F8A85070BD40686F
:1074A0007047000070B500210446FFF7A7FE0546AF
:1074B000B8B904F10806304609F058FD7F2810D904
:1074C00014342946204609F027FD50B1204609F022
:1074D0004DFD012805D93146204609F007FF002857
:1074E00000DB014D284670BD00BEFFFFF0B585B042
:1074F0000446FFF7D7FF28BB01212046FFF77EFE99
:1075000000BB04F1140304F12C0504F1380604F166
:10751000200702900190009332463B46294604F131
:1075200008000DF035FA68B904F15C03019304F129
:10753000500300933A4604F14403314628460DF0C7
:10754000A7F900B1014805B0F0BD00BF00BEFFFFC4
:1075500038B505460C46FFF7A5FF50B92046FFF7A2
:10756000C5FF30B904F1080105F1080009F0BEFEBD
:1075700008B1054838BD04F1140105F1140009F003
:10758000B5FE0028F5D138BD00BEFFFF2DE9F04162
:107590000C4686B0002105461746FFF72FFE06462B
:1075A00078BB03A809F0BBFB21466A6803A809F071
:1075B00003FD0446F0B905F10804214603A809F0CB
:1075C00095FE002814DA05F1680303A9009305F17C
:1075D000140223460846D5F804800AF059FA0446F6
:1075E00040B94246394603A809F01DFD044601E0B2
:1075F0006FF0030403A809F098FB1CB1A4F58546BD
:1076000000E0024E304606B0BDE8F08180BFFFFFCB
:107610002DE9F04F0E46A5B00121044692461D46C5
:10762000FFF7ECFD0390002840F09B8106A809F0CD
:1076300076FB09A809F073FB0CA809F070FB0FA8F2
:1076400009F06DFB2EB118A809F069FB1BA809F021
:1076500066FB12A809F063FB15A809F060FB1EA8E1
:1076600009F05DFB21A809F05AFB6268294606A8CB
:1076700009F0A2FC0746002840F0508104F10805FB
:10768000294606A809F032FE002880F2438106A9A7
:107690001EA809F0C4FB0746002840F03F8104F112
:1076A000500304F144090493002E00F0C580D4F87F
:1076B000A03023B304F18C0842464146404609F00D
:1076C00079FF0746002840F029812A464146404676
:1076D0000AF0ACF90746002840F0208104F1980830
:1076E00042464146404609F065FF0746002840F003
:1076F00015812A46414640460AF098F937E00C23A6
:10770000059304F1980B04F18C08059B013B05934C
:1077100000F02A81616853463246013958460AF022
:107720005BFC0746002840F0F9802A46594640464F
:107730000AF0CDFB0746002840F0F08001214046CA
:1077400009F019FE0028E0D12A46594640460AF0C1
:1077500077FC0746002840F0E18004F168030093BD
:1077600004F114022B46414640460AF091F90746BF
:10777000002840F0D38006A904F18C02084609F0E5
:1077800019FF0746002840F0C98006A92A46084686
:107790000AF04CF90746002840F0C080012204F1AD
:1077A0002C0109A809F0F0FE0746002840F0B68039
:1077B000012204F138010CA809F0E6FE0746002872
:1077C00040F0AC80534632461C210FA80AF004FC5E
:1077D0000746002840F0A2800FAA09A918A809F0BE
:1077E000E9FE0746002840F0998018A94A46084655
:1077F00009F071FE0746002840F09080534632465B
:107800001C210FA80AF0E8FB0746002840F08680FC
:107810000FAA0CA91BA809F0CDFE074600287DD1B0
:107820001BA9049A084609F056FE0746002875D1A0
:107830001BAB04930DF1600904F1740304F12C08EF
:1078400000934A46434606A912A80AF021F90746C2
:10785000002863D104F1800304F138090093049AED
:107860004B4606A915A80AF013F90746002855D17A
:1078700015AA12A906A809F04FFE074600284DD107
:1078800004F15C0206A912A809F094FE074600283C
:1078900044D1424612A906A80AF0C8F807460028B3
:1078A0003CD14A4606A912A809F084FE07460028E2
:1078B00034D112AA15A906A809F00DFE074668BB27
:1078C00066B904F16803009304F114022B4606A97B
:1078D00021A80AF0DDF8074600BB0FE006A904F175
:1078E0009802084609F066FE0746B8B906A92A4676
:1078F00008460AF09BF8074680B9E2E71EA921A8CE
:1079000009F0F4FC48B962682E9906A809F08BFBCF
:10791000074603E06FF0030700E0164F09A809F0DF
:1079200004FA0CA809F001FA0FA809F0FEF92EB12B
:1079300018A809F0FAF91BA809F0F7F906A809F048
:10794000F4F912A809F0F1F915A809F0EEF921A847
:1079500009F0EBF91EA809F0E8F93FB1A7F5864355
:1079600000E0054B039301E0044FD7E7039825B0EF
:10797000BDE8F08F80BCFFFF80BFFFFF80BBFFFF33
:107980002DE9F04F8DB0012B80468B460592069372
:10799000189F1A9E05D1D0F8A430012B01D0414B7D
:1079A0007BE0BBF1000FFAD098F8A80005F0CAFA06
:1079B00003900028F3D0D8F8044005F0FBFB0546FF
:1079C00000B243000493049ABB1C13449F42E6D8C0
:1079D0009C42E4D322460021304612F092F806F190
:1079E0000109002333702A4649460598D84710B14B
:1079F000A0F5894351E009EB050A5346179A1699F9
:107A0000039805F00BFB0346002846D10790A01E03
:107A1000049B1999C01B2844C01A01220AF80020AF
:107A2000104450443A4609AF12F045F8384605F084
:107A300095FA079B03991A46384605F0AFFA0346B4
:107A4000A8B905F1010A013CB244641B2B4600971A
:107A50004A4621465046FFF7EBFA034638B923461B
:107A60000097524629464846FFF7E2FA034609A81E
:107A7000039305F078FA039B7BB9069B2BB932463A
:107A800031464046FFF782FD06E000963346059AF0
:107A900059464046FFF7BCFD034618460DB0BDE809
:107AA000F08F00BF80BFFFFF2DE9F74F9A46BAF174
:107AB000010F0D9BDDF83080009307468946934601
:107AC0000E9D04D1D0F8A4300BB12C4852E018F12F
:107AD0000B037C68F9D29C42F7D3033C0023C8EB2C
:107AE00004042B70BAF1000F19D1B9F1000FECD0DA
:107AF000AE1C02236B703444A6421AD064230122C8
:107B0000314658460193C84732787ABB019B013B06
:107B100002D1A0F589402DE00028F0D0F9E701223C
:107B2000AB1C6A701C44FF229C4202D003F8012B5C
:107B3000FAE72046002300F8013B4246009911F085
:107B4000BAFFBAF1000F07D12A462946384603B0DA
:107B5000BDE8F04FFFF71ABD2B465A464946384656
:107B60000C9503B0BDE8F04FFFF752BD0028D0D10F
:107B70000136C1E703B0BDE8F08F00BF80BFFFFF53
:107B8000F0B587B0D0F8A4700CAC70CC57B1012F11
:107B900010D1029400240496039501940094FFF7F9
:107BA000EFFE08E00E960D950C9407B0BDE8F0408E
:107BB000FFF77ABF014807B0F0BD00BF00BFFFFF6D
:107BC0002DE9F04FADF2644D012B06468A46039233
:107BD0009B4605D1D0F8A430012B01D05C48B2E01F
:107BE0007768A7F11003B3F57C7FF7D896F8A80063
:107BF00005F0A8F902900028F0D005F0DBFA00F1BA
:107C000001084FEA4805AF420446E7D30DF1600989
:107C1000BBF1000F06D14A46DDF894143046FFF759
:107C2000B5FC08E0CDF80090DDF89434039A514695
:107C30003046FFF7EDFC824600283CD105AE3046C9
:107C400005F08CF952460299304605F0A7F98246B4
:107C500008B130463BE007F1FF3BC844C4EB0B0BD7
:107C600000965B46424621460DF16100FFF7E0F9C0
:107C7000824658BB009623460DF1610259464046A4
:107C8000FFF7D6F9824608BB24E0885C80F001004B
:107C900050EA0E0351D10132114418AA8A1ADDF8B4
:107CA0009C04BA1A82424BD8DDF890040260DDF8D9
:107CB000980411F000FF4FF4806118A803F09EFAB9
:107CC00008A8402103F09AFA50463CE005A805F0C8
:107CD0004AF9F0E7304608AE05F045F93346DDF8DD
:107CE0008C24DDF88814029805F098F98246002863
:107CF000E1D10DF1610399F800E019195046A04255
:107D000008D2325C11F800C082EA0C0C4CEA0E0E6C
:107D10000130F4E721447D1B00240E460D44224629
:107D2000B542B2D016F8010B044360422043C0F3C1
:107D3000C01080F001000244F2E7DFF818A0BAE7B3
:107D4000DFF814A0B7E70DF2644DBDE8F08F00BF77
:107D500080BFFFFF00BFFFFF00BCFFFF2DE9F04722
:107D6000012BADF5816D1F46456804D1D0F8A430D4
:107D7000002B40F0BE80A5F11003B3F57C7F00F22C
:107D8000B88002AE4FB93246DDF82C14FFF7FEFB87
:107D90000446002840F0A68025E00096DDF82C344B
:107DA000FFF736FC0446002840F09C80012F327813
:107DB0001AD1737883F00203134301460224375D1E
:107DC0007A423A43C2F3C01282F001021043C0B2B9
:107DD00042420243C2F3C012013482F00102A542C2
:107DE0001144ECD11BE032787378002083F001035A
:107DF000134301460227F25D002A08BF40F001004C
:107E0000C0B24442D243E417D2B204F1010E0137AA
:107E100014406240BD42714443EA0203EBD1DDF8F5
:107E20003444A5F10B02A24228BF2246A1F1080466
:107E300043EAD473444220430028B4BF184643F0B9
:107E4000010043420343EF1EDB177F1A002B18BFCC
:107E50001746D11BC90FC1F1000E08430EF4884428
:107E6000002B18BF4FF4824443421843C0176442AA
:107E70000DF11303C0431978014003F8011B991B4E
:107E80008D42F8D8A91ABEF1000F18BF1746314429
:107E90003AB9DDF8300411F00EFEDDF828341F6029
:107EA00020E002F1FF38002501EB080CEB1BDB178B
:107EB000002080450CD911F800E001EB00090130E9
:107EC00011F800A0002B08BFD64689F800E0F0E7C3
:107ED0009CF8000001350340DBB2AA428CF8003068
:107EE000E4D1D6E730464FF4806103F087F92046AD
:107EF00000E002480DF5816DBDE8F08780BFFFFF0F
:107F0000F0B587B0D0F8A4E00CACF0CCBEF1000F17
:107F10000CD0BEF1010F12D10294002405970496F3
:107F2000039501940094FFF74BFE09E00F970E961E
:107F30000D950C9407B0BDE8F040FFF70FBF014866
:107F400007B0F0BD00BFFFFF2DE9F04F9FB0012B40
:107F500081468B46059206939DF8A0002B9D05D186
:107F6000D9F8A430012B01D05C48B4E0BBF1000F7C
:107F7000FAD0D9F8044030B104F0E4FF0028F3D07F
:107F800005F018F9299099F8A80004F0DBFF079094
:107F90000028E9D005F00EF943009C428246E3D365
:107FA00002339C423ABFA4F10208C0EB08088046A5
:107FB00022460021284611F0A4FD42460EA905984C
:107FC000D84710B1A0F5894085E009F10803099070
:107FD0001846039308F0CAFFCAEB0403C8EB030278
:107FE000561E2A4401212E4402F8021C08904246E3
:107FF0000EA90BAF3046049311F05DFD384604F036
:10800000ADFF099B07991A46384604F0C7FF0246A0
:10801000002849D1384604F0E3FF0246002843D146
:10802000464408223146384604F0E4FF0246002860
:108030003AD1299A2A99384604F0DCFF024698BBC7
:1080400042460EA9384604F0D5FF024660BB3146D1
:10805000384604F0D9FF024630BB089B0097013B2D
:1080600013F0070F049B0CBF01200020591E32465D
:10807000091A53462844FEF7DBFF0246A0B90490D4
:10808000039808F073FFC0EBC4002B780130FF2485
:1080900044FA00F01840BC232870402106F80A304A
:1080A0000EA803F0ABF8049A03920BA804F05BFF50
:1080B000039A7AB9069B2BB92A4629464846FFF708
:1080C00065FA08E000952B46059A59464846FFF7A1
:1080D0009FFA00E010461FB0BDE8F08F80BFFFFFA1
:1080E0002DE9F347012B89460BA9054692461C460C
:1080F0009DF8280086C903D1D5F8A430002B4BD1B8
:1081000000976B68FEF7E8FF002849D13CB93A4672
:108110003946284602B0BDE8F047FFF737BA6C6829
:108120000120214611F0A6FB0646B8B321460120E6
:1081300011F0A0FB804618B930460DF0C3FF2DE0CA
:1081400000963B46524649462846FFF761FA0446E8
:10815000D0B9424631462846FFF718FA044698B986
:108160006D6803460246AA4207D018F80200B95CBF
:1081700041400B43DBB20132F5E723B931463846C3
:1081800011F099FC00E0084C30460DF09BFF404692
:108190000DF098FF204603E0044801E06FF00F0067
:1081A00002B0BDE8F08700BF00BDFFFF80BFFFFF4A
:1081B000F0B5D0F8A4E09DF8144006ADE0CDBEF1D6
:1081C000000F0AD0BEF1010F0FD108970796069550
:1081D0000594BDE8F040FFF7B7BE089707960695EF
:1081E0000594BDE8F040FFF77BBF0148F0BD00BF3C
:1081F00000BFFFFF2DE9F04FADF2644D012B0546A6
:108200009DF8888405D1D0F8A400012801D06148E8
:10821000BBE06F68A7F11000B0F57C7FF7D818AE0F
:1082200033B93246DDF89C142846FFF7AFF905E074
:108230000096DDF89C342846FFF7EAF9002840F064
:10824000A4807C1E335DBC2B40F09E80B8F1000FF3
:1082500008D0404604F076FE0028D8D004F0AAFFEB
:10826000CDF88C049DF8940404F06CFE814600283F
:10827000CDD004F09FFF0023824605F10800039350
:10828000049308F073FEFB0000F1FF383278C3F16D
:108290000803434452FA03F3B9D118F0070F08BF9B
:1082A00027460AF102030CBF0DF1610535469F42D6
:1082B000ADD305AC204604F051FE002249462046CD
:1082C00004F06CFE8346002859D16FEA0A01394454
:1082D00005EB0109009453464A462846FEF7A8FEDE
:1082E000834600284BD1C8EBC70733784FF0FF080F
:1082F00048FA07F71F40377009F1FF3295422946C7
:1083000003D20B780135002BF8D00B78012B34D138
:10831000DDF898344D1C5A1CC5EB090601D09E426D
:108320002BD1204604F05CFE834640BB082203A903
:10833000204604F05FFE834608BBDDF88C24DDF8A0
:108340009014204604F056FE8346C0B932462946B2
:10835000204604F04FFE834688B908A9204604F061
:1083600053FE834658B9524608A9484611F094FB7B
:10837000094A002818BF934601E0DFF820B02046E4
:1083800004F0F1FD584600E004480DF2644DBDE8EC
:10839000F08F00BF80BFFFFF80BCFFFF00BFFFFF6B
:1083A00070B586B0D0F8A8409DF828500CB1E4B262
:1083B00000E02C460D9E03940C9C059602944FF011
:1083C000FF360B9C049601940095FFF713FF06B04F
:1083D00070BD00002DE9F74F012B80468A46934679
:1083E0009946456802D1D0F8A430EBB9294601205E
:1083F00011F040FA0646C8B12946012011F03AFAB8
:108400000746C0B96FF00F043046294602F0F6FE69
:1084100030460DF057FE67B13846294602F0EEFEB1
:1084200038460DF04FFE04E01B4831E06FF00F00BE
:108430002EE020462CE000902B460E9A0D999DF8D8
:108440003000FEF749FE04460028DDD1B9F1000FE7
:1084500005D132460F994046FFF798F806E000969E
:108460000F9B5A4651464046FFF7D2F80446002873
:10847000CAD103469D4206D0F05CFA5C50400443EA
:10848000E4B20133F6E7002C044C08BF0024BBE73C
:1084900003B0BDE8F08F00BF80BFFFFF80BCFFFFCF
:1084A000F0B5D0F8A4E09DF8144006ADE0CDBEF1E3
:1084B000000F0AD0BEF1010F0FD10897079606955D
:1084C0000594BDE8F040FFF76BBF08970796069547
:1084D0000594BDE8F040FFF77DBF0148F0BD00BF47
:1084E00000BFFFFF10B50446A0B38C3008F01DFCA0
:1084F00004F1980008F019FC04F1680008F015FC7C
:1085000004F1200008F011FC04F1380008F00DFC23
:1085100004F12C0008F009FC04F1140008F005FC3B
:1085200004F1080008F001FC04F1800008F0FDFBF4
:1085300004F1740008F0F9FB04F15C0008F0F5FBAD
:1085400004F1500008F0F1FB04F14400BDE81040D4
:1085500008F0EBBB10BD036B2BB1C36B002B0CBF42
:1085600002200120704718467047000038B54B6E56
:1085700004460D462BB90A1DBDE83840014609F0F6
:1085800055BA0368002B07DB204608F0EFFCAB6D03
:10859000B0EB430F22D804E0002108F0ECFEE8B96C
:1085A000F2E76B6E2046984708BB04352368002B22
:1085B00004DA0021204608F0DEFE88B9294620466C
:1085C00008F094FE002807DB2A462146204608F0E2
:1085D00042FF0028F2D038BD002038BD044838BD25
:1085E0002A462146204608F076FF0028DED038BD16
:1085F00080B0FFFF2DE9F04F8DB0064603AD684611
:108600008946904608F08BFB284608F088FB06A8B0
:1086100008F085FB09A808F082FBB369002B3FD165
:1086200008F118021146284608F0C4FF0446002845
:1086300040F0058231462846FFF798FF044600289F
:1086400040F0FD812A46414606A808F044FF044652
:10865000002840F0F481371D394606A808F046FE90
:10866000002808DB06A93A46084608F0F4FE04464E
:108670000028F1D0E3E12A46414609A808F04CFF62
:108680000446002840F0DB81099B002B80F220810A
:10869000002109A808F06FFE002840F0408117E192
:1086A00042464146284608F085FF0446002840F02F
:1086B000C68131462846FFF759FF0446002840F09E
:1086C000BE8103222946684608F0E3FF04460028DD
:1086D00040F0B581371D3946684608F007FE00288E
:1086E00008DB3A466946684608F0B5FE04460028AD
:1086F000F1D0A4E106F1100A0021504608F03BFE3B
:10870000002848D008F118021146284608F052FF08
:108710000446002840F0938131462846FFF726FFA3
:108720000446002840F08B812A46294606A808F016
:1087300041FF0446002840F08281314606A8FFF739
:1087400015FF0446002840F07A81524606A92846C3
:1087500008F030FF0446002840F071813146284679
:10876000FFF704FF0446002840F069812A46694665
:10877000684608F0B0FE0446002840F060813946A3
:10878000684608F0B3FD002805DB3A4669466846AE
:1087900008F061FEEFE708F10C0B5A46594606A8AF
:1087A00008F008FF0446002840F04981314606A839
:1087B000FFF7DCFE0446002840F04181012106A8B5
:1087C00008F066FC0446002840F03981371D394620
:1087D00006A808F08BFD002808DB06A93A460846E3
:1087E00008F039FE04460028F1D028E106AA4146E7
:1087F000284608F0DFFE0446002840F0208131467C
:108800002846FFF7B3FE0446002840F018810121F6
:10881000284608F03DFC0446002840F01081394607
:10882000284608F063FD002805DB3A46294628461D
:1088300008F011FEEFE706AA114609A808F0BAFEF3
:108840000446002840F0FB80314609A8FFF78EFE61
:108850000446002840F0F380012109A808F018FC24
:108860000446002840F0EB80394609A808F03EFD98
:10887000002805DB09A93A46084608F0ECFDEFE7B9
:108880006A46694606A808F095FE0446002840F0AE
:10889000D680314606A8FFF769FE0446002840F05E
:1088A000CE8006A92A46084608F036FE044600286F
:1088B00040F0C580069B002B37DA002106A808F09F
:1088C0005AFD90B306A93A46084608F004FEEDE7C3
:1088D00009AA06A9284608F06DFE0446002840F0C3
:1088E000AE8031462846FFF741FE0446002840F09E
:1088F000A68003222946684608F0CBFE04460028DD
:1089000040F09D803946684608F0F0FC0028FFF6EC
:1089100042AF3A466946684608F09DFDEEE709A970
:108920003A46084608F0D7FDAAE606A92A460846B0
:1089300008F0F2FD0446002840F08180069B002BE1
:1089400004DA002106A808F016FD28B906AA29466F
:10895000284608F0E1FD12E006A93A46084608F06C
:10896000BAFDE7E7039B002B0DDA0021284608F04B
:1089700002FD40B13A462946284608F0ACFD0446BF
:108980000028EFD05BE06A462946284608F012FE30
:108990000446002853D131462846FFF7E7FD044638
:1089A00000284CD109AA2946284608F0B5FD0446FE
:1089B000002844D1AA46039B002B04DA002150462C
:1089C00008F0D9FC98BB08F11802594609A808F02C
:1089D000F1FD044698BB314609A8FFF7C7FD0446E0
:1089E00068BB012109A808F053FB044638BB39468F
:1089F00009A808F07BFC002805DB09A93A460846CF
:108A000008F029FDF1E706A9484608F008FA0446EF
:108A1000A8B903A909F10C0008F001FA044670B9DD
:108A200009A909F1180008F0FAF9044607E03A46E6
:108A30005146504608F04FFD04460028BBD068461A
:108A400008F073F9284608F070F906A808F06DF9E7
:108A500009A808F06AF920460DB0BDE8F08FF0B51E
:108A600001F1180787B006460D463846002108F088
:108A700082FC00284DD0684608F051F903A808F0A0
:108A80004EF9321D3946684609F0DAFA0446C8BB89
:108A90006A46694603A808F08DFD044690BB31463E
:108AA00003A8FFF763FD044660BB03AA29462846D6
:108AB00008F080FD044628BB31462846FFF756FDE6
:108AC0000446F8B90C3503AA2946284608F072FD79
:108AD0000446B8B931462846FFF748FD044688B930
:108AE0006A462946284608F065FD044650B93146D5
:108AF0002846FFF73BFD044620B90121384608F01F
:108B0000EFF90446684608F010F903A808F00DF9DB
:108B1000204607B0F0BD00002DE9F047012A8AB0D9
:108B200007460D46914603D80968FFF798FFF1E024
:108B30000C21104610F09EFE8046002800F0E980CF
:108B400000240C2606FB0480013408F0E8F8A14557
:108B5000F8D101A808F0E3F804A808F0E0F807A8A5
:108B600008F0DDF829684046183108F058F9044645
:108B7000002840F0B78008F10C064FF0010A55F8C4
:108B80002A20A6F10C011832304608F013FD0446E5
:108B9000002840F0A78039463046FFF7E7FC04463E
:108BA000002840F09F800AF1010AD14506F10C0629
:108BB000E5D10C2606FB09F6A6F10C013A1D41444D
:108BC00001A809F03DFA0446002840F08B80183EC9
:108BD00009F1FF3A05EB89054644BAF1000F0ED1C1
:108BE00001A904A808F01BF9044600287AD104AAB8
:108BF000114607A808F0DEFC0446F0B172E03246E8
:108C000001A904A808F0D6FC044600286AD1394618
:108C100004A8FFF7ABFC0446002863D155F8042CE8
:108C200001A91832084608F0C5FC0446002859D1AD
:108C3000394601A8FFF79AFCD6E7394607A8FFF79F
:108C400095FC044600284DD155F8041C07AA084697
:108C500008F0B0FC0446002844D1394655F8040C0D
:108C6000FFF784FC044600283CD155F8041C0C3165
:108C700007AA084608F09EFC044698BB55F8040C69
:108C800039460C30FFF772FC044658BB55F8041CFB
:108C90000C3104AA084608F08DFC044610BB55F8B8
:108CA000040C39460C30FFF761FC0446D0B9B968B2
:108CB00055F8040C08F075F8044698B955F8040CFA
:108CC000B9680C3008F06DF8044658B955F8040D31
:108CD000183008F02AF80C3EBAF1000F02D00AF161
:108CE000FF3A7AE701A808F020F804A808F01DF878
:108CF00007A808F01AF800250C2606FB05800135A8
:108D000008F013F8A945F8D140460DF0DBF92046EC
:108D100000E002480AB0BDE8F08700BF80B2FFFF64
:108D20007FB50C4605460C3401A8164607F0F7FF40
:108D3000291D224601A808F0EFFB054668B9014647
:108D4000204608F018FB01A900280CBF002206F0FD
:108D50000102204608F08FF8054601A807F0E5FF5C
:108D6000284604B070BD2DE9F74F9DF8307080465D
:108D70000E469B46C7F3450A02F10C04002501F19B
:108D80000C095D4517D0EBB2CAEB030253425341C5
:108D90001A46A4F10C013046019308F06CF890B922
:108DA000019B21461A46484608F065F801352434EF
:108DB0000028E6D007E0FA093146404603B0BDE896
:108DC000F04FFFF7ADBF03B0BDE8F08F054B19685A
:108DD00029B9054A03201070517001221A60024817
:108DE000704700BF30C2032034C20320054B1A78FD
:108DF0001AB1824203D00C33F9E710467047184687
:108E0000704700BFF4CB0E00054B1A7822B15A8888
:108E1000824203D00C33F8E710467047184670477B
:108E2000F4CB0E0010B5044607F079FF04F10C00F6
:108E300007F075FF04F11800BDE8104007F06FBFA0
:108E400038B50025044600F8045B07F068FF04F11C
:108E5000100007F064FF04F11C0007F060FF04F14C
:108E60002800FFF7DFFF04F14C0007F058FFA5656D
:108E7000E56525666566A566E56625676567A56798
:108E800038BD10B50446FFF7DBFF04F17C0007F0A6
:108E900046FF04F18800BDE81040FFF7C3BF10B5DE
:108EA000044658B107F041FF04F10C0007F03DFF04
:108EB00004F11800BDE8104007F037BF10BD70B5D1
:108EC000044658B3036E012B12D0043007F02DFF77
:108ED00004F1100007F029FF04F11C0007F025FF42
:108EE00004F12800FFF7DBFF04F14C0007F01DFF41
:108EF000636F6BB100252426A36F606F9D4205D27E
:108F000006FB0500FFF7CBFF0135F5E70DF0DAF8BA
:108F100020467C21BDE8704002F070B970BD10B5EC
:108F2000044658B1FFF7CBFF04F17C0007F0FDFECB
:108F300004F18800BDE81040FFF7B1BF10BD38B59F
:108F400004460D4607F06BFF70B905F10C0104F102
:108F50000C0007F064FF38B905F1180104F118009E
:108F6000BDE8384007F05BBF38BD097804F0A4BB0A
:108F700010B50121044607F0B3FF60B9012104F1E7
:108F80000C0007F0ADFF30B9014604F11800BDE850
:108F9000104007F0A5BF10BD2DE9F04702F11809F8
:108FA00096B005460E464846002190461F4608F0FA
:108FB000E2F908B9394608E03B6A53B1002107F1EC
:108FC000180008F0D8F920B941463046FFF7B7FF3E
:108FD000BDE13B6A3BB1012107F1180008F0CBF974
:108FE000002840F0958001A807F099FE04A807F03A
:108FF00096FE07A807F093FE0AA807F090FE0DA8BA
:1090000007F08DFE10A807F08AFE13A807F087FE70
:109010004A46494601A808F0CDFA0446002860D126
:10902000294601A8FFF7A2FA0446002859D14A466A
:1090300001A904A808F0BEFA0446002851D1294627
:1090400004A8FFF793FA044600284AD101A93A463A
:10905000084608F0AFFA0446002842D1294601A884
:10906000FFF784FA044600283BD104A907F10C025B
:10907000084608F09FFA0446002832D1294604A881
:10908000FFF774FA044660BB01A94246084608F09F
:1090900043FA044628BB2F1D019B002B05DA002153
:1090A00001A808F068F9002834D104A908F10C0AD5
:1090B0005246084608F030FA044690B92F1D049B2A
:1090C000002B30DB002101A808F055F901460028EB
:1090D00038D001AA494613A808F06CFA04460028C3
:1090E0003ED001A807F021FE04A807F01EFE07A845
:1090F00007F01BFE0AA807F018FE0DA807F015FEE2
:1091000010A807F012FE13A807F00FFE20461EE17C
:1091100090481CE101A93A46084608F0DCF90446EB
:109120000028B9D0DDE7002104A808F024F90028C0
:10913000C8D004A93A46084608F0CDF904460028EC
:10914000BDD0CEE704A808F016F928B9424631464A
:109150002846FFF74FFACEE03046FFF709FFCAE096
:10916000294613A8FFF702FA04460028B9D101AA3C
:10917000114607A808F01EFA04460028B1D1294676
:1091800007A8FFF7F3F904460028AAD101AA07A906
:109190000AA808F00FFA04460028A2D129460AA816
:1091A000FFF7E4F9044600289BD107A94246084688
:1091B00008F000FA0446002893D1294607A8FFF7D3
:1091C000D5F9044600288CD1022207A901A808F08D
:1091D00060FA0446002884D12F1D394601A808F002
:1091E00085F8002808DB01A93A46084608F033F95B
:1091F00004460028F1D074E704AA11460DA808F02F
:10920000D9F9044600287FF46CAF29460DA8FFF772
:10921000ADF9044600287FF464AF0DA901AA084601
:1092200008F07AF9044600287FF45BAF0D9B002B11
:1092300005DA00210DA808F09EF800285DD10DA9DF
:109240000AAA084608F068F9044600287FF449AFE6
:109250000D9B002B57DB07A90DAA084608F05CF907
:10926000044600287FF43DAF079B002B57DB07A97E
:1092700004AA084608F09EF9044600287FF431AF9E
:10928000294607A8FFF772F9044600287FF429AFA2
:109290000AA95246084608F08DF9044600287FF4D2
:1092A00020AF29460AA8FFF761F9044600287FF499
:1092B00018AF0AAA07A910A808F02EF9044600283A
:1092C0007FF40FAF109B002B35DB0DA9304607F064
:1092D000A6FD044600287FF404AF10A906F10C0097
:1092E00007F09DFD044600287FF4FBAE13A906F1AC
:1092F000180007F094FD0446F3E60DA93A46084627
:1093000008F0E9F88EE700210DA808F034F80028ED
:10931000A1D00DA93A46084608F0DDF894E70021EF
:1093200007A808F028F80028A1D007A93A4608465F
:1093300008F0D1F894E7002110A808F01CF80028E4
:10934000C3D010A93A46084608F0C5F8B6E716B0EB
:10935000BDE8F08780B0FFFF2DE9F04FD9B00DF1E7
:10936000280B0546029358469DF8883103930E4614
:1093700017469DF88CA105F14C0907F0D0FC0DA80B
:1093800007F0CDFC0021484607F0C6FD012878D142
:109390000021384607F0C0FD3946B0FA80F858463B
:1093A00007F03DFD4FEA5818044600285FD13A46C1
:1093B00049460DA808F0B0F80446002857D14246A7
:1093C0000DA9584607F057FD044600284FD1649B6D
:1093D0000DF158095A1C0146484610F092FB2746E9
:1093E0005B46649ABA421AD04FF0000B3A46DA450F
:1093F00013D9114618460592049307F08DFD17F80E
:109400000910649B059A00FA0BF008431A4407F808
:1094100009000BF1010B049BE9E70137E1E716AB0B
:109420004FF000094FF0010C649A624503F101030B
:109430001DD3197813F8017C81EA090000F0010EB0
:109440008EF0010E17FB0EF240B252B200EA020A91
:1094500001EA09014AEA0109424047EACE175FFAE8
:1094600089F91A7003F8017C0CF1010CDCE70DA8F6
:1094700007F05BFC0AA807F058FC002C40F0D380F2
:1094800001E06B4CCFE00DA8FFF7CCFC649A16AB63
:1094900031469B5C0093029A039B2846FFF763FCCE
:1094A0000446002840F0AF8006F118090121484623
:1094B00007F016FD0446002840F0A580659B43B9DF
:1094C000649A58AB9F186FF484731F440DF15709C9
:1094D00093E0AB6D07AF0733DB083846049307F022
:1094E0001EFC0AA807F01BFC4FF00C0A05F1040B48
:1094F000669B659A0499384608F06EFD034600287D
:1095000056D15946384607F0F1FE002804DB012108
:10951000384607F00CFEF1E7BAF1010A54D00121F8
:10952000384607F028FF0028E2DD3A46494648461B
:1095300008F040F8034600283AD129464846FFF78C
:1095400015F80346A0BB3A4639460AA808F032F897
:10955000034668BB29460AA8FFF708F8034638BB4C
:109560000AAA3146304608F025F8034600BB2946D2
:109570003046FEF7FBFF0346D0B90AA93A46084633
:1095800008F018F8034698B929460AA8FEF7EEFF36
:10959000034668B906F10C090AAA4946484608F08C
:1095A00009F8034620B929464846FEF7DFFF03467F
:1095B0003846049307F0B9FB0AA807F0B6FB049BF2
:1095C000002B3FF47DAF1BE01A4B19E032463146C9
:1095D0002846FFF70FF8A8B917F801390093029A47
:1095E000039B0DA92846FFF7BEFB58B90DAB3246C9
:1095F00031462846FFF7D0FC20B94F45E6D102E0BE
:109600001C4600E004460DA8FFF749FC5CB9424641
:1096100031462846FFF784FB044620B931462846E8
:10962000FFF71DFA0446204659B0BDE8F08F00BF91
:1096300080B0FFFF00B3FFFF08B50021183007F02E
:109640009AFEB0FA80F0400908BD00002DE9F84309
:109650000E460546002106F1180091469846089CE2
:10966000099F07F088FE48B917B91F48BDE8F8837D
:1096700001232070C8F80030BDE8F883281D07F0EA
:1096800095FC0546B9F1000F14D142000132974212
:10969000C8F80020E9D321460423024601F8013B23
:1096A000304607F0C0FCE8B9691C2A46214406F19F
:1096B0000C0012E0B9F1010F13D1431C9F42C8F80E
:1096C0000030D2D3002106F10C0007F025FC214622
:1096D000023001F8010B2A463046BDE8F84307F096
:1096E000A2BC0020BDE8F88300B1FFFFF8B50C462E
:1096F00015461F460BB91648F8BD137833B9012F2C
:10970000F9D10846BDE8F840FFF732BC043007F055
:109710004DFC2B78042B064618D1420001329742AB
:10972000E9D10246691C204607F046FC78B9711C55
:109730003246294404F10C0007F03EFC38B904F12C
:1097400018000121BDE8F84007F0CABB0148F8BD88
:1097500080B0FFFF80B1FFFF012B30B415460DD95B
:109760001468621C2A60247844B1013B9C4205D8ED
:1097700013192B60234630BCFFF7B8BF014830BC3B
:10978000704700BF80B0FFFF73B5079C069E1D4663
:1097900064B1013C0194741C0094FFF757FF30B989
:1097A0002B6833702B6801332B6000E0014802B056
:1097B00070BD00BF80B0FFFF022A10B5044601D87B
:1097C0000C4810BD0B685A1C0A601A78032AF7D19E
:1097D0009A1C0A60DA1C58780A609B7843EA0020D9
:1097E000FFF712FB18B103782370002010BD024868
:1097F00010BD00BF80B0FFFF80B1FFFFF0B50F4686
:1098000087B00546012107F1180007F0B4FD0646B0
:1098100010BB2846FEF79FFE01281BD13146384673
:1098200007F0A9FD002817DB07F10C04314620469C
:1098300007F0A1FD00280FDB2E1D3146384607F04A
:1098400055FD002808DA3146204607F04FFD002874
:1098500002DA03E0454886E0454884E0684607F0C0
:109860005EFA03A807F05BFA22462146684607F035
:10987000A1FE044600284DD129466846FEF776FE33
:109880000446002846D13A46394603A807F092FE1E
:10989000044600283ED1294603A8FEF767FE044689
:1098A000002837D1AB69A3B903A90322084607F002
:1098B0006BFE044670BB039B002B1EDA002103A83D
:1098C00007F059FDC8B103A93246084607F003FE68
:1098D000EFE703A905F11002084607F0FCFD044676
:1098E000C0B9314603A807F001FD002805DB03A934
:1098F0003246084607F0AFFDF1E703A93A460846AD
:1099000007F058FE044628B9294603A8FEF72EFEA4
:10991000044638B1684607F008FA03A807F005FACC
:10992000204620E003A905F11C02084607F0D3FDFC
:1099300004460028EED1314603A807F0D7FC0028E2
:1099400008DB03A93246084607F085FD0028F2D05F
:109950000446DFE703A9684607F0C8FC0028044C6A
:1099600008BF0024D6E707B0F0BD00BF80B0FFFFFE
:1099700080B3FFFF38B50C460546FEF7ECFD012825
:1099800001460DD1204607F0F6FC00280ADB05F160
:109990004C01204607F0AAFC002803DA002038BD5D
:1099A000014838BD014838BD80B0FFFF80B3FFFFDC
:1099B0002DE9F04FAFB005460A9111460B921E46B5
:1099C000FFF7D8FF8346002840F013813146284630
:1099D000FFF714FF8346002840F00B812846FEF76E
:1099E000BAFD012840F0848005F1340106F10C0035
:1099F00007F07CFC48B905F12801304607F076FCF9
:109A0000B0FA80F94FEA591900E0D946EB6DB3F589
:109A1000C07F2CBF05270427B9F1000F00D0013704
:109A2000BB4298BF022707F1FF38012202FA08F271
:109A300007929DF81C200892013B3B44B3FBF7F3CF
:109A40000993B9F1000F01D06C6F24BB2421079852
:109A50000FF010FF044600282ED04FF0000A4FF000
:109A6000240B0BFB0A40FFF7DDF90AF1010A089A03
:109A70005FFA8AF39A42F4D83DE0079B0FA95A1E79
:109A80002846FFF749F88346C0B9B9F1000F02D064
:109A9000079B6C67AB67399B0493389B0393099BC7
:109AA0000293089B0093019723460B9A0A99284634
:109AB000FFF752FC834601E0DFF840B16A6FA24233
:109AC0000ED06CB10025242606FB0540FFF7E7F910
:109AD0000135089BEAB29342F6D820460CF0F2FA20
