:02000002D0002C
:1040000000400D00F8AE0E00000006000C00050197
:084010000401E80500000000B6
:0440180014780E000A
:1040200009480A49884208B505D0094A824202D0A7
:10403000121A12F08CFF0748074A0021121A12F0D8
:10404000ACFF014808BD00BFECAE0320DCAD0E00A4
:10405000E0AF0320E0AF0320F0E7032070B511F0DC
:1040600005FD074C074BE41AA40800251E46A5428F
:1040700004D056F8253098470135F8E770BD00BFE9
:10408000C4AD0E0080AD0E0000F016B808B500F00B
:1040900031F8BDE8084011F0ABBC11F05FB911F088
:1040A00065B911F063B90078B0FA80F04009704743
:1040B00001230370704700001FB511F0EDFD4FF4B0
:1040C000165111F0DDFD11F0E7FD044611F041FC41
:1040D0000146684611F0FAFB0099204611F0A2FB58
:1040E000684611F03FFA024800F080F804B010BDB5
:1040F000E8AF032008B5044800F090F847F23050CC
:10410000BDE8084011F036BCE8AF032010B5064CFE
:1041100010F060FF204600F031F82046034A0449C1
:10412000BDE8104012F0DEBAE8AF0320E0AF032094
:10413000C9410D0038B584690A4B036005467CB15E
:104140006368013B63605BB9236820469B689847BE
:10415000A368013BA3601BB923682046DB6898472E
:10416000284638BD64AA0E0010B50446FFF7E2FFEA
:1041700020461C2112F0BBFA204610BD10B540F2BB
:10418000E1720F49044612F0E2FE0E4B04F2E172B6
:1041900003F1340153F8040B42F8040B8B42F9D1BC
:1041A00010F030FFC4F8180804F5226000F0F4F8AD
:1041B00004F58E50103010F0DFFD204610BD00BF1A
:1041C00028780E0009800E0038B5044600F58E50A0
:1041D00004F52265103010F01DFE284600F01AFA92
:1041E00005F28C70FFF7A6FF204638BD10B50446D7
:1041F00010F008FFD4F81838C01A074B984209D9B4
:1042000011F08CF810B1002011F090F810F0FAFEC7
:10421000C4F8180810BD00BF005C2605F0B500F515
:104220008E5585B0103504463F49684611F0E1F9D6
:104230006946284610F016FE684611F093F93B498E
:10424000684611F0D6F96946284610F00EFE684619
:1042500011F088F93649684611F0CBF969462846CD
:1042600010F019FE684611F07DF904F593510C31F8
:10427000684611F0FDF96946284610F009FE6846C7
:1042800011F070F904F522660021284610F0F0FDC7
:1042900040F2E1722146304600F02AF911F0FCFCB0
:1042A0000746284610F06AFE0146384611F0CDFA5E
:1042B00040F2BB1204F2E171304600F0E4F93046FE
:1042C00000F054F920B911F0E7FC1A4911F0BDFAD9
:1042D000284610F053FE04F61C040146204611F057
:1042E00055F821460246304600F036F94FF4007288
:1042F0000021204612F051FE40F2FF1221463046C6
:1043000000F0A7F910F5D24F03D1642011F032FB71
:10431000ECE7002805DD11F0BFFC214611F095FA0D
:10432000E4E7002005B0F0BD3D800E0009800E00DE
:1043300061800E0082800E0010F04CBE704770B598
:104340000E4615460C462B1B3344032B04D910F0A4
:1043500051FE44F8040BF6E7AC0806EB8404354440
:10436000AC4204D010F046FE04F8010BF8E7002040
:1043700070BD000000B5ADF2044D0B46054A40F299
:10438000FF31684608F034FC00200DF2044D5DF862
:1043900004FB00BFFD870E0010B5044600F28C70D0
:1043A00012F0A0F8002384F8A837204610BD0000C2
:1043B0002DE9F04F054685B0934600F27444002283
:1043C00080F8A82705F56E7620469946029103925B
:1043D00005F2F44A0BF0D1FA30460AF0A1FF05F5D8
:1043E000C567504609F012FA05F25C78384609F0C4
:1043F0000DFA404609F032FE039A364920460AF08B
:10440000A0FF5A460299504609F0B6FD00285DDB30
:10441000B9F1000F02D10F9B5BB90CE00E9B002B92
:10442000F9D01A464946384609F0A6FD0028F2DAC6
:104430004CE0109B4BB900231A46194620460BF05E
:10444000A1FA8346002841D109E000230093109A85
:104450000F99404607F0D2F90028ECD036E003224D
:10446000114620460AF0BCFF5A461B4920460AF076
:1044700062FF012120460AF057FF5A46174920469D
:104480000AF05CFF5A46514620460AF06FFFB9F128
:10449000000F06D00F9B23B14246394620460AF052
:1044A00062FF214630460BF0D9F9044668B90C4B3F
:1044B0000C4A05F2647130460AF04CFF00940A4B36
:1044C0000A4A294630460AF03FFF204605B0BDE8BB
:1044D000F08F00BF3D430D0075430D003F430D00BD
:1044E0004FA50D0041A50D00D9450D00A1450D00BA
:1044F0001FB50023029301930093FFF759FF05B006
:104500005DF804FB70B5054600F56E76D5F8BC3352
:10451000102B05D030460FF079FD04460028F5D069
:1045200014F5D24FF2D014F5D14FEFD005F2F4408C
:1045300009F071F905F5C56009F06DF905F25C70D7
:1045400009F090FDD5F8BC33102B03BF012385F88B
:10455000A8370020204670BD90F8A8371BB100F5A1
:104560006E700BF03BB84FF0FF30704700B500F5B0
:104570006E70ADF5017D0AF038FF034638B1064A8A
:104580004FF40071684608F06BFE002000E0012047
:104590000DF5017D5DF804FB05810E0010F01ABDDC
:1045A00070B500F28C7528460C46164611F013FDC6
:1045B00058B121463246284611F0F7FC044638B17E
:1045C000284611F007FD204670BD4FF0FF3070BD4A
:1045D000004870BD8097FFFF70B5044604F28C74EC
:1045E0000A200D46164611F0C5F9204611F0F3FCDD
:1045F00058B1204611F0DAFE28B13246294620464D
:1046000011F097FD18B9024870BD4FF0FF3070BD32
:104610000097FFFF002310B5044680F8A83700F28A
:10462000F44009F0F8F804F5C56009F0F4F804F274
:104630005C7009F017FD04F274400BF0EDF904F51D
:104640006E700BF04BF904F28C70BDE8104011F065
:1046500095BE10B590F8A83704468BB100F56E7082
:104660000AF034FF00280DDA10F5EE4F06D010F5F1
:10467000D24F07D02046FFF7CDFF01E0002010BD4C
:104680004FF0FF3010BD38B50446002300F28C70A7
:104690000D4611F077FD50B1294604F56E700AF011
:1046A00069FE30B92046BDE83840FFF72BBF4FF018
:1046B000FF3038BD6C22002112F06FBC10B16C21AC
:1046C00005F00EBF704708B56C2212F040FC08BD23
:1046D000002303604360A1B9184B8360184BC3608B
:1046E000184B0361184B4361184B8361184BC3612E
:1046F000184B036203F17453A3F52303A3F692430B
:1047000018E0154B8360154BC36003F1794303F543
:10471000740303F501630361114B4361114B836122
:1047200003F1D14303F5C01303F51E63C3610E4BC0
:1047300003620E4B436281660020704767E6096A98
:1047400085AE67BB72F36E3C3AF54FA57F520E51B2
:104750008C68059BABD9831FD89E05C107D57C36D5
:1047600039590EF7310BC0FFA78FF964A44FFABE79
:104770002DE9F04FCFB0031D05931A46002306AC78
:1047800052F8040F44F823000133082BF7D10846F0
:1047900000220EAC11F82250C37843EA0563457835
:1047A00043EA0543857843EA052344F82230013281
:1047B000102A00F10400EDD10D9B9F4C00930C9E3C
:1047C000099B089FDDF82CB0DDF81CE0DDF828809F
:1047D000DDF818900FAD04F1400A54F8040C55F8B8
:1047E000041C4FEAF82286EA0B0C82EAB812014454
:1047F00082EA78620CEA080C8CEA060C0A440099FA
:1048000062444FEA79304EEA090C0A440CEA070C7C
:104810000EEA090180EAB9004CEA010180EAB950C8
:10482000084413442968024420688BEA080C0144B8
:104830000CEA030C4FEAF3208CEA0B0C0E4480EADE
:10484000B31006EB0C0180EA73600E1806EB070C40
:1048500042EA09004FEA723702EA090187EAB20721
:1048600000EA0E0087EAB2570843384430446968CA
:10487000666883EA08070E4407EA0C074FEAFC2142
:1048800087EA0807B34481EABC110BEB070681EA0B
:104890007C6106EB010B4FEA703742EA000102EA45
:1048A000000687EAB00701EA090187EAB0573143F9
:1048B0003944AE68A7685944DE443E4483EA0C0B91
:1048C000B0440BEA0E0B4FEAFE268BEA030B86EA96
:1048D000BE16D84486EA7E6646444FEA713B40EAFB
:1048E000010800EA01078BEAB10B08EA02088BEA2B
:1048F000B15B48EA0708D844B044B144E768EE68C1
:104900008CEA0E0B37440BEA090B8BEA0C0B3B4489
:1049100003EB0B074FEAF92383EAB91383EA7963C0
:10492000FE18931900934FEA783741EA080301EA29
:10493000080287EAB807034087EAB85713433B44A5
:1049400033442A69266932449444009A8EEA09065F
:1049500016404FEAF22786EA0E0687EAB217B444F9
:1049600087EA72670CEB07024FEA733B48EA0307DA
:1049700086180F4008EA03008BEAB30B8BEAB35B9F
:1049800007435F44174460696A691044009A89EAE2
:10499000020C0CEA060C86448CEA090C0EEB0C00A7
:1049A0004FEAF62E8EEAB61E8EEA766E00EB0E0207
:1049B0004FEA773043EA070E01EB020B0EEA080ECE
:1049C00003EA070180EAB70080EAB7504EEA010E19
:1049D00086449644A169AA691144009A82EA0600B5
:1049E00000EA0B005040894409EB00014FEAFB2923
:1049F00089EABB1989EA7B6901EB09024FEA7E303B
:104A000047EA0E0980EABE0009EA030907EA0E0137
:104A100080EABE5049EA010920348144A24590440D
:104A2000914405F120057FF4D8AE0022DFF80CA0F8
:104A300004920EAC04E000BF1C810E0018810E0031
:104A4000A26B6068616A4FEAF24585EA724585EAC1
:104A500092250DF1380C049A5CF822204FEAB04CF4
:104A60000A448CEAF01C4FEAF8218CEAD00C81EA67
:104A7000B811154405EB0C0281EA786586EA0B0152
:104A800001EA0801039281EA0602A918DAF8402037
:104A90000A44039921640A4400990A44D3184EEA4F
:104AA00009054FEA793100933D400EEA090381EA96
:104AB000B90181EAB9512B430B441A44E36BA56851
:104AC0004FEAF34181EA734181EA9321A36A0344E7
:104AD00019444FEAB54383EAF51383EAD50C01EB99
:104AE0000C03DAF84400009963648BEA080C304444
:104AF0000CEA010C8CEA0B0CC1188C4400994FEAAB
:104B0000F12080EAB11080EA716000EB0C01C81955
:104B100001904FEA723C42EA090002EA09078CEA76
:104B2000B20C00EA0E008CEAB25C384360440844E0
:104B30000399E7684FEAF14686EA714686EA9126CC
:104B4000E16A4FEAB74C29440E448CEAF71C0099FD
:104B50008CEAD70C664481EA080C0199A6640CEA39
:104B6000010CDAF8481059448D198CEA080C0199A7
:104B7000AC44019D4FEAF12181EAB51181EA7561EA
:104B800001EB0C0542EA00014FEA703C05EB0E0B0D
:104B90008CEAB00C02EA000E01EA09018CEAB05C72
:104BA00041EA0E01614429444FEAF34585EA734521
:104BB00085EA9323256BD4F810C02F443B444FEA79
:104BC000BC4787EAFC1787EADC0E03EB0E079DE87B
:104BD00028005D4005EA0B055D40DAF84C30E764DB
:104BE0009844B84445444FEAFB2888EABB1888EA51
:104BF0007B6808EB050303EB090540EA01084FEA6F
:104C0000713E02958EEAB10E00EA010508EA02083B
:104C10008EEAB15E48EA0508F04498444FEAF64E41
:104C2000636B65698EEA764E8EEA96260CEB030E70
:104C3000019B764483EA0B0C4FEAB54E029B8EEA49
:104C4000F51E8EEAD5090CEA030C019B06EB090E52
:104C5000DAF85060D4F81890C4F850E08CEA030CED
:104C6000009B76441E44029BB444029E4FEAF32309
:104C700083EAB61383EA766303EB0C069319009379
:104C800041EA080301EA0802034013434FEAF742EE
:104C900082EA77424FEA783C82EA9727A26B8CEA55
:104CA000B80C8CEAB85C1544029A634433442F4430
:104CB0008BEA02064FEAB945009A85EAF91585EABA
:104CC000D9051640DAF854203D44019F65652A4411
:104CD0003A4486EA0B061644009A4FEAF22787EA1E
:104CE000B21787EA7267BA1986184FEA733080EAFA
:104CF000B30048EA030780EAB35C0F4008EA030008
:104D00000743674417444FEAFE4282EA7E4282EA42
:104D10009E2EE26BE06991440EEB09024FEAB04926
:104D200089EAF01989EAD0099144029AC4F85890A6
:104D30009646009A8EEA020CDAF858200CEA060C25
:104D40008CEA0E0C4A444FEAF62E5A448EEAB61EFE
:104D500062448EEA766E72444FEA773C43EA070E6D
:104D600001EB020B0EEA080E03EA07018CEAB70C0E
:104D70008CEAB75C4EEA010EE64496444FEAF542EF
:104D8000216A82EA754282EA9525039A4FEAB14C7C
:104D900010448CEAF11CDAF85C2005448CEAD1015D
:104DA0000D4402992A4402EB0109009AE56582EA62
:104DB000060101EA0B0151404FEAFB2282EABB12D5
:104DC000894482EA7B624A444FEA7E3047EA0E0910
:104DD00080EABE0009EA030907EA0E0180EABE5034
:104DE00049EA0109814490449144049A0832302AE6
:104DF00004920AF1200A04F120047FF421AE009A03
:104E000009930D92CDF82880CDF82CB00C96CDF8F2
:104E10001890CDF81CE008970023059A52F8041F5B
:104E2000059206AA52F8232001330A440599082B5B
:104E30000A60F2D100204FB0BDE8F08F2DE9F041BB
:104E400004460E46154682B3036803F03F00134440
:104E50009A42236082BF63680133636080B1C0F10E
:104E60004007BA421BD304F128083A46404412F0E6
:104E70006EF841462046FFF77BFCB8B93E44ED1B77
:104E80002F46E91B3F2F314405D92046FFF770FC20
:104E900060B9403FF5E747B13D460E460020283453
:104EA0002A463146204412F052F80020BDE8F08135
:104EB00070B50368044603F03F03581C2344802266
:104EC00038280D4683F8282004F1280604D8C0F1BC
:104ED0003802002130440EE0C0F14002002130448D
:104EE00012F05BF831462046FFF742FC002872D1F1
:104EF00001463822304612F050F8236861685A0F94
:104F000042EAC102110EDB0084F86010110C84F833
:104F1000611084F86320110A1A0E84F864201A0CB8
:104F200084F865201A0A84F8621084F8662084F8F0
:104F3000673031462046FFF71BFC00284BD1E37A4F
:104F40002B7063896B70A3681B0AAB70A368EB704E
:104F5000E37B2B71E3896B71E3681B0AAB71E36838
:104F6000EB71E37C2B72638A6B7223691B0AAB7251
:104F70002369EB72E37D2B73E38A6B7363691B0A0E
:104F8000AB736369EB73E37E2B74638B6B74A36900
:104F90001B0AAB74A369EB74E37F2B75E38B6B7512
:104FA000E3691B0AAB75E369EB7594F823302B7644
:104FB000638C6B76236A1B0AAB76236AEB76A36E4F
:104FC0004BB994F827302B77E38C6B77636A1B0A15
:104FD000AB77636AEB7770BDF0B59DB01C460646B3
:104FE00001A80F461546FFF765FB214601A8FFF70C
:104FF0006FFB044658B93A46314601A8FFF71EFF39
:10500000044620B9294601A8FFF752FF044601A82B
:10501000FFF754FB20461DB0F0BD03687F2AA3EBC9
:10502000010107D8002969DD591E016003F8012C30
:1050300001207047FF2A0DD801295FDD591E01604C
:1050400003F8012C03685A1E0260812203F8012C28
:1050500002207047B2F5803F13D202294EDD591E5F
:10506000016003F8012C0368120A591E016003F85D
:10507000012C03685A1E0260822203F8012C0320CF
:105080007047B2F1807F19D2032937DD591E0160C4
:1050900003F8012C0368591E0160110A03F8011C72
:1050A0000368120C591E016003F8012C03685A1E94
:1050B0000260832203F8012C0420704704291DDDBF
:1050C000591E016003F8012C0368591E0160110A82
:1050D00003F8011C0368591E0160110C03F8011C40
:1050E0000368120E591E016003F8012C03685A1E52
:1050F0000260842203F8012C052070476FF06B00DA
:1051000070470368591A0029C1BF03F1FF310160DC
:10511000012003F8012CD8BF6FF06B007047F8B581
:10512000054610460E4617460BF0FAF82968B142BC
:10513000044602D26FF06B00F8BD8B1B9842F9D881
:10514000091A0246296038460BF027F9F8B93B687E
:10515000012B0CD12B6893F90020002A07DA9A1B47
:10516000002AE7DD5A1E2A60013403F8010C2246AA
:1051700031462846FFF751FF002808DB044402228D
:1051800031462846FFF7BDFF0028A8BF0019F8BD2B
:105190002DE9FF410A9E1D46174633462A4604461E
:1051A000884603F025FF48B902908DE8600004F1BD
:1051B000280342463946204603F06CFD04B0BDE8A2
:1051C000F0810000F0B58FB0044605A817461E46D2
:1051D0000D4602F099FF00230293159B0193149B47
:1051E000009320463B46324605A903F053FD044692
:1051F00050B905A803F092FB28B905A928460AF082
:10520000C8FF044600E0034C05A802F0BAFF2046A0
:105210000FB0F0BD80B0FFFF10B5044602F082FF72
:1052200004F17C000AF035FF04F1880002F06CFF05
:1052300004F1AC0002F068FF04F1D0000AF029FF8D
:1052400004F1E00002F060FF04F5827002F05CFF00
:1052500004F594700AF01DFF0023C4F8DC3010BD83
:1052600010B50446F8B1E03002F08BFF04F582700F
:1052700002F087FF04F594700AF011FF204602F057
:1052800090FF04F17C000AF00AFF04F1880002F0AC
:1052900078FF04F1AC0002F074FF04F1D000BDE827
:1052A00010400AF0FCBE10BD73B516460A680446ED
:1052B000B21A0DF107000D4603F0F0FB78B99DF826
:1052C0000710204607F06AFB08B1064807E02B6884
:1052D0002A46F31A04F1AC01204603F0AFFB02B0FA
:1052E00070BD00BF80B1FFFF2DE9F7430F46816D10
:1052F000D0F8DC609046994604460A9B0B9AA9B107
:1053000000F18805009200F17C012A46FFF740FF7A
:1053100068B93B46324629462046CDF82C90CDF858
:10532000288003B0BDE8F04303F0A0BB014803B000
:10533000BDE8F08380B0FFFF2DE9F34116469846A3
:105340000F46089B099A044608B9144822E0816D6B
:105350000029FAD000F1D0050192009300F1AC02CF
:1053600000F17C032946FFF72DFF98B928460AF083
:10537000D7FF8045E9D3A26D12F0070318BF0123C0
:1053800003EBD202314628463A6002B0BDE8F04154
:105390000BF003B802B0BDE8F08100BF80B0FFFFA2
:1053A000054B53F8042C22B1083313F8101C81422A
:1053B000F7D11046704700BFEC910E0030B5084C95
:1053C00063685BB19D692D78854205D15D688D422A
:1053D00002D15D78954201D00834F1E7184630BD1E
:1053E000E4910E003822002111F0D7BD10B504461B
:1053F00058B1406B18B123689B695B699847204698
:105400003821BDE8104005F06BB810BD38B5054631
:105410000C4659B13822002111F0BFFDA3691B6968
:105420009847686320B12C60002038BD014838BD22
:10543000014838BD009FFFFF809EFFFF30B4046825
:10544000B4B12569AD0702D46568954210D1012B2E
:105450004260037203D06578033D022D02D8A36930
:105460009B6802E023B9A369DB68406B30BC184736
:10547000014830BC704700BF009FFFFF38B503688C
:105480000546A3B1102A10D81869C00703D4DC68F8
:10549000A24201D20BE014462CB1224605F12000B5
:1054A00011F055FD2C63002038BD024838BD02487C
:1054B00038BD00BF809FFFFF009FFFFF03681BB147
:1054C0000023C3611846704700487047009FFFFFE4
:1054D00070B414460268039E0AB91B4831E00022EA
:1054E000326005680DB16A6900E02A466D78012DC9
:1054F0000CD1944220D134600268926954680A4603
:10550000A44690F90810406B70BC6047062D06D188
:1055100034600A46406B214670BC06F0A2BC6AB1FA
:1055200099420DD1C369002BD7D1B4FBF2F102FB34
:105530001144002CD1D103E0044802E0044800E00B
:10554000044870BC704700BF009FFFFF809DFFFFB5
:10555000809CFFFF809FFFFF10B501680346A9B143
:105560000020106019684A78D41E042C11D9092A29
:105570000FD00978483901290BD9012A08D1DB69F4
:105580008342A0F5C54008BF002010BD014810BDF2
:10559000014810BD009FFFFF809FFFFFF0B585B061
:1055A00005461F460B9E0C9CFFF768FFB8B92B6899
:1055B000A3B1E861009433460A9A39462846FFF7BA
:1055C00087FF60B9216803AA31442846FFF7C4FF6A
:1055D00028B92268039B1344236000E0014805B00A
:1055E000F0BD00BF009FFFFF2DE9F0430768079D56
:1055F0007F78089EDDF828E0DDF82C90DDF830801B
:10560000DDF834C0062F1446099A12D1C9F80020DB
:105610000893CDF83480CDF830C0CDF82CE00A9650
:10562000099507940B46406B0121BDE8F04306F055
:1056300004BD0148BDE8F083809FFFFF30B50568D9
:105640006D7887B0062D0C460C9917D10E9D2960F8
:105650000D9D05950B9D0495109D03950F9D02953D
:105660000A9D8DE828001346406B224606F00AFD8D
:10567000044B10F1120F08BF184600E0024807B0B3
:1056800030BD00BF009DFFFF809FFFFF30B5036866
:10569000CD1A002D02DC6FF05F0030BD1C7814F0D5
:1056A000800F04D15C1C04601B78136036E004F0AA
:1056B0007F04013C032C38D8DFE804F002091320F2
:1056C000012DE8D05B7813600368023325E0022DDA
:1056D000E1DD5C789B7843EA0423136003680333BD
:1056E0001BE0032DD7DD9C785D78DB78240244EA4B
:1056F00005441C431460036804330EE0042DCADD26
:105700009C785D78240444EA05651C79DB782C4399
:1057100044EA032313600368053303600368C91A6E
:1057200013688B42B7D8002030BD6FF0630030BDE6
:1057300070B404680E1B002E07DD26789E4207D148
:105740000134046070BCFFF7A1BF6FF05F0001E09F
:105750006FF0610070BC704737B50123154601AA90
:105760000446FFF7E5FF70B9019B012B09D12368BF
:105770001B78003318BF01232B602368013323609B
:1057800001E06FF0630003B030BD37B5022315466A
:1057900001AA0446FFF7CCFFC8B9019B013B032BCC
:1057A00013D8236893F90030002B0EDB2860019B8F
:1057B0005A1E01925BB123682A681B7843EA0223D0
:1057C0002B60236801332360F1E76FF0630003B0BF
:1057D00030BD37B50223154601AA0446FFF7A8FFDE
:1057E00040B9019A216828460AF0A0FD2268019B71
:1057F0001344236003B030BD70B5032304460E4646
:105800001546FFF795FFD8B91368A3B1013B1360A4
:1058100023681B781371072B10D82368013323608A
:10582000936022682B6813449E4223600CBF0020C3
:105830006FF0650070BD6FF05F0070BD6FF06300CA
:1058400070BD38B5032304461546FFF771FF58B9FC
:1058500013685A1E012B2A6004D923685A1C22603F
:105860001B780BB16FF0670038BD2DE9F743154683
:10587000984601AA302304460F46FFF759FF064613
:1058800078BB2268019B13449F421DD06FF06506D0
:1058900027E023689F421AD91B782B604A4643466B
:1058A00039462046FFF744FFB8B92368AB60226849
:1058B0006B6813449F422360EBD91021012011F043
:1058C00029FAE86058B1054605F10409E1E700232B
:1058D000EB6023689F4204D0D8E7064601E06FF0F2
:1058E0006906304603B0BDE8F0832DE9F3419046E8
:1058F0001F4601AA302304460E46FFF719FF05464E
:1059000000283BD12368F61A002E35DD42461B786D
:1059100042F8043B019B26681E443146062320467C
:10592000FFF706FF054648BB2368C8F80830226821
:10593000D8F80430D1188E42216004D10C213846A9
:1059400004F0CEFD1AE0D35C3A46314642F8043BFF
:105950002368013323602046FFF798FE054668B9A7
:105960002368BB6022687B6813449E4223600CBF9F
:1059700005466FF0650501E06FF05F05284602B04F
:10598000BDE8F0811FB5002301930293039301AB9F
:10599000FFF7ABFF60B9019B052B00D033B9029B29
:1059A000002B0CBF00206FF0670001E06FF0670074
:1059B00005B05DF804FB0000002330B513600A2534
:1059C00089B103681B78303B092B0ED813686B43F1
:1059D000136003685C1C04601B781468303B23442C
:1059E00013600139ECE7084630BD014830BD00BF07
:1059F00000DCFFFF38B503681546CA1A002A0446C2
:105A000017DD1A7802F07F02022A14D15A1C0260B4
:105A10002A461B7842F8043BFFF738FE10B1A0F588
:105A20000A5038BD2368AB6022686B68134423605A
:105A300038BD024838BD024838BD00BF20DDFFFF39
:105A40001EDDFFFF08B5FFF79DFF08B1A0F50C5064
:105A500008BD08B5FFF749FF08B1A0F50C5008BD17
:105A60002DE9F0431D4604230B70137014232B60A3
:105A70000368302B8FB08846164640F0CA80836892
:105A8000446801931C44A34200F0C180A02302AAF1
:105A9000214601A8FFF74CFEA8B9029B019F1F44B5
:105AA00005AA394601A8FFF7CDFF002840F0B980CC
:105AB000414605A803F006FC002840F0A580019BA4
:105AC0009F4204D09EE010F1620F40F09D80019B48
:105AD0009C4200F09C80A12302AA214601A8FFF766
:105AE00027FE002850D1029B019F1F4405AA08AB46
:105AF000394601A8FFF7ADFF002840F09280069AD2
:105B0000092A40F088800799474811F011FA0028C7
:105B100040F08180089B302B7BD10A9B099A03932C
:105B200003EB0208434526D20DF138091B7849F8EA
:105B30000C3D0CAA0623414603A8FFF7F9FD0028F7
:105B40006BD1039A0C9B0D92134431464846039344
:105B500003F0B8FB002860D1039B984510D00523C3
:105B600004AA414603A8FFF7E3FD002855D1049B92
:105B7000002B52D101E02D4853E0039B984541D1C1
:105B8000019B9F4203D03DE010F1620F3CD1019B8D
:105B90009C423CD0A22302AA214601A8FFF7C8FDDF
:105BA00060B9029B019E1E442A46314601A8FFF7B8
:105BB000ECFD48BB019B9E4203D023E010F1620F35
:105BC00022D1019B9C4222D0A32302AA214601A8F4
:105BD000FFF7AEFD80B9029B019D1D440BAA29462B
:105BE00001A8FFF7D2FD78B9019B9D420AD10B9B1A
:105BF000012B04D00E4814E010F1620F04D1019B78
:105C00009C4204D00B480CE0A0F50C5009E00020A9
:105C100007E0094805E0094803E0A0F50C5000281A
:105C2000AED00FB0BDE8F08318820E00A0DCFFFFFD
:105C300000DDFFFF9ADCFFFF9EDCFFFF52DFFFFF6E
:105C40002DE9F743DFF8F48004460F4691463123EF
:105C50006A4639462046FFF76BFD10B1A0F50E509D
:105C600061E02668009B4D461E44302301AA314660
:105C70002046FFF75DFD68BB019A2368002A03EB0D
:105C8000020901DC29484EE02A461B7842F8043B11
:105C9000494606232046FFF74BFDD8B92368AB6081
:105CA000206869684318C3EB0902002A2360E9DD14
:105CB000425C1E2A1CD828FA02F2D20718D50133FA
:105CC0002360435CEB6005F1100249462046FFF774
:105CD000DDFC18B1A0F50E5070B124E023686B61B3
:105CE00022682B6913449945236003D1A86103E01E
:105CF0000F4818E00F4816E023689E4208D00120A4
:105D00002877202111F006F8A86158B10546ACE7C4
:105D1000B74208D02021012010F0FCFF8146A86185
:105D2000002894D1044803B0BDE8F08320DCFFFFD5
:105D30001EDCFFFF1ADCFFFF80D7FFFF0810585062
:105D4000F7B503681446CA1A002A054640F3A08036
:105D50001A78172A04D0182A40F09C80042700E003
:105D6000022701332B6001AA2846FFF78FFC10B1F0
:105D7000A0F5105091E0019E07F108039E42C0F08B
:105D80008B80224639462846FFF716FE002840F051
:105D90008480022F08D12368312BDCBF6433236059
:105DA000236803F26C732360221D02212846FFF74B
:105DB00003FE002871D104F1080202212846FFF7F2
:105DC000FBFD002869D104F10C0202212846FFF7EF
:105DD000F3FD002861D104F1100202212846FFF7EB
:105DE000EBFD002859D1F61BA6F10803012B53D96E
:105DF00004F1140202212846FFF7DEFD00284CD1F1
:105E0000A6F10A03012B07D12B681A785A2A43D12D
:105E100001332B60A6F10B03002B3DD1236842F226
:105E20000F72934238D8E268172A35D822693B2A84
:105E300032D862693B2A2FD861680C292CD80122FC
:105E40008A4041F2AA511140B9B912F4256F16D116
:105E5000510721D59A0705D1642193FBF1F201FB8B
:105E6000123272B94FF4C87193FBF1F201FB123395
:105E7000002B0CBF1D231C2304E01F2302E01E2364
:105E800000E01D23A268002A06DD9A4205DD03E03A
:105E9000034802E0034800E0034803B0F0BD00BF40
:105EA000A0DBFFFF9EDBFFFF00DCFFFF73B5036895
:105EB0001546CA1A002A044610DD01AA1E78FFF70B
:105EC000C0FC10B1A0F5125009E0019B6B602E6080
:105ED0002268AA6022681344236000E0014802B0EF
:105EE00070BD00BF20DBFFFF2DE9F041069F1D467E
:105EF0003B680E46904643BB2A46414603F084F970
:105F000010B1A0F5185425E02B78062B13D10821E9
:105F1000012010F0FFFE0546C8B1031D02464146B0
:105F20003046FFF79DFD044618B128460FF01EFAD3
:105F300010E03D600EE03368052B00D04BB973686C
:105F4000064C002B08BF002404E0054C02E0054C81
:105F500000E0024C2046BDE8F08100BF00DDFFFFFD
:105F600000D8FFFF80D7FFFF73B543F0A0041646AB
:105F7000234604320546FFF7DBFB60B934602B682B
:105F8000B36028687368C41801AA302321462846E4
:105F9000FFF7CEFB10B1A0F5145007E0019B286875
:105FA0001844034B844214BF1846002002B070BD51
:105FB0009ADAFFFF2DE9F047C2B04FF0000A0DF169
:105FC00008080F46914651464FF4807204464046F9
:105FD000CDF804A04E4610F0E0FF3D4652464FF08B
:105FE0003F0A002E57D0B368002B52D04E4511D037
:105FF0002B4B2C492046002A14BF0A461A46294634
:106000000FF0DCF9002801DA274845E08542FBD98A
:106010002D1A044401A9304603F09CF830B9019BC5
:10602000224A294620460FF0C9F904E0204A2946B1
:1060300020460FF0C3F90028E6DB8542E4D92D1A8B
:10604000044400233269934213D2FF2B11D07269AA
:10605000D25C1F2A06D97F2A04D002F17F01C9B27F
:106060001E2902D808F803A001E008F80320013334
:10607000E8E7002208F80320294643460D4A204657
:106080000FF09CF90028BFDB8542BDD9327F2D1A65
:106090000444B669A5E7781B42B0BDE8F08700BFAD
:1060A00026820E0022820E0080D6FFFF29820E007B
:1060B0002D820E00F9980E002DE9F74F5668DFF893
:1060C00084A0DFF884B0212E80460F46914628BF79
:1060D0001C260C460025B5421CD0D9F808301DB945
:1060E000012E01D01A789AB1721E954234BF5246E1
:1060F0005A465B5D009221460F4A40460FF05EF91A
:10610000002801DA0D4814E08442FBD9241A8044A7
:106110000135E0E7D9F804309D4209D0084A21460C
:1061200040460FF04BF90028ECDB8442EAD9241AF0
:10613000381B03B0BDE8F08F31820E0080D6FFFF20
:1061400038820E0052A80E00FD870E002DE9FF4791
:106150000C4604A998460023074641F8043D104622
:10616000DDF8349003F044F828B1234A214638463C
:106170000FF024F905E0039B204A214638460FF032
:106180001DF90028064601DA1D4832E08442FBD999
:10619000B8F1060FA4EB00052AD19DF8300006F0F7
:1061A00043F8804699F8000006F03EF88246B8F1C0
:1061B000000F04D0404606F072F9804601E0DFF897
:1061C0003880BAF1000F03D0504606F068F900E0BD
:1061D0000948D9F804300B4A8DE80900294643469E
:1061E000B8190FF0EBF80028CEDB8542CCD92D1A78
:1061F000601B04B0BDE8F0873D820E00F9980E00E8
:1062000080D6FFFF41820E0010B51346064A0C46A9
:106210000FF0D4F8002805DB044B844294BF1846E5
:10622000002010BD014810BD58820E0080D6FFFF2F
:10623000002070470020704703F0D0B803F0AFB8DB
:1062400010B5044603F0A6F82046BDE810400FF054
:106250008DB810B55C21012010F05CFD044608B13A
:1062600003F094F8204610BD04F0A6B804F06AB814
:1062700003F09AB8FEF77CBAFEF725BA10B50446CB
:10628000FEF71CFA2046BDE810400FF06FB810B5BD
:106290006C21012010F03EFD044608B1FEF70AFA19
:1062A000204610BD0123FEF797BE0023FEF794BEE3
:1062B000FEF7FEBDFEF7C2BD0121FEF709BA0021BF
:1062C000FEF706BA0CF04CBA0CF0A9B910B50446AA
:1062D0000CF0A0F92046BDE810400FF047B810B50B
:1062E000D821012010F016FD044608B10CF08EF9FB
:1062F000204610BD01230DF005BA00230DF002BAAF
:106300000DF0D0B80DF086B801210CF08DB9002148
:106310000CF08AB92DE9F04F95B004AE1E9D0193A3
:1063200007460C4691460021402230460DF15008A8
:1063300010F033FE0023286848F8443D06F0ACF81E
:1063400082467CB354452846A34628BFD34605F071
:10635000B9FF034638BB019A4946284605F0BCFF01
:10636000034600BB04224146284605F0B5FF03461C
:10637000C8B93146284605F0B9FF034698B93A46F0
:106380005B4507D012F8010BF15C414002F8011C9B
:106390000133F5E79DF80F2001321F448DF80F20DF
:1063A000E41ACEE7234630464021019304F098F8E2
:1063B000019B184615B0BDE8F08F00002DE9F347AA
:1063C0001D4600230E469146DDF828800093019378
:1063D000044628B305F028FF0646002863D020466F
:1063E0006A4601A902F088FF044600285BD13046C6
:1063F00006F052F8009F074407F108037F2B06467A
:1064000051D810F10A024ED207F10A039A424AD833
:106410009D4248D3A5F10A03DF1B0A2F06D842E0AC
:106420008D4240D36D1A0A2D3DD93EE0C246033F4E
:106430000AF8024B01233A4688F80130FF21504602
:1064400010F0ABFD0AEB070330210AF80740597042
:10645000009FD97007F1080232449A70FAB2111DF8
:1064600003F1070A1971062159719A7101993A4687
:10647000504610F06CFD05220AEB07030AF80720CE
:1064800004229F189A70DE705C7032464946384686
:1064900010F05DFD3E4408EB05039E4219D02946ED
:1064A000404604F01DF80D4C13E04346EF1E03F880
:1064B000020B012288F80120FF213A46184610F00D
:1064C0006CFD0346C455A81E32464946184410F0D8
:1064D0003EFD204602B0BDE8F08700BF80BFFFFF51
:1064E000F8B500F108054768044628460E4609F04D
:1064F00017FF874217D16368B3F5806F13D8002167
:1065000028460AF0F2F800280DDD0021284609F09F
:10651000BDFE40B1EEB104F12C05002128460AF081
:10652000E4F8002801DC1A48F8BD0021284609F0EB
:10653000ADFE0028F7D004F13805002128460AF006
:10654000D4F80028EFDD0021284609F09FFE00283E
:10655000E9D0002104F114000AF0C7F80028E2DDB8
:10656000A6B1002104F144000AF0BFF80028DADDEA
:10657000002104F150000AF0B8F80028D3DD002112
:1065800004F15C000AF0B1F80028CCDD0020F8BD71
:1065900080BFFFFF2DE9F843099F0B9E0D9D044628
:1065A000984649B100F10809484609F0BFFE50BBC2
:1065B000484609F0B5FE6060B8F1000F01D147B957
:1065C0000EE0089A414604F12C0009F0AFFED0B964
:1065D000F5E70A9A394604F1380009F0A7FE90B9A8
:1065E00036B10C9A314604F1200009F09FFE50B9F3
:1065F00035B10E9A294604F1140009F097FE10B93E
:106600000020BDE8F883A0F58140BDE8F8830000D4
:106610002DE9F04F00F1080B87B0074600215846DE
:106620000AF063F807F12C090021804648460AF079
:106630005CF807F1380A0590002150460AF055F839
:1066400007F1200300210546184602930AF04DF891
:1066500007F1140304900021184603930AF045F84B
:10666000059B049A4BB125B12AB1061C18BF01261F
:1066700013E02E4611E016460FE0B8F1000F03D1EB
:1066800044464646002224E0CDB91AB1F0B9064688
:1066900004460EE02E462C460DE0ADB192B9041C26
:1066A00018BF0124B8F1000FECD0002BEAD1002D67
:1066B000E8D1002AE6D10028E4D0012209E01C46F6
:1066C0001E46DFE70024EDE72C46DBE701262C46DB
:1066D00002E0002E3DD0002604940124B8F1000F02
:1066E0000BD153B14DB15246494658460AF01CF9F8
:1066F00028BB584609F014FE786046B1CDF800A0DA
:106700004B46029A039958460DF020F907E0049B86
:1067100033B1029B039A514648460DF013FA70B903
:1067200084B107F15C03019307F150030093029ACF
:1067300007F14403514648460DF0A8FB10B1A0F5FF
:1067400081400CE02146384607B0BDE8F04FFFF726
:10675000C7BE0CB912B126460494BFE7014807B082
:10676000BDE8F08F80BFFFFF70B504460E461546AA
:106770000021AC2210F011FCC4F8A460C4F8A850A9
:1067800070BD40687047000070B500210446FFF7F7
:10679000A7FE0546B8B904F10806304609F0A0FD89
:1067A0007F2810D914342946204609F06FFD50B1D6
:1067B000204609F095FD012805D93146204609F00B
:1067C0004FFF002800DB014D284670BD00BEFFFFD3
:1067D000F0B585B00446FFF7D7FF28BB012120465E
:1067E000FFF77EFE00BB04F1140304F12C0504F155
:1067F000380604F1200702900190009332463B4690
:10680000294604F108000DF07BFA68B904F15C0335
:10681000019304F1500300933A4604F144033146D6
:1068200028460DF0EDF900B1014805B0F0BD00BFFC
:1068300000BEFFFF38B505460C46FFF7A5FF50B96F
:106840002046FFF7C5FF30B904F1080105F1080043
:1068500009F006FF08B1054838BD04F1140105F13F
:10686000140009F0FDFE0028F5D138BD00BEFFFF81
:106870002DE9F0410C4686B0002105461746FFF78A
:106880002FFE064678BB03A809F003FC21466A6880
:1068900003A809F04BFD0446F0B905F108042146B0
:1068A00003A809F0DDFE002814DA05F1680303A946
:1068B000009305F1140223460846D5F804800AF037
:1068C000A1FA044640B94246394603A809F065FDDD
:1068D000044601E06FF0030403A809F0E0FB1CB1DB
:1068E000A4F5854600E0024E304606B0BDE8F081D2
:1068F00080BFFFFF2DE9F04F0E46A5B001210446F1
:1069000092461D46FFF7ECFD0390002840F09B8166
:1069100006A809F0BEFB09A809F0BBFB0CA809F00A
:10692000B8FB0FA809F0B5FB2EB118A809F0B1FB10
:106930001BA809F0AEFB12A809F0ABFB15A809F0E3
:10694000A8FB1EA809F0A5FB21A809F0A2FB62681C
:10695000294606A809F0EAFC0746002840F05081C5
:1069600004F10805294606A809F07AFE002880F2FD
:10697000438106A91EA809F00CFC0746002840F038
:106980003F8104F1500304F144090493002E00F008
:10699000C580D4F8A03023B304F18C0842464146A8
:1069A000404609F0C1FF0746002840F029812A46E9
:1069B000414640460AF0F4F90746002840F020819D
:1069C00004F1980842464146404609F0ADFF0746AB
:1069D000002840F015812A46414640460AF0E0F979
:1069E00037E00C23059304F1980B04F18C08059B08
:1069F000013B059300F02A81616853463246013914
:106A000058460AF0A3FC0746002840F0F9802A46C1
:106A1000594640460AF015FC0746002840F0F08031
:106A20000121404609F061FE0028E0D12A4659467E
:106A300040460AF0BFFC0746002840F0E18004F120
:106A40006803009304F114022B46414640460AF0C5
:106A5000D9F90746002840F0D38006A904F18C023A
:106A6000084609F061FF0746002840F0C98006A9E2
:106A70002A4608460AF094F90746002840F0C080EC
:106A8000012204F12C0109A809F038FF074600286B
:106A900040F0B680012204F138010CA809F02EFF65
:106AA0000746002840F0AC80534632461C210FA810
:106AB0000AF04CFC0746002840F0A2800FAA09A962
:106AC00018A809F031FF0746002840F0998018A95E
:106AD0004A46084609F0B9FE0746002840F0908073
:106AE000534632461C210FA80AF030FC0746002806
:106AF00040F086800FAA0CA91BA809F015FF0746D5
:106B000000287DD11BA9049A084609F09EFE07467D
:106B1000002875D11BAB04930DF1600904F17403D7
:106B200004F12C0800934A46434606A912A80AF02D
:106B300069F90746002863D104F1800304F138099C
:106B40000093049A4B4606A915A80AF05BF907467C
:106B5000002855D115AA12A906A809F097FE0746E4
:106B600000284DD104F15C0206A912A809F0DCFE50
:106B70000746002844D1424612A906A80AF010F997
:106B8000074600283CD14A4606A912A809F0CCFEC7
:106B90000746002834D112AA15A906A809F055FE07
:106BA000074668BB66B904F16803009304F1140258
:106BB0002B4606A921A80AF025F9074600BB0FE0DD
:106BC00006A904F19802084609F0AEFE0746B8B9D6
:106BD00006A92A4608460AF0E3F8074680B9E2E724
:106BE0001EA921A809F03CFD48B962682E9906A8A3
:106BF00009F0D3FB074603E06FF0030700E0164FF0
:106C000009A809F04CFA0CA809F049FA0FA809F0F4
:106C100046FA2EB118A809F042FA1BA809F03FFA6B
:106C200006A809F03CFA12A809F039FA15A809F0EB
:106C300036FA21A809F033FA1EA809F030FA3FB15C
:106C4000A7F5864300E0054B039301E0044FD7E727
:106C5000039825B0BDE8F08F80BCFFFF80BFFFFF29
:106C600080BBFFFF2DE9F04F8DB0012B80468B4696
:106C700005920693189F1A9E05D1D0F8A430012BD7
:106C800001D0414B7BE0BBF1000FFAD098F8A8008F
:106C900005F0CAFA03900028F3D0D8F8044005F0B4
:106CA000FBFB054600B243000493049ABB1C13444B
:106CB0009F42E6D89C42E4D322460021304610F0A1
:106CC0006CF906F10109002333702A4649460598FC
:106CD000D84710B1A0F5894351E009EB050A5346A6
:106CE000179A1699039805F00BFB0346002846D126
:106CF0000790A01E049B1999C01B2844C01A0122AA
:106D00000AF80020104450443A4609AF10F01FF929
:106D1000384605F095FA079B03991A46384605F060
:106D2000AFFA0346A8B905F1010A013CB244641B5D
:106D30002B4600974A4621465046FFF7EBFA03469A
:106D400038B923460097524629464846FFF7E2FAEB
:106D5000034609A8039305F078FA039B7BB9069BC9
:106D60002BB9324631464046FFF782FD06E00096D9
:106D70003346059A59464046FFF7BCFD0346184680
:106D80000DB0BDE8F08F00BF80BFFFFF2DE9F74FCA
:106D90009A46BAF1010F0D9BDDF83080009307464B
:106DA000894693460E9D04D1D0F8A4300BB12C48EF
:106DB00052E018F10B037C68F9D29C42F7D3033CF4
:106DC0000023C8EB04042B70BAF1000F19D1B9F1FC
:106DD000000FECD0AE1C02236B703444A6421AD0D4
:106DE00064230122314658460193C84732787ABB62
:106DF000019B013B02D1A0F589402DE00028F0D095
:106E0000F9E70122AB1C6A701C44FF229C4202D0AD
:106E100003F8012BFAE72046002300F8013B424625
:106E2000009910F094F8BAF1000F07D12A462946CC
:106E3000384603B0BDE8F04FFFF71ABD2B465A465F
:106E4000494638460C9503B0BDE8F04FFFF752BDF8
:106E50000028D0D10136C1E703B0BDE8F08F00BFF4
:106E600080BFFFFFF0B587B0D0F8A4700CAC70CC39
:106E700057B1012F10D10294002404960395019478
:106E80000094FFF7EFFE08E00E960D950C9407B006
:106E9000BDE8F040FFF77ABF014807B0F0BD00BF82
:106EA00000BFFFFF2DE9F04FADF2644D012B064608
:106EB0008A4603929B4605D1D0F8A430012B01D01D
:106EC0005C48B2E07768A7F11003B3F57C7FF7D890
:106ED00096F8A80005F0A8F902900028F0D005F077
:106EE000DBFA00F101084FEA4805AF420446E7D358
:106EF0000DF16009BBF1000F06D14A46DDF894148C
:106F00003046FFF7B5FC08E0CDF80090DDF894348A
:106F1000039A51463046FFF7EDFC824600283CD1EB
:106F200005AE304605F08CF952460299304605F020
:106F3000A7F9824608B130463BE007F1FF3BC84461
:106F4000C4EB0B0B00965B46424621460DF16100F7
:106F5000FFF7E0F9824658BB009623460DF1610227
:106F600059464046FFF7D6F9824608BB24E0885CC4
:106F700080F0010050EA0E0351D10132114418AAE9
:106F80008A1ADDF89C04BA1A82424BD8DDF89004C4
:106F90000260DDF898040FF0DAFF4FF4806118A862
:106FA00003F09EFA08A8402103F09AFA50463CE00C
:106FB00005A805F04AF9F0E7304608AE05F045F9B6
:106FC0003346DDF88C24DDF88814029805F098F932
:106FD00082460028E1D10DF1610399F800E019190A
:106FE0005046A04208D2325C11F800C082EA0C0C74
:106FF0004CEA0E0E0130F4E721447D1B00240E46BE
:107000000D442246B542B2D016F8010B044360424B
:107010002043C0F3C01080F001000244F2E7DFF823
:1070200018A0BAE7DFF814A0B7E70DF2644DBDE889
:10703000F08F00BF80BFFFFF00BFFFFF00BCFFFF5E
:107040002DE9F047012BADF5816D1F46456804D150
:10705000D0F8A430002B40F0BE80A5F11003B3F5AA
:107060007C7F00F2B88002AE4FB93246DDF82C14B6
:10707000FFF7FEFB0446002840F0A68025E00096BE
:10708000DDF82C34FFF736FC0446002840F09C80E5
:10709000012F32781AD1737883F00203134301462B
:1070A0000224375D7A423A43C2F3C01282F00102F1
:1070B0001043C0B242420243C2F3C012013482F014
:1070C0000102A5421144ECD11BE032787378002014
:1070D00083F00103134301460227F25D002A08BF33
:1070E00040F00100C0B24442D243E417D2B204F1EE
:1070F000010E013714406240BD42714443EA02036D
:10710000EBD1DDF83444A5F10B02A24228BF2246A0
:10711000A1F1080443EAD473444220430028B4BFD9
:10712000184643F0010043420343EF1EDB177F1A6A
:10713000002B18BF1746D11BC90FC1F1000E084321
:107140000EF48844002B18BF4FF482444342184386
:10715000C01764420DF11303C0431978014003F8CE
:10716000011B991B8D42F8D8A91ABEF1000F18BF58
:10717000174631443AB9DDF830040FF0E8FEDDF887
:1071800028341F6020E002F1FF38002501EB080CD5
:10719000EB1BDB17002080450CD911F800E001EB58
:1071A0000009013011F800A0002B08BFD64689F86D
:1071B00000E0F0E79CF8000001350340DBB2AA4292
:1071C0008CF80030E4D1D6E730464FF4806103F00C
:1071D00087F9204600E002480DF5816DBDE8F08793
:1071E00080BFFFFFF0B587B0D0F8A4E00CACF0CCC6
:1071F000BEF1000F0CD0BEF1010F12D10294002499
:1072000005970496039501940094FFF74BFE09E05F
:107210000F970E960D950C9407B0BDE8F040FFF760
:107220000FBF014807B0F0BD00BFFFFF2DE9F04FD1
:107230009FB0012B81468B46059206939DF8A000D6
:107240002B9D05D1D9F8A430012B01D05C48B4E0C6
:10725000BBF1000FFAD0D9F8044030B104F0E4FFDC
:107260000028F3D005F018F9299099F8A80004F047
:10727000DBFF07900028E9D005F00EF943009C429F
:107280008246E3D302339C423ABFA4F10208C0EB2A
:10729000080880462246002128460FF07EFE42461E
:1072A0000EA90598D84710B1A0F5894085E009F1ED
:1072B000080309901846039309F012F8CAEB040377
:1072C000C8EB0302561E2A4401212E4402F8021C78
:1072D000089042460EA90BAF304604930FF037FEDC
:1072E000384604F0ADFF099B07991A46384604F06A
:1072F000C7FF0246002849D1384604F0E3FF0246A2
:10730000002843D1464408223146384604F0E4FFC1
:10731000024600283AD1299A2A99384604F0DCFF1F
:10732000024698BB42460EA9384604F0D5FF0246F5
:1073300060BB3146384604F0D9FF024630BB089B9B
:107340000097013B13F0070F049B0CBF01200020A6
:10735000591E3246091A53462844FEF7DBFF0246FF
:10736000A0B90490039808F0BBFFC0EBC4002B78D1
:107370000130FF2444FA00F01840BC23287040215B
:1073800006F80A300EA803F0ABF8049A03920BA893
:1073900004F05BFF039A7AB9069B2BB92A4629466B
:1073A0004846FFF765FA08E000952B46059A5946CE
:1073B0004846FFF79FFA00E010461FB0BDE8F08F87
:1073C00080BFFFFF2DE9F347012B89460BA9054636
:1073D00092461C469DF8280086C903D1D5F8A430F2
:1073E000002B4BD100976B68FEF7E8FF002849D1CE
:1073F0003CB93A463946284602B0BDE8F047FFF7A7
:1074000037BA6C68012021460FF084FC0646B8B3F9
:10741000214601200FF07EFC804618B930460DF061
:10742000A5FF2DE000963B46524649462846FFF709
:1074300061FA0446D0B9424631462846FFF718FAA9
:10744000044698B96D6803460246AA4207D018F868
:107450000200B95C41400B43DBB20132F5E723B9CE
:10746000314638460FF073FD00E0084C30460DF011
:107470007DFF40460DF07AFF204603E0044801E01E
:107480006FF00F0002B0BDE8F08700BF00BDFFFF46
:1074900080BFFFFFF0B5D0F8A4E09DF8144006AD22
:1074A000E0CDBEF1000F0AD0BEF1010F0FD1089759
:1074B000079606950594BDE8F040FFF7B7BE08971C
:1074C000079606950594BDE8F040FFF77BBF01489D
:1074D000F0BD00BF00BFFFFF2DE9F04FADF2644DDE
:1074E000012B05469DF8888405D1D0F8A400012819
:1074F00001D06148BBE06F68A7F11000B0F57C7F58
:10750000F7D818AE33B93246DDF89C142846FFF799
:10751000AFF905E00096DDF89C342846FFF7EAF95C
:10752000002840F0A4807C1E335DBC2B40F09E8080
:10753000B8F1000F08D0404604F076FE0028D8D0FD
:1075400004F0AAFFCDF88C049DF8940404F06CFEBE
:1075500081460028CDD004F09FFF0023824605F12C
:1075600008000393049308F0BBFEFB0000F1FF3812
:107570003278C3F10803434452FA03F3B9D118F047
:10758000070F08BF27460AF102030CBF0DF1610582
:1075900035469F42ADD305AC204604F051FE002293
:1075A0004946204604F06CFE8346002859D16FEA14
:1075B0000A01394405EB0109009453464A4628461E
:1075C000FEF7A8FE834600284BD1C8EBC7073378E7
:1075D0004FF0FF0848FA07F71F40377009F1FF32F4
:1075E0009542294603D20B780135002BF8D00B7851
:1075F000012B34D1DDF898344D1C5A1CC5EB09061B
:1076000001D09E422BD1204604F05CFE834640BB55
:10761000082203A9204604F05FFE834608BBDDF87C
:107620008C24DDF89014204604F056FE8346C0B941
:1076300032462946204604F04FFE834688B908A901
:10764000204604F053FE834658B9524608A94846DE
:107650000FF06EFC094A002818BF934601E0DFF8DE
:1076600020B0204604F0F1FD584600E004480DF239
:10767000644DBDE8F08F00BF80BFFFFF80BCFFFFFF
:1076800000BFFFFF70B586B0D0F8A8409DF8285025
:107690000CB1E4B200E02C460D9E03940C9C0596C0
:1076A00002944FF0FF360B9C049601940095FFF76F
:1076B00013FF06B070BD00002DE9F74F012B804687
:1076C0008A4693469946456802D1D0F8A430EBB972
:1076D000294601200FF01EFB0646C8B129460120AD
:1076E0000FF018FB0746C0B96FF00F04304629466B
:1076F00002F0F6FE30460DF039FE67B138462946F5
:1077000002F0EEFE38460DF031FE04E01B4831E099
:107710006FF00F002EE020462CE000902B460E9AD2
:107720000D999DF83000FEF749FE04460028DDD192
:10773000B9F1000F05D132460F994046FFF798F88E
:1077400006E000960F9B5A4651464046FFF7D2F896
:1077500004460028CAD103469D4206D0F05CFA5C7C
:1077600050400443E4B20133F6E7002C044C08BF58
:107770000024BBE703B0BDE8F08F00BF80BFFFFF70
:1077800080BCFFFFF0B5D0F8A4E09DF8144006AD32
:10779000E0CDBEF1000F0AD0BEF1010F0FD1089766
:1077A000079606950594BDE8F040FFF76BBF089774
:1077B000079606950594BDE8F040FFF77DBF0148A8
:1077C000F0BD00BF00BFFFFF10B50446A0B38C3072
:1077D00008F065FC04F1980008F061FC04F1680011
:1077E00008F05DFC04F1200008F059FC04F13800B9
:1077F00008F055FC04F12C0008F051FC04F11400D1
:1078000008F04DFC04F1080008F049FC04F1800088
:1078100008F045FC04F1740008F041FC04F15C0040
:1078200008F03DFC04F1500008F039FC04F144007C
:10783000BDE8104008F033BC10BD036B2BB1C36B27
:10784000002B0CBF02200120704718467047000033
:1078500038B54B6E04460D462BB90A1DBDE83840BD
:10786000014609F09DBA0368002B07DB204608F0AB
:1078700037FDAB6DB0EB430F22D804E0002108F0D8
:1078800034FFE8B9F2E76B6E2046984708BB043531
:107890002368002B04DA0021204608F026FF88B96F
:1078A0002946204608F0DCFE002807DB2A46214650
:1078B000204608F08AFF0028F2D038BD002038BDED
:1078C000044838BD2A462146204608F0BEFF00285D
:1078D000DED038BD80B0FFFF2DE9F04F8DB00646F9
:1078E00003AD68468946904608F0D3FB284608F069
:1078F000D0FB06A808F0CDFB09A808F0CAFBB369C5
:10790000002B3FD108F118021146284609F00CF867
:107910000446002840F0058231462846FFF798FFCC
:107920000446002840F0FD812A46414606A808F09A
:107930008CFF0446002840F0F481371D394606A824
:1079400008F08EFE002808DB06A93A46084608F033
:107950003CFF04460028F1D0E3E12A46414609A84D
:1079600008F094FF0446002840F0DB81099B002BBF
:1079700080F22081002109A808F0B7FE002840F01D
:10798000408117E142464146284608F0CDFF0446B3
:10799000002840F0C68131462846FFF759FF0446CB
:1079A000002840F0BE8103222946684609F02BF8E2
:1079B0000446002840F0B581371D3946684608F076
:1079C0004FFE002808DB3A466946684608F0FDFE8F
:1079D00004460028F1D0A4E106F1100A0021504627
:1079E00008F083FE002848D008F118021146284606
:1079F00008F09AFF0446002840F09381314628465B
:107A0000FFF726FF0446002840F08B812A462946CE
:107A100006A808F089FF0446002840F0828131461C
:107A200006A8FFF715FF0446002840F07A81524669
:107A300006A9284608F078FF0446002840F0718126
:107A400031462846FFF704FF0446002840F06981CC
:107A50002A466946684608F0F8FE0446002840F0C9
:107A600060813946684608F0FBFD002805DB3A4690
:107A70006946684608F0A9FEEFE708F10C0B5A4684
:107A8000594606A808F050FF0446002840F04981F6
:107A9000314606A8FFF7DCFE0446002840F041818D
:107AA000012106A808F0AEFC0446002840F0398108
:107AB000371D394606A808F0D3FD002808DB06A9C3
:107AC0003A46084608F081FE04460028F1D028E135
:107AD00006AA4146284608F027FF0446002840F041
:107AE000208131462846FFF7B3FE0446002840F0C7
:107AF00018810121284608F085FC0446002840F042
:107B000010813946284608F0ABFD002805DB3A46CF
:107B10002946284608F059FEEFE706AA114609A8AB
:107B200008F002FF0446002840F0FB80314609A817
:107B3000FFF78EFE0446002840F0F380012109A8DB
:107B400008F060FC0446002840F0EB80394609A8A4
:107B500008F086FD002805DB09A93A46084608F02A
:107B600034FEEFE76A46694606A808F0DDFE0446E3
:107B7000002840F0D680314606A8FFF769FE04468B
:107B8000002840F0CE8006A92A46084608F07EFE6E
:107B90000446002840F0C580069B002B37DA002100
:107BA00006A808F0A2FD90B306A93A46084608F0D8
:107BB0004CFEEDE709AA06A9284608F0B5FE0446E2
:107BC000002840F0AE8031462846FFF741FE0446CB
:107BD000002840F0A68003222946684608F013FFDB
:107BE0000446002840F09D803946684608F038FD7C
:107BF0000028FFF642AF3A466946684608F0E5FDC0
:107C0000EEE709A93A46084608F01FFEAAE606A9CB
:107C10002A46084608F03AFE0446002840F08180D3
:107C2000069B002B04DA002106A808F05EFD28B9A7
:107C300006AA2946284608F029FE12E006A93A4677
:107C4000084608F002FEE7E7039B002B0DDA00214F
:107C5000284608F04AFD40B13A462946284608F031
:107C6000F4FD04460028EFD05BE06A46294628462A
:107C700008F05AFE0446002853D131462846FFF743
:107C8000E7FD044600284CD109AA2946284608F0F9
:107C9000FDFD0446002844D1AA46039B002B04DACC
:107CA0000021504608F021FD98BB08F11802594602
:107CB00009A808F039FE044698BB314609A8FFF729
:107CC000C7FD044668BB012109A808F09BFB0446D8
:107CD00038BB394609A808F0C3FC002805DB09A910
:107CE0003A46084608F071FDF1E706A9484608F053
:107CF00050FA0446A8B903A909F10C0008F049FAA2
:107D0000044670B909A909F1180008F042FA0446BE
:107D100007E03A465146504608F097FD04460028D1
:107D2000BBD0684608F0BBF9284608F0B8F906A8A9
:107D300008F0B5F909A808F0B2F920460DB0BDE881
:107D4000F08FF0B501F1180787B006460D463846AA
:107D5000002108F0CAFC00284DD0684608F099F9C7
:107D600003A808F096F9321D3946684609F022FB4F
:107D70000446C8BB6A46694603A808F0D5FD044618
:107D800090BB314603A8FFF763FD044660BB03AA1E
:107D90002946284608F0C8FD044628BB3146284637
:107DA000FFF756FD0446F8B90C3503AA29462846C4
:107DB00008F0BAFD0446B8B931462846FFF748FD39
:107DC000044688B96A462946284608F0ADFD0446AF
:107DD00050B931462846FFF73BFD044620B9012142
:107DE000384608F037FA0446684608F058F903A800
:107DF00008F055F9204607B0F0BD00002DE9F04726
:107E0000012A8AB007460D46914603D80968FFF754
:107E100098FFF1E00C2110460EF07CFF8046002810
:107E200000F0E98000240C2606FB0480013408F0F1
:107E300030F9A145F8D101A808F02BF904A808F001
:107E400028F907A808F025F929684046183108F0F4
:107E5000A0F90446002840F0B78008F10C064FF066
:107E6000010A55F82A20A6F10C011832304608F014
:107E70005BFD0446002840F0A78039463046FFF7F6
:107E8000E7FC0446002840F09F800AF1010AD14532
:107E900006F10C06E5D10C2606FB09F6A6F10C014D
:107EA0003A1D414401A809F085FA0446002840F033
:107EB0008B80183E09F1FF3A05EB89054644BAF17B
:107EC000000F0ED101A904A808F063F904460028A8
:107ED0007AD104AA114607A808F026FD0446F0B19D
:107EE00072E0324601A904A808F01EFD04460028ED
:107EF0006AD1394604A8FFF7ABFC0446002863D1D9
:107F000055F8042C01A91832084608F00DFD044666
:107F1000002859D1394601A8FFF79AFCD6E739461F
:107F200007A8FFF795FC044600284DD155F8041C1E
:107F300007AA084608F0F8FC0446002844D1394650
:107F400055F8040CFFF784FC044600283CD155F892
:107F5000041C0C3107AA084608F0E6FC044698BB4E
:107F600055F8040C39460C30FFF772FC044658BB38
:107F700055F8041C0C3104AA084608F0D5FC044648
:107F800010BB55F8040C39460C30FFF761FC044671
:107F9000D0B9B96855F8040C08F0BDF8044698B992
:107FA00055F8040CB9680C3008F0B5F8044658B917
:107FB00055F8040D183008F072F80C3EBAF1000FB5
:107FC00002D00AF1FF3A7AE701A808F068F804A89D
:107FD00008F065F807A808F062F800250C2606FBF3
:107FE0000580013508F05BF8A945F8D140460DF051
:107FF000BDF9204600E002480AB0BDE8F08700BFA6
:1080000080B2FFFF7FB50C4605460C3401A816462A
:1080100008F03FF8291D224601A808F037FC054664
:1080200068B90146204608F060FB01A900280CBF92
:10803000002206F00102204608F0D7F8054601A804
:1080400008F02DF8284604B070BD2DE9F74F9DF8D3
:10805000307080460E469B46C7F3450A02F10C0479
:10806000002501F10C095D4517D0EBB2CAEB030204
:10807000534253411A46A4F10C013046019308F0D3
:10808000B4F890B9019B21461A46484608F0ADF86D
:10809000013524340028E6D007E0FA09314640468D
:1080A00003B0BDE8F04FFFF7ADBF03B0BDE8F08F00
:1080B000054B196829B9054A032010705170012237
:1080C0001A600248704700BF68C203206CC20320D8
:1080D000054B1A781AB1824203D00C33F9E71046E7
:1080E00070471846704700BF60830E00054B1A7832
:1080F00022B15A88824203D00C33F8E71046704709
:108100001846704760830E0010B5044607F0C1FFA3
:1081100004F10C0007F0BDFF04F11800BDE81040A9
:1081200007F0B7BF38B50025044600F8045B07F038
:10813000B0FF04F1100007F0ACFF04F11C0007F0E1
:10814000A8FF04F12800FFF7DFFF04F14C0007F05F
:10815000A0FFA565E56525666566A566E5662567F4
:108160006567A56738BD10B50446FFF7DBFF04F16E
:108170007C0007F08EFF04F18800BDE81040FFF797
:10818000C3BF10B5044658B107F089FF04F10C00D5
:1081900007F085FF04F11800BDE8104007F07FBF2D
:1081A00010BD70B5044658B3036E012B12D00430D5
:1081B00007F075FF04F1100007F071FF04F11C00D7
:1081C00007F06DFF04F12800FFF7DBFF04F14C001E
:1081D00007F065FF636F6BB100252426A36F606F06
:1081E0009D4205D206FB0500FFF7CBFF0135F5E701
:1081F0000DF0BCF820467C21BDE8704002F070B95B
:1082000070BD10B5044658B1FFF7CBFF04F17C00F8
:1082100007F045FF04F18800BDE81040FFF7B1BF4B
:1082200010BD38B504460D4607F0B3FF70B905F12F
:108230000C0104F10C0007F0ACFF38B905F118018E
:1082400004F11800BDE8384007F0A3BF38BD097835
:1082500004F0A4BB10B50121044607F0FBFF60B990
:10826000012104F10C0007F0F5FF30B9014604F1DB
:108270001800BDE8104007F0EDBF10BD2DE9F04734
:1082800002F1180996B005460E4648460021904670
:108290001F4608F02AFA08B9394608E03B6A53B18C
:1082A000002107F1180008F020FA20B941463046B5
:1082B000FFF7B7FFBDE13B6A3BB1012107F11800B1
:1082C00008F013FA002840F0958001A807F0E1FEBD
:1082D00004A807F0DEFE07A807F0DBFE0AA807F0F7
:1082E000D8FE0DA807F0D5FE10A807F0D2FE13A8FF
:1082F00007F0CFFE4A46494601A808F015FB0446A0
:10830000002860D1294601A8FFF7A2FA04460028F8
:1083100059D14A4601A904A808F006FB04460028E2
:1083200051D1294604A8FFF793FA044600284AD100
:1083300001A93A46084608F0F7FA0446002842D157
:10834000294601A8FFF784FA044600283BD104A976
:1083500007F10C02084608F0E7FA0446002832D17B
:10836000294604A8FFF774FA044660BB01A94246F7
:10837000084608F08BFA044628BB2F1D019B002BF2
:1083800005DA002101A808F0B0F9002834D104A9C9
:1083900008F10C0A5246084608F078FA044690B9EB
:1083A0002F1D049B002B30DB002101A808F09DF954
:1083B0000146002838D001AA494613A808F0B4FAAB
:1083C000044600283ED001A807F069FE04A807F083
:1083D00066FE07A807F063FE0AA807F060FE0DA876
:1083E00007F05DFE10A807F05AFE13A807F057FE2D
:1083F00020461EE190481CE101A93A46084608F0D3
:1084000024FA04460028B9D0DDE7002104A808F0CA
:108410006CF90028C8D004A93A46084608F015FAB5
:1084200004460028BDD0CEE704A808F05EF928B9BC
:10843000424631462846FFF74FFACEE03046FFF776
:1084400009FFCAE0294613A8FFF702FA04460028EC
:10845000B9D101AA114607A808F066FA0446002817
:10846000B1D1294607A8FFF7F3F904460028AAD19D
:1084700001AA07A90AA808F057FA04460028A2D1C1
:1084800029460AA8FFF7E4F9044600289BD107A96A
:108490004246084608F048FA0446002893D1294687
:1084A00007A8FFF7D5F9044600288CD1022207A9B6
:1084B00001A808F0A8FA0446002884D12F1D3946E7
:1084C00001A808F0CDF8002808DB01A93A460846C3
:1084D00008F07BF904460028F1D074E704AA11469D
:1084E0000DA808F021FA044600287FF46CAF294655
:1084F0000DA8FFF7ADF9044600287FF464AF0DA97D
:1085000001AA084608F0C2F9044600287FF45BAFD0
:108510000D9B002B05DA00210DA808F0E6F80028D5
:108520005DD10DA90AAA084608F0B0F90446002852
:108530007FF449AF0D9B002B57DB07A90DAA084616
:1085400008F0A4F9044600287FF43DAF079B002BF8
:1085500057DB07A904AA084608F0E6F904460028F4
:108560007FF431AF294607A8FFF772F904460028C7
:108570007FF429AF0AA95246084608F0D5F9044607
:1085800000287FF420AF29460AA8FFF761F90446C6
:1085900000287FF418AF0AAA07A910A808F076F9F6
:1085A000044600287FF40FAF109B002B35DB0DA98C
:1085B000304607F0EEFD044600287FF404AF10A912
:1085C00006F10C0007F0E5FD044600287FF4FBAE41
:1085D00013A906F1180007F0DCFD0446F3E60DA927
:1085E0003A46084608F031F98EE700210DA808F058
:1085F0007CF80028A1D00DA93A46084608F025F9D4
:1086000094E7002107A808F070F80028A1D007A976
:108610003A46084608F019F994E7002110A808F036
:1086200064F80028C3D010A93A46084608F00DF9AE
:10863000B6E716B0BDE8F08780B0FFFF2DE9F04F38
:10864000D9B00DF1280B0546029358469DF88831A4
:1086500003930E4617469DF88CA105F14C0907F0CF
:1086600018FD0DA807F015FD0021484607F00EFE85
:10867000012878D10021384607F008FE3946B0FAC3
:1086800080F8584607F085FD4FEA58180446002840
:108690005FD13A4649460DA808F0F8F8044600288C
:1086A00057D142460DA9584607F09FFD04460028C1
:1086B0004FD1649B0DF158095A1C014648460EF0F3
:1086C0006CFC27465B46649ABA421AD04FF0000B06
:1086D0003A46DA4513D9114618460592049307F035
:1086E000D5FD17F80910649B059A00FA0BF00843B2
:1086F0001A4407F809000BF1010B049BE9E7013765
:10870000E1E716AB4FF000094FF0010C649A6245A7
:1087100003F101031DD3197813F8017C81EA0900E4
:1087200000F0010E8EF0010E17FB0EF240B252B2B5
:1087300000EA020A01EA09014AEA0109424047EA5D
:10874000CE175FFA89F91A7003F8017C0CF1010C5D
:10875000DCE70DA807F0A3FC0AA807F0A0FC002C9A
:1087600040F0D38001E06B4CCFE00DA8FFF7CCFCCC
:10877000649A16AB31469B5C0093029A039B284691
:10878000FFF763FC0446002840F0AF8006F11809AB
:108790000121484607F05EFD0446002840F0A58010
:1087A000659B43B9649A58AB9F186FF484731F4458
:1087B0000DF1570993E0AB6D07AF0733DB0838467F
:1087C000049307F066FC0AA807F063FC4FF00C0A5C
:1087D00005F1040B669B659A0499384608F0B6FDCE
:1087E0000346002856D15946384607F039FF00287D
:1087F00004DB0121384607F054FEF1E7BAF1010A23
:1088000054D00121384607F070FF0028E2DD3A46D7
:108810004946484608F088F8034600283AD12946D8
:108820004846FFF715F80346A0BB3A4639460AA862
:1088300008F07AF8034668BB29460AA8FFF708F84B
:10884000034638BB0AAA3146304608F06DF80346A5
:1088500000BB29463046FEF7FBFF0346D0B90AA904
:108860003A46084608F060F8034698B929460AA82F
:10887000FEF7EEFF034668B906F10C090AAA49465D
:10888000484608F051F8034620B929464846FEF705
:10889000DFFF03463846049307F001FC0AA807F0FF
:1088A000FEFB049B002B3FF47DAF1BE01A4B19E04D
:1088B000324631462846FFF70FF8A8B917F80139B4
:1088C0000093029A039B0DA92846FFF7BEFB58B9F7
:1088D0000DAB324631462846FFF7D0FC20B94F4554
:1088E000E6D102E01C4600E004460DA8FFF749FC73
:1088F0005CB9424631462846FFF784FB044620B95E
:1089000031462846FFF71DFA0446204659B0BDE817
:10891000F08F00BF80B0FFFF00B3FFFF08B500215C
:10892000183007F0E2FEB0FA80F0400908BD000000
:108930002DE9F8430E460546002106F11800914640
:108940009846089C099F07F0D0FE48B917B91F4800
:10895000BDE8F88301232070C8F80030BDE8F88333
:10896000281D07F0DDFC0546B9F1000F14D14200C7
:1089700001329742C8F80020E9D321460423024679
:1089800001F8013B304607F008FDE8B9691C2A46AA
:10899000214406F10C0012E0B9F1010F13D1431C80
:1089A0009F42C8F80030D2D3002106F10C0007F036
:1089B0006DFC2146023001F8010B2A463046BDE825
:1089C000F84307F0EABC0020BDE8F88300B1FFFFE0
:1089D000F8B50C4615461F460BB91648F8BD137876
:1089E00033B9012FF9D10846BDE8F840FFF732BC92
:1089F000043007F095FC2B78042B064618D1420072
:108A000001329742E9D10246691C204607F08EFCEC
:108A100078B9711C3246294404F10C0007F086FC39
:108A200038B904F118000121BDE8F84007F012BC84
:108A30000148F8BD80B0FFFF80B1FFFF012B30B4CB
:108A400015460DD91468621C2A60247844B1013B94
:108A50009C4205D813192B60234630BCFFF7B8BFE2
:108A6000014830BC704700BF80B0FFFF73B5079C62
:108A7000069E1D4664B1013C0194741C0094FFF7EE
:108A800057FF30B92B6833702B6801332B6000E03F
:108A9000014802B070BD00BF80B0FFFF022A10B5D0
:108AA000044601D80C4810BD0B685A1C0A601A789D
:108AB000032AF7D19A1C0A60DA1C58780A609B785E
:108AC00043EA0020FFF712FB18B10378237000205F
:108AD00010BD024810BD00BF80B0FFFF80B1FFFF96
:108AE000F0B50F4687B00546012107F1180007F0E1
:108AF000FCFD064610BB2846FEF79FFE01281BD151
:108B00003146384607F0F1FD002817DB07F10C0469
:108B10003146204607F0E9FD00280FDB2E1D3146C7
:108B2000384607F09DFD002808DA3146204607F058
:108B300097FD002802DA03E0454886E0454884E0D6
:108B4000684607F0A6FA03A807F0A3FA22462146D2
:108B5000684607F0E9FE044600284DD129466846DC
:108B6000FEF776FE0446002846D13A46394603A869
:108B700007F0DAFE044600283ED1294603A8FEF796
:108B800067FE0446002837D1AB69A3B903A90322C5
:108B9000084607F0B3FE044670BB039B002B1EDAA9
:108BA000002103A807F0A1FDC8B103A93246084679
:108BB00007F04BFEEFE703A905F11002084607F0A6
:108BC00044FE0446C0B9314603A807F049FD002819
:108BD00005DB03A93246084607F0F7FDF1E703A9D4
:108BE0003A46084607F0A0FE044628B9294603A8DD
:108BF000FEF72EFE044638B1684607F050FA03A887
:108C000007F04DFA204620E003A905F11C020846B2
:108C100007F01BFE04460028EED1314603A807F0FA
:108C20001FFD002808DB03A93246084607F0CDFDEA
:108C30000028F2D00446DFE703A9684607F010FDDC
:108C40000028044C08BF0024D6E707B0F0BD00BFE1
:108C500080B0FFFF80B3FFFF38B50C460546FEF736
:108C6000ECFD012801460DD1204607F03EFD00280D
:108C70000ADB05F14C01204607F0F2FC002803DA7C
:108C8000002038BD014838BD014838BD80B0FFFF25
:108C900080B3FFFF2DE9F04FAFB005460A911146B2
:108CA0000B921E46FFF7D8FF8346002840F0138141
:108CB00031462846FFF714FF8346002840F00B8119
:108CC0002846FEF7BAFD012840F0848005F1340102
:108CD00006F10C0007F0C4FC48B905F12801304644
:108CE00007F0BEFCB0FA80F94FEA591900E0D94606
:108CF000EB6DB3F5C07F2CBF05270427B9F1000F3A
:108D000000D00137BB4298BF022707F1FF3801228C
:108D100002FA08F207929DF81C200892013B3B449E
:108D2000B3FBF7F30993B9F1000F01D06C6F24BBCB
:108D3000242107980DF0EEFF044600282ED04FF0B6
:108D4000000A4FF0240B0BFB0A40FFF7DDF90AF194
:108D5000010A089A5FFA8AF39A42F4D83DE0079B29
:108D60000FA95A1E2846FFF749F88346C0B9B9F142
:108D7000000F02D0079B6C67AB67399B0493389B4D
:108D80000393099B0293089B0093019723460B9A38
:108D90000A992846FFF752FC834601E0DFF840B10C
:108DA0006A6FA2420ED06CB10025242606FB054056
:108DB000FFF7E7F90135089BEAB29342F6D820465F
:108DC0000CF0D4FABBF1000F00F085800A98FFF791
:108DD000D8F980E0DFF80CB17DE031462046FFF79E
:108DE00020FA83460028DBD1099B03FB08F30C9390
:108DF000D84624260C9B434523D00122099BB8FB6F
:108E0000F3F302FA03F1099A5FFA81FA02FB138382
:108E100006FB0A4A53B1524651462846FEF75CFD0E
:108E200083460028BCD108F10108E3E7C1F34601FD
:108E300006FB01415046FFF7F4F983460028EAD0CB
:108E4000AEE70022012303EBC3000FA904EB80006F
:108E500041F822005B000898DBB2984202F101025F
:108E6000F1D82846FEF7CAFF8346002898D101268C
:108E700006EBC60304EB83036FF023020D93482334
:108E800013FB062A13467343A2440C93B0460C9A74
:108E90000D9B524451462846FFF7F0F908F1FF3880
:108EA000AAF1240A834600287FF47AAFB8F1000FB4
:108EB000EDD17600089BF6B2B342D9D80EAB24218F
:108EC000079A08F1010842453FF449AF01FB084207
:108ED00043F8042FF4E758462FB0BDE8F08F00BFE9
:108EE00080B2FFFF80B0FFFF1FB500240294079CF3
:108EF0000194069C0094FFF7CDFE04B010BD2DE94F
:108F0000FF4107460C461046012115461E46DDF876
:108F1000288007F0EAFB30B93146204604B0BDE8AE
:108F2000F041FFF77EB94FF0FF31284607F0DDFB37
:108F300098B931462046FFF774F90546C8B90C3494
:108F40000146204607F0D1FB98B12246391D204644
:108F500004B0BDE8F04107F099BC002301930093F1
:108F60002A46CDF80880334621463846FFF792FE60
:108F70000546284604B0BDE8F08100002DE9F04127
:108F80008CB005460E4614469846FEF756FC01285E
:108F9000149F26D103A8FFF7B7F82246009743464F
:108FA00003A92846FFF7ABFF0446A8B90097139B17
:108FB000129A31462846FFF7A2FF044660B93346AD
:108FC00003AA31462846FFF759F9044620B931462D
:108FD0002846FEF7B6FE044603A8FFF7D2F820465F
:108FE00000E002480CB0BDE8F08100BF80B1FFFF97
:108FF0002DE9F74F0746C46D0D4692469B46FEF796
:109000001CFC073401284FEAD40424D107F14C0397
:109010004FEAC4091F2601935B4652462146284663
:1090200008F094F98046D8B9F96D2846C1EB0901DA
:1090300007F037FA804698B9013E0FD00121284643
:1090400007F053FB0028E7DB0199284607F008FBEF
:109050000028E1DA04E0DFF8108001E0DFF80C809E
:10906000404603B0BDE8F08F80B0FFFF00B3FFFFC4
:109070002DE9F0410378AAB005460C46002B49D0F3
:109080000A789A4246D101F188063146883007F0C5
:10909000E7FA00283ED104F19407394605F194001F
:1090A00007F0DEFA002835D104F1A00805F1A00090
:1090B000414607F0D5FA054660BB02A8FFF724F841
:1090C0000BA8FFF72FF821460BA8FFF7C0F804F113
:1090D000280304F17C020195009502A90BA8FFF773
:1090E00003FF044670B9314602A807F0B9FA98B9EF
:1090F000394605A807F0B4FA70B9414608A807F048
:10910000AFFA48B902A8FFF73CF80BA8FFF749F8F7
:10911000204603E0034801E0024CF3E72AB0BDE833
:10912000F08100BF80B0FFFF38B5054660B1084C44
:10913000206858B162686B689A4203D1A9680DF043
:10914000F7FE10B11434F3E738BD204638BD00BF38
:10915000948F0E0070B50E46054660B1094C20682C
:1091600048B162686B689A4203D1A9680DF0E0FECD
:1091700020B11434F3E76FF02D0070BD2369336024
:1091800070BD00BF78830E0070B50E46054660B115
:10919000094C206848B162686B689A4203D1A9689B
:1091A0000DF0C6FE20B11434F3E76FF02D0070BD52
:1091B0002369336070BD00BF10910E0070B50E467C
:1091C000054660B1094C206848B162686B689A42F4
:1091D00003D1A9680DF0ACFE20B11034F3E76FF0B5
:1091E0002D0070BDE368336070BD00BF08850E00C0
:1091F00010B50C46FFF798FF18B1C3682360002034
:1092000010BD6FF02D0010BD38B50D461446FFF7A8
:109210008BFF28B1037C2B70437C2370002038BD6A
:109220006FF02D0038BD000070B50E46054660B1E8
:10923000094C206848B162686B689A4203D1A968FA
:109240000DF076FE20B11434F3E76FF02D0070BD01
:10925000237C337070BD00BF78850E0070B50E465C
:10926000054660B1094C206848B162686B689A4253
:1092700003D1A9680DF05CFE20B11434F3E76FF060
:109280002D0070BD237C337070BD00BF04860E00BE
:1092900070B50E46054660B1094C206848B1626859
:1092A0006B689A4203D1A9680DF042FE20B11434D4
:1092B000F3E76FF02D0070BD237C337070BD00BFED
:1092C000C8850E0070B50E46054660B1094C206891
:1092D00048B162686B689A4203D1A9680DF028FE14
:1092E00020B11434F3E76FF02D0070BD237C337090
:1092F00070BD00BF1C8F0E0030B5084B1C684CB110
:109300001D7C854204D10C605B681360002030BD79
:109310001433F3E76FF02D0030BD00BF1C8F0E003B
:1093200070B50E46054660B1094C206848B16268C8
:109330006B689A4203D1A9680DF0FAFD20B114348C
:10934000F3E76FF02D0070BD237C337070BD00BF5C
:1093500098900E00F8B50F461646054660B10A4CC7
:10936000206848B162686B689A4203D1A9680DF021
:10937000DFFD20B11434F3E76FF02D00F8BD237C3E
:109380003B70637C3370F8BDE08E0E005C220021E0
:109390000DF003BE10B15C2101F0A2B8704708B512
:1093A0005C220DF0D4FD08BD03460A4A9A6002F122
:1093B0008832DA6002F12942A2F59612A2F68B6297
:1093C0001A61A2F1883200205A61034A186058607D
:1093D0009A61704701234567F0E1D2C32DE9F04F50
:1093E0004B780C7891F8089091F80CA00A7C91F8D1
:1093F000148091F818C01B0443EA0463CC7823431B
:109400008C7897B043EA042306934B79019008794E
:109410001B0443EA0063C8790343887943EA0023C5
:1094200007934B7A1B0443EA096391F80B9043EAD4
:10943000090391F80A9043EA09294B7B1B0443EA8C
:109440000A6391F80FA043EA0A0391F80EA043EAD9
:109450000A2A4B7C1B0443EA0263CA7C13438A7CBE
:1094600043EA02230E934B7D1B0443EA086391F801
:10947000178043EA080391F8168043EA08230F9304
:109480004B7E1B0443EA0C6391F81BC091F81CE06F
:1094900091F8206091F8242091F8280091F830404C
:1094A00043EA0C0391F81AC043EA0C2310934B7F54
:1094B0001B0443EA0E6391F81FE043EA0E0391F8A0
:1094C0001EE043EA0E23139391F821301B0443EA74
:1094D000066391F82360334391F8226043EA062340
:1094E000099391F825301B0443EA026391F8272081
:1094F000134391F8262043EA02230A9391F8293076
:1095000091F82C201B0443EA006391F82B000343DD
:1095100091F82A0043EA00230B9391F82D301B04A5
:1095200043EA026391F82F20134391F82E2043EA77
:1095300002230C9391F831301B0443EA046391F841
:109540003340234391F8324043EA04230D9391F8CA
:10955000353091F834201B0443EA026391F8372038
:10956000134391F8362043EA0223029391F83930ED
:1095700091F838201B0443EA026391F83B2013431F
:1095800091F83A2043EA0223039391F83D3091F891
:109590003C201B0443EA026391F83F2091F83E10FF
:1095A000134343EA01230493019B9B681193019B9E
:1095B000DB681493019B1B690593019B5B69129304
:1095C000019B129A9B691593059B83EA0200149BE9
:1095D000119918405040159BDE4A134403EBF16388
:1095E0001844069B1844149B4FEAB305059B83EA75
:1095F000050C059B0CEA010C8CEA030C129B13442E
:109600009C44079B4FEAB1049C44059B85EA0408EF
:109610000CEBF06C08EA000813444FEAB0004B442E
:1096200084EA000188EA0508984401EA0C01AB18B5
:1096300008EBFC6861404FEABC0C5344A7180B448C
:109640000E9C80EA0C0101EA08014140274403EB2B
:10965000F8630F444FEAB8080F998CEA08041C40DD
:10966000114484EA0C04014407EBF36721444FEAF8
:10967000B303109C88EA0300A618384001EBF76199
:10968000139C4FEAB70780EA08006644064483EA61
:10969000070004EB020E084006EBF166099C4FEA56
:1096A000B1015840C644864487EA0100A5183040FD
:1096B00078401D440EEBF66E05444FEAB6060A9854
:1096C00081EA0603841803EA0E0305EBFE654B40AE
:1096D0004FEABE0E0B983C441C4486EA0E032B4016
:1096E000104404EBF56473404FEAB50508440C9947
:1096F00018448EEA050301EB020B234000EBF460F3
:109700000D994FEAB40483EA0E03B3449B4485EAFF
:10971000040301EB020803406B40F0440BEBF06BD9
:1097200098444FEAB000029B84EA000101EA0B0171
:10973000134408EBFB6861404FEABB0B2B44039DCD
:109740000B4480EA0B01AF1801EA080141402744AD
:109750000F44049903EBF8634FEAB8088BEA080456
:1097600011441C400144069884EA0B04214480EA19
:10977000090409984440029844404FEAF470069066
:1097800007EBF367069C4FEAB30388EA030004EB98
:10979000020C384080EA0800DC44844407980A9CA4
:1097A00080EA0A00604068404FEAF070079001EBE1
:1097B000F761079C4FEAB70783EA070004EB020E44
:1097C00008405840C64486440E9889EA00090B9820
:1097D00089EA0009049889EA00094FEAF9700890BB
:1097E000089CA6181E440F9B8AEA030A0C9B0CEBEC
:1097F000F16C8AEA030A4FEAB101069B87EA01008D
:109800000EEBFC6E00EA0C008AEA030A4FEABC0C7D
:109810004FEAFA7A81EA0C0303EA0E0352444B4002
:109820003A449D180E9B109A83EA02090D9B139AE5
:1098300089EA0309079B78400644474F89EA0309F0
:109840004FEAF97906EBFE664FEABE0E8CEA0E038C
:1098500009EB07007340084418440F9B099983EAF9
:109860000208029B88EA030888EA04084FEAF878AD
:1098700005EBF6654FEAB6068EEA060308EB07022B
:109880006B4062441A44109B83EA010C039B0A99C3
:109890008CEA030C8CEA0A0C4FEAFC7C00EBF560C6
:1098A0004FEAB50586EA05030CEB07044340744410
:1098B0001C44139B83EA010E049B8EEA030E8EEA7E
:1098C000090E4FEAFE7E02EBF0624FEAB00085EA35
:1098D00000010EEB0703514033440B440B9E0999E2
:1098E0004E4006994E4086EA08064FEAF671099105
:1098F000099E04EBF2644FEAB20280EA020106EB31
:10990000070B6140AB448B440C9D0A996940079D4D
:10991000694081EA0C0103EBF4634FEAF1714FEA0D
:10992000B4040A9182EA040539445D4001442944A3
:109930000B980D9D6840089D684080EA0E000BEB77
:10994000F36B4FEAF0704FEAB3030B9084EA030520
:1099500004E000BF9979825AA1EBD96E384485EAB8
:109960000B05104428440C9A029D6A4082EA0A02C0
:10997000724001EBFB614FEAF2724FEABB0B0C92B3
:1099800083EA0B053A444D4022442A440D9C039D32
:109990006C400A9D84EA09046C404FEAF4740D940B
:1099A0000D9D00EBF1604FEAB1018BEA01043D44EB
:1099B00044401D442544029B049C63400B9C83EA65
:1099C000080363404FEAF3730293029C02EBF062D8
:1099D0004FEAB00081EA00033C4453405C441C441D
:1099E000039B1E46069B73400C9E83EA0C03734048
:1099F0004FEAF37303933B44079E0B440499714071
:109A00000D9E05EBF26581EA0E014FEAB20280EA93
:109A1000020B714004EBF5648BEA050B4FEAF17120
:109A20004FEAB50504915B44394482EA050B03EB28
:109A3000F463089E8BEA040B01444FEAB400069CD1
:109A40007440099E7440029E74404FEAF474069478
:109A5000069E85EA0004594406EB070B5A445C4015
:109A60001444079A0A9E82EA0A027240039E7240D8
:109A70004FEAF2720792079E01EBF3614FEAB303DC
:109A800006EB070B80EA03025D444A402A44089D26
:109A90000B9E85EA09057540049E75404FEAF575F1
:109AA0000895089E04EBF1644FEAB10106EB070B41
:109AB00083EA01055844654005440C988AEA080A7F
:109AC0008AEA000A06988AEA000A4FEAFA7B02EB61
:109AD000F4624FEAB4040BEB070A81EA0400504039
